{
    "abi": [
        {
            "inputs": [
                {
                    "internalType": "address",
                    "name": "_pool",
                    "type": "address"
                },
                {
                    "internalType": "uint256",
                    "name": "_protocolFee",
                    "type": "uint256"
                },
                {
                    "internalType": "uint256",
                    "name": "_maxTotalSupply",
                    "type": "uint256"
                }
            ],
            "stateMutability": "nonpayable",
            "type": "constructor"
        },
        {
            "anonymous": false,
            "inputs": [
                {
                    "indexed": true,
                    "internalType": "address",
                    "name": "owner",
                    "type": "address"
                },
                {
                    "indexed": true,
                    "internalType": "address",
                    "name": "spender",
                    "type": "address"
                },
                {
                    "indexed": false,
                    "internalType": "uint256",
                    "name": "value",
                    "type": "uint256"
                }
            ],
            "name": "Approval",
            "type": "event"
        },
        {
            "anonymous": false,
            "inputs": [
                {
                    "indexed": false,
                    "internalType": "uint256",
                    "name": "feesToVault0",
                    "type": "uint256"
                },
                {
                    "indexed": false,
                    "internalType": "uint256",
                    "name": "feesToVault1",
                    "type": "uint256"
                },
                {
                    "indexed": false,
                    "internalType": "uint256",
                    "name": "feesToProtocol0",
                    "type": "uint256"
                },
                {
                    "indexed": false,
                    "internalType": "uint256",
                    "name": "feesToProtocol1",
                    "type": "uint256"
                }
            ],
            "name": "CollectFees",
            "type": "event"
        },
        {
            "anonymous": false,
            "inputs": [
                {
                    "indexed": true,
                    "internalType": "address",
                    "name": "sender",
                    "type": "address"
                },
                {
                    "indexed": true,
                    "internalType": "address",
                    "name": "to",
                    "type": "address"
                },
                {
                    "indexed": false,
                    "internalType": "uint256",
                    "name": "shares",
                    "type": "uint256"
                },
                {
                    "indexed": false,
                    "internalType": "uint256",
                    "name": "amount0",
                    "type": "uint256"
                },
                {
                    "indexed": false,
                    "internalType": "uint256",
                    "name": "amount1",
                    "type": "uint256"
                }
            ],
            "name": "Deposit",
            "type": "event"
        },
        {
            "anonymous": false,
            "inputs": [
                {
                    "indexed": false,
                    "internalType": "int24",
                    "name": "tick",
                    "type": "int24"
                },
                {
                    "indexed": false,
                    "internalType": "uint256",
                    "name": "totalAmount0",
                    "type": "uint256"
                },
                {
                    "indexed": false,
                    "internalType": "uint256",
                    "name": "totalAmount1",
                    "type": "uint256"
                },
                {
                    "indexed": false,
                    "internalType": "uint256",
                    "name": "totalSupply",
                    "type": "uint256"
                }
            ],
            "name": "Snapshot",
            "type": "event"
        },
        {
            "anonymous": false,
            "inputs": [
                {
                    "indexed": true,
                    "internalType": "address",
                    "name": "from",
                    "type": "address"
                },
                {
                    "indexed": true,
                    "internalType": "address",
                    "name": "to",
                    "type": "address"
                },
                {
                    "indexed": false,
                    "internalType": "uint256",
                    "name": "value",
                    "type": "uint256"
                }
            ],
            "name": "Transfer",
            "type": "event"
        },
        {
            "anonymous": false,
            "inputs": [
                {
                    "indexed": true,
                    "internalType": "address",
                    "name": "sender",
                    "type": "address"
                },
                {
                    "indexed": true,
                    "internalType": "address",
                    "name": "to",
                    "type": "address"
                },
                {
                    "indexed": false,
                    "internalType": "uint256",
                    "name": "shares",
                    "type": "uint256"
                },
                {
                    "indexed": false,
                    "internalType": "uint256",
                    "name": "amount0",
                    "type": "uint256"
                },
                {
                    "indexed": false,
                    "internalType": "uint256",
                    "name": "amount1",
                    "type": "uint256"
                }
            ],
            "name": "Withdraw",
            "type": "event"
        },
        {
            "inputs": [],
            "name": "SharpeKeeper",
            "outputs": [
                {
                    "internalType": "address",
                    "name": "",
                    "type": "address"
                }
            ],
            "stateMutability": "view",
            "type": "function"
        },
        {
            "inputs": [],
            "name": "acceptGovernance",
            "outputs": [],
            "stateMutability": "nonpayable",
            "type": "function"
        },
        {
            "inputs": [],
            "name": "accruedProtocolFees0",
            "outputs": [
                {
                    "internalType": "uint256",
                    "name": "",
                    "type": "uint256"
                }
            ],
            "stateMutability": "view",
            "type": "function"
        },
        {
            "inputs": [],
            "name": "accruedProtocolFees1",
            "outputs": [
                {
                    "internalType": "uint256",
                    "name": "",
                    "type": "uint256"
                }
            ],
            "stateMutability": "view",
            "type": "function"
        },
        {
            "inputs": [
                {
                    "internalType": "address",
                    "name": "owner",
                    "type": "address"
                },
                {
                    "internalType": "address",
                    "name": "spender",
                    "type": "address"
                }
            ],
            "name": "allowance",
            "outputs": [
                {
                    "internalType": "uint256",
                    "name": "",
                    "type": "uint256"
                }
            ],
            "stateMutability": "view",
            "type": "function"
        },
        {
            "inputs": [
                {
                    "internalType": "address",
                    "name": "spender",
                    "type": "address"
                },
                {
                    "internalType": "uint256",
                    "name": "amount",
                    "type": "uint256"
                }
            ],
            "name": "approve",
            "outputs": [
                {
                    "internalType": "bool",
                    "name": "",
                    "type": "bool"
                }
            ],
            "stateMutability": "nonpayable",
            "type": "function"
        },
        {
            "inputs": [
                {
                    "internalType": "address",
                    "name": "account",
                    "type": "address"
                }
            ],
            "name": "balanceOf",
            "outputs": [
                {
                    "internalType": "uint256",
                    "name": "",
                    "type": "uint256"
                }
            ],
            "stateMutability": "view",
            "type": "function"
        },
        {
            "inputs": [],
            "name": "baseLower",
            "outputs": [
                {
                    "internalType": "int24",
                    "name": "",
                    "type": "int24"
                }
            ],
            "stateMutability": "view",
            "type": "function"
        },
        {
            "inputs": [],
            "name": "baseUpper",
            "outputs": [
                {
                    "internalType": "int24",
                    "name": "",
                    "type": "int24"
                }
            ],
            "stateMutability": "view",
            "type": "function"
        },
        {
            "inputs": [
                {
                    "internalType": "uint256",
                    "name": "amount0",
                    "type": "uint256"
                },
                {
                    "internalType": "uint256",
                    "name": "amount1",
                    "type": "uint256"
                },
                {
                    "internalType": "address",
                    "name": "to",
                    "type": "address"
                }
            ],
            "name": "collectProtocol",
            "outputs": [],
            "stateMutability": "nonpayable",
            "type": "function"
        },
        {
            "inputs": [],
            "name": "decimals",
            "outputs": [
                {
                    "internalType": "uint8",
                    "name": "",
                    "type": "uint8"
                }
            ],
            "stateMutability": "view",
            "type": "function"
        },
        {
            "inputs": [
                {
                    "internalType": "address",
                    "name": "spender",
                    "type": "address"
                },
                {
                    "internalType": "uint256",
                    "name": "subtractedValue",
                    "type": "uint256"
                }
            ],
            "name": "decreaseAllowance",
            "outputs": [
                {
                    "internalType": "bool",
                    "name": "",
                    "type": "bool"
                }
            ],
            "stateMutability": "nonpayable",
            "type": "function"
        },
        {
            "inputs": [
                {
                    "internalType": "uint256",
                    "name": "amount0Desired",
                    "type": "uint256"
                },
                {
                    "internalType": "uint256",
                    "name": "amount1Desired",
                    "type": "uint256"
                },
                {
                    "internalType": "uint256",
                    "name": "amount0Min",
                    "type": "uint256"
                },
                {
                    "internalType": "uint256",
                    "name": "amount1Min",
                    "type": "uint256"
                },
                {
                    "internalType": "address",
                    "name": "to",
                    "type": "address"
                }
            ],
            "name": "deposit",
            "outputs": [
                {
                    "internalType": "uint256",
                    "name": "shares",
                    "type": "uint256"
                },
                {
                    "internalType": "uint256",
                    "name": "amount0",
                    "type": "uint256"
                },
                {
                    "internalType": "uint256",
                    "name": "amount1",
                    "type": "uint256"
                }
            ],
            "stateMutability": "nonpayable",
            "type": "function"
        },
        {
            "inputs": [
                {
                    "internalType": "int24",
                    "name": "tickLower",
                    "type": "int24"
                },
                {
                    "internalType": "int24",
                    "name": "tickUpper",
                    "type": "int24"
                },
                {
                    "internalType": "uint128",
                    "name": "liquidity",
                    "type": "uint128"
                }
            ],
            "name": "emergencyBurn",
            "outputs": [],
            "stateMutability": "nonpayable",
            "type": "function"
        },
        {
            "inputs": [],
            "name": "getBalance0",
            "outputs": [
                {
                    "internalType": "uint256",
                    "name": "",
                    "type": "uint256"
                }
            ],
            "stateMutability": "view",
            "type": "function"
        },
        {
            "inputs": [],
            "name": "getBalance1",
            "outputs": [
                {
                    "internalType": "uint256",
                    "name": "",
                    "type": "uint256"
                }
            ],
            "stateMutability": "view",
            "type": "function"
        },
        {
            "inputs": [
                {
                    "internalType": "int24",
                    "name": "tickLower",
                    "type": "int24"
                },
                {
                    "internalType": "int24",
                    "name": "tickUpper",
                    "type": "int24"
                }
            ],
            "name": "getPositionAmounts",
            "outputs": [
                {
                    "internalType": "uint256",
                    "name": "amount0",
                    "type": "uint256"
                },
                {
                    "internalType": "uint256",
                    "name": "amount1",
                    "type": "uint256"
                }
            ],
            "stateMutability": "view",
            "type": "function"
        },
        {
            "inputs": [],
            "name": "getTotalAmounts",
            "outputs": [
                {
                    "internalType": "uint256",
                    "name": "total0",
                    "type": "uint256"
                },
                {
                    "internalType": "uint256",
                    "name": "total1",
                    "type": "uint256"
                }
            ],
            "stateMutability": "view",
            "type": "function"
        },
        {
            "inputs": [],
            "name": "governance",
            "outputs": [
                {
                    "internalType": "address",
                    "name": "",
                    "type": "address"
                }
            ],
            "stateMutability": "view",
            "type": "function"
        },
        {
            "inputs": [
                {
                    "internalType": "address",
                    "name": "spender",
                    "type": "address"
                },
                {
                    "internalType": "uint256",
                    "name": "addedValue",
                    "type": "uint256"
                }
            ],
            "name": "increaseAllowance",
            "outputs": [
                {
                    "internalType": "bool",
                    "name": "",
                    "type": "bool"
                }
            ],
            "stateMutability": "nonpayable",
            "type": "function"
        },
        {
            "inputs": [],
            "name": "limitLower",
            "outputs": [
                {
                    "internalType": "int24",
                    "name": "",
                    "type": "int24"
                }
            ],
            "stateMutability": "view",
            "type": "function"
        },
        {
            "inputs": [],
            "name": "limitUpper",
            "outputs": [
                {
                    "internalType": "int24",
                    "name": "",
                    "type": "int24"
                }
            ],
            "stateMutability": "view",
            "type": "function"
        },
        {
            "inputs": [],
            "name": "maxTotalSupply",
            "outputs": [
                {
                    "internalType": "uint256",
                    "name": "",
                    "type": "uint256"
                }
            ],
            "stateMutability": "view",
            "type": "function"
        },
        {
            "inputs": [],
            "name": "name",
            "outputs": [
                {
                    "internalType": "string",
                    "name": "",
                    "type": "string"
                }
            ],
            "stateMutability": "view",
            "type": "function"
        },
        {
            "inputs": [],
            "name": "pendingGovernance",
            "outputs": [
                {
                    "internalType": "address",
                    "name": "",
                    "type": "address"
                }
            ],
            "stateMutability": "view",
            "type": "function"
        },
        {
            "inputs": [],
            "name": "pool",
            "outputs": [
                {
                    "internalType": "contract IUniswapV3Pool",
                    "name": "",
                    "type": "address"
                }
            ],
            "stateMutability": "view",
            "type": "function"
        },
        {
            "inputs": [],
            "name": "protocolFee",
            "outputs": [
                {
                    "internalType": "uint256",
                    "name": "",
                    "type": "uint256"
                }
            ],
            "stateMutability": "view",
            "type": "function"
        },
        {
            "inputs": [
                {
                    "internalType": "int256",
                    "name": "swapAmount",
                    "type": "int256"
                },
                {
                    "internalType": "uint160",
                    "name": "sqrtPriceLimitX96",
                    "type": "uint160"
                },
                {
                    "internalType": "int24",
                    "name": "_baseLower",
                    "type": "int24"
                },
                {
                    "internalType": "int24",
                    "name": "_baseUpper",
                    "type": "int24"
                },
                {
                    "internalType": "int24",
                    "name": "_bidLower",
                    "type": "int24"
                },
                {
                    "internalType": "int24",
                    "name": "_bidUpper",
                    "type": "int24"
                },
                {
                    "internalType": "int24",
                    "name": "_askLower",
                    "type": "int24"
                },
                {
                    "internalType": "int24",
                    "name": "_askUpper",
                    "type": "int24"
                }
            ],
            "name": "rebalance",
            "outputs": [],
            "stateMutability": "nonpayable",
            "type": "function"
        },
        {
            "inputs": [
                {
                    "internalType": "address",
                    "name": "_governance",
                    "type": "address"
                }
            ],
            "name": "setGovernance",
            "outputs": [],
            "stateMutability": "nonpayable",
            "type": "function"
        },
        {
            "inputs": [
                {
                    "internalType": "uint256",
                    "name": "_maxTotalSupply",
                    "type": "uint256"
                }
            ],
            "name": "setMaxTotalSupply",
            "outputs": [],
            "stateMutability": "nonpayable",
            "type": "function"
        },
        {
            "inputs": [
                {
                    "internalType": "uint256",
                    "name": "_protocolFee",
                    "type": "uint256"
                }
            ],
            "name": "setProtocolFee",
            "outputs": [],
            "stateMutability": "nonpayable",
            "type": "function"
        },
        {
            "inputs": [
                {
                    "internalType": "address",
                    "name": "_SharpeKeeper",
                    "type": "address"
                }
            ],
            "name": "setSharpeKeeper",
            "outputs": [],
            "stateMutability": "nonpayable",
            "type": "function"
        },
        {
            "inputs": [
                {
                    "internalType": "contract IERC20",
                    "name": "token",
                    "type": "address"
                },
                {
                    "internalType": "uint256",
                    "name": "amount",
                    "type": "uint256"
                },
                {
                    "internalType": "address",
                    "name": "to",
                    "type": "address"
                }
            ],
            "name": "sweep",
            "outputs": [],
            "stateMutability": "nonpayable",
            "type": "function"
        },
        {
            "inputs": [],
            "name": "symbol",
            "outputs": [
                {
                    "internalType": "string",
                    "name": "",
                    "type": "string"
                }
            ],
            "stateMutability": "view",
            "type": "function"
        },
        {
            "inputs": [],
            "name": "tickSpacing",
            "outputs": [
                {
                    "internalType": "int24",
                    "name": "",
                    "type": "int24"
                }
            ],
            "stateMutability": "view",
            "type": "function"
        },
        {
            "inputs": [],
            "name": "token0",
            "outputs": [
                {
                    "internalType": "contract IERC20",
                    "name": "",
                    "type": "address"
                }
            ],
            "stateMutability": "view",
            "type": "function"
        },
        {
            "inputs": [],
            "name": "token1",
            "outputs": [
                {
                    "internalType": "contract IERC20",
                    "name": "",
                    "type": "address"
                }
            ],
            "stateMutability": "view",
            "type": "function"
        },
        {
            "inputs": [],
            "name": "totalSupply",
            "outputs": [
                {
                    "internalType": "uint256",
                    "name": "",
                    "type": "uint256"
                }
            ],
            "stateMutability": "view",
            "type": "function"
        },
        {
            "inputs": [
                {
                    "internalType": "address",
                    "name": "to",
                    "type": "address"
                },
                {
                    "internalType": "uint256",
                    "name": "amount",
                    "type": "uint256"
                }
            ],
            "name": "transfer",
            "outputs": [
                {
                    "internalType": "bool",
                    "name": "",
                    "type": "bool"
                }
            ],
            "stateMutability": "nonpayable",
            "type": "function"
        },
        {
            "inputs": [
                {
                    "internalType": "address",
                    "name": "from",
                    "type": "address"
                },
                {
                    "internalType": "address",
                    "name": "to",
                    "type": "address"
                },
                {
                    "internalType": "uint256",
                    "name": "amount",
                    "type": "uint256"
                }
            ],
            "name": "transferFrom",
            "outputs": [
                {
                    "internalType": "bool",
                    "name": "",
                    "type": "bool"
                }
            ],
            "stateMutability": "nonpayable",
            "type": "function"
        },
        {
            "inputs": [
                {
                    "internalType": "uint256",
                    "name": "amount0",
                    "type": "uint256"
                },
                {
                    "internalType": "uint256",
                    "name": "amount1",
                    "type": "uint256"
                },
                {
                    "internalType": "bytes",
                    "name": "data",
                    "type": "bytes"
                }
            ],
            "name": "uniswapV3MintCallback",
            "outputs": [],
            "stateMutability": "nonpayable",
            "type": "function"
        },
        {
            "inputs": [
                {
                    "internalType": "int256",
                    "name": "amount0Delta",
                    "type": "int256"
                },
                {
                    "internalType": "int256",
                    "name": "amount1Delta",
                    "type": "int256"
                },
                {
                    "internalType": "bytes",
                    "name": "data",
                    "type": "bytes"
                }
            ],
            "name": "uniswapV3SwapCallback",
            "outputs": [],
            "stateMutability": "nonpayable",
            "type": "function"
        },
        {
            "inputs": [
                {
                    "internalType": "uint256",
                    "name": "shares",
                    "type": "uint256"
                },
                {
                    "internalType": "uint256",
                    "name": "amount0Min",
                    "type": "uint256"
                },
                {
                    "internalType": "uint256",
                    "name": "amount1Min",
                    "type": "uint256"
                },
                {
                    "internalType": "address",
                    "name": "to",
                    "type": "address"
                }
            ],
            "name": "withdraw",
            "outputs": [
                {
                    "internalType": "uint256",
                    "name": "amount0",
                    "type": "uint256"
                },
                {
                    "internalType": "uint256",
                    "name": "amount1",
                    "type": "uint256"
                }
            ],
            "stateMutability": "nonpayable",
            "type": "function"
        }
    ],
    "bytecode": "6101006040523480156200001257600080fd5b506040516200460638038062004606833981016040819052620000359162000394565b6040805180820182526008815267536861727065414960c01b602080830191825283518085019094526002845261414960f01b9084015281519192916200007f91600391620002ad565b50805162000095906004906020840190620002ad565b50506001600555506001600160601b0319606084901b1660805260408051630dfe168160e01b815290516001600160a01b03851691630dfe1681916004808301926020929190829003018186803b158015620000f057600080fd5b505afa15801562000105573d6000803e3d6000fd5b505050506040513d601f19601f820116820180604052508101906200012b919062000370565b6001600160a01b031660a0816001600160a01b031660601b81525050826001600160a01b031663d21220a76040518163ffffffff1660e01b815260040160206040518083038186803b1580156200018157600080fd5b505afa15801562000196573d6000803e3d6000fd5b505050506040513d601f19601f82011682018060405250810190620001bc919062000370565b6001600160a01b031660c0816001600160a01b031660601b81525050826001600160a01b031663d0c93a7c6040518163ffffffff1660e01b815260040160206040518083038186803b1580156200021257600080fd5b505afa15801562000227573d6000803e3d6000fd5b505050506040513d601f19601f820116820180604052508101906200024d9190620003cb565b600290810b900b60e81b60e05260068290556007819055600980546001600160a01b03191633179055620f42408210620002a45760405162461bcd60e51b81526004016200029b90620003ee565b60405180910390fd5b50505062000450565b828054620002bb9062000413565b90600052602060002090601f016020900481019282620002df57600085556200032a565b82601f10620002fa57805160ff19168380011785556200032a565b828001600101855582156200032a579182015b828111156200032a5782518255916020019190600101906200030d565b50620003389291506200033c565b5090565b5b808211156200033857600081556001016200033d565b80516001600160a01b03811681146200036b57600080fd5b919050565b60006020828403121562000382578081fd5b6200038d8262000353565b9392505050565b600080600060608486031215620003a9578182fd5b620003b48462000353565b925060208401519150604084015190509250925092565b600060208284031215620003dd578081fd5b81518060020b81146200038d578182fd5b6020808252600b908201526a70726f746f636f6c46656560a81b604082015260600190565b6002810460018216806200042857607f821691505b602082108114156200044a57634e487b7160e01b600052602260045260246000fd5b50919050565b60805160601c60a05160601c60c05160601c60e05160e81c6140ac6200055a600039600081816114580152611ed50152600081816105b80152818161091201528181610a540152818161147c015281816116710152818161178101528181611817015261195401526000818161057e015281816106a9015281816108d701528181610b220152818161163701528181611747015281816117da01526119170152600081816106dd01528181610c5001528181610e4a01528181611238015281816112db0152818161170a015281816118d701528181611c3801528181611ff6015281816120ba0152818161214f015281816122e0015281816123c4015261240601526140ac6000f3fe608060405234801561001057600080fd5b50600436106102695760003560e01c806387e5e08311610151578063c4a7761e116100c3578063dc2c256f11610087578063dc2c256f146104c7578063dd62ed3e146104da578063eae989a2146104ed578063f39c38a0146104f5578063fa082743146104fd578063fa461e331461050557610269565b8063c4a7761e14610489578063d0c93a7c14610491578063d21220a714610499578063d331bef7146104a1578063d3487997146104b457610269565b8063a9059cbb11610115578063a9059cbb14610414578063a91ef6eb14610427578063ab033ea914610448578063abbffcb91461045b578063b0e21e8a1461046e578063b3a3d00c1461047657610269565b806387e5e083146103d6578063888a9134146103e957806395d89b41146103f1578063a00fa77f146103f9578063a457c2d71461040157610269565b80632ab4d052116101ea57806341aec538116101ae57806341aec5381461039057806351e87af7146103985780635aa6e675146103a0578063629d9405146103a857806370a08231146103b0578063787dce3d146103c357610269565b80632ab4d0521461032b578063313ce56714610333578063365d0ed714610348578063395093511461036a5780633f3e4c111461037d57610269565b80630f35bcac116102315780630f35bcac146102de57806316f0115b146102f357806318160ddd146102fb578063238efcbc1461031057806323b872dd1461031857610269565b80630430c1301461026e57806306fdde0314610283578063095ea7b3146102a15780630c42383a146102c15780630dfe1681146102d6575b600080fd5b61028161027c366004613545565b610518565b005b61028b6105e4565b60405161029891906137b3565b60405180910390f35b6102b46102af3660046131f0565b610676565b604051610298919061374b565b6102c9610698565b6040516102989190613641565b6102c96106a7565b6102e66106cb565b604051610298919061375f565b6102c96106db565b6103036106ff565b6040516102989190613756565b610281610705565b6102b46103263660046131b0565b610743565b610303610773565b61033b610779565b6040516102989190613e9e565b61035b6103563660046135b2565b61077e565b60405161029893929190613e6d565b6102b46103783660046131f0565b6109cf565b61028161038b366004613515565b610a1b565b610303610a4a565b6102e6610af9565b6102c9610b09565b610303610b18565b6103036103be36600461315c565b610b6c565b6102816103d1366004613515565b610b8b565b6102816103e4366004613356565b610bdc565b6102e6611065565b61028b611075565b610303611084565b6102b461040f3660046131f0565b61108a565b6102b46104223660046131f0565b6110f6565b61043a610435366004613276565b61110e565b604051610298929190613e5f565b61028161045636600461315c565b6111ab565b6102816104693660046132a3565b6111f7565b610303611377565b61028161048436600461315c565b61137d565b61043a6113c9565b6102e6611456565b6102c961147a565b61043a6104af366004613572565b61149e565b6102816104c2366004613305565b6116ff565b6102816104d5366004613235565b6117ae565b6103036104e8366004613178565b61187c565b6103036118a7565b6102c96118ad565b6102e66118bc565b610281610513366004613305565b6118cc565b6009546001600160a01b0316331461054b5760405162461bcd60e51b815260040161054290613b39565b60405180910390fd5b600b54610558908461197b565b600b55600c54610568908361197b565b600c5582156105a5576105a56001600160a01b037f0000000000000000000000000000000000000000000000000000000000000000168285611987565b81156105df576105df6001600160a01b037f0000000000000000000000000000000000000000000000000000000000000000168284611987565b505050565b6060600380546105f390613f62565b80601f016020809104026020016040519081016040528092919081815260200182805461061f90613f62565b801561066c5780601f106106415761010080835404028352916020019161066c565b820191906000526020600020905b81548152906001019060200180831161064f57829003601f168201915b5050505050905090565b6000806106816119dd565b905061068e8185856119e1565b5060019392505050565b6008546001600160a01b031681565b7f000000000000000000000000000000000000000000000000000000000000000081565b600a54600160e81b900460020b81565b7f000000000000000000000000000000000000000000000000000000000000000081565b60025490565b600a546001600160a01b0316331461072f5760405162461bcd60e51b815260040161054290613aa4565b600980546001600160a01b03191633179055565b60008061074e6119dd565b905061075b858285611a95565b610766858585611ad9565b60019150505b9392505050565b60075481565b601290565b6000806000600260055414156107a65760405162461bcd60e51b815260040161054290613dac565b6002600555871515806107b95750600087115b6107d55760405162461bcd60e51b815260040161054290613a6f565b6001600160a01b038416158015906107f657506001600160a01b0384163014155b6108125760405162461bcd60e51b81526004016105429061388f565b600a5461083490600160a01b8104600290810b91600160b81b9004900b611bfd565b600a5461085690600160d01b8104600290810b91600160e81b9004900b611bfd565b6108608888611cc3565b91945092509050826108845760405162461bcd60e51b815260040161054290613b5d565b858210156108a45760405162461bcd60e51b815260040161054290613829565b848110156108c45760405162461bcd60e51b815260040161054290613c22565b81156108ff576108ff6001600160a01b037f000000000000000000000000000000000000000000000000000000000000000016333085611de6565b801561093a5761093a6001600160a01b037f000000000000000000000000000000000000000000000000000000000000000016333084611de6565b6109448484611e07565b836001600160a01b0316336001600160a01b03167f4e2ca0515ed1aef1395f66b5303bb5d6f1bf9d61a353fa53f73f8ac9973fa9f685858560405161098b93929190613e6d565b60405180910390a360075461099e6106ff565b11156109bc5760405162461bcd60e51b815260040161054290613d3a565b6001600581905550955095509592505050565b6000806109da6119dd565b6001600160a01b0380821660009081526001602090815260408083209389168352929052205490915061068e9082908690610a16908790613eac565b6119e1565b6009546001600160a01b03163314610a455760405162461bcd60e51b815260040161054290613b39565b600755565b6000610af4600c547f00000000000000000000000000000000000000000000000000000000000000006001600160a01b03166370a08231306040518263ffffffff1660e01b8152600401610a9e9190613641565b60206040518083038186803b158015610ab657600080fd5b505afa158015610aca573d6000803e3d6000fd5b505050506040513d601f19601f82011682018060405250810190610aee919061352d565b9061197b565b905090565b600a54600160d01b900460020b81565b6009546001600160a01b031681565b6000610af4600b547f00000000000000000000000000000000000000000000000000000000000000006001600160a01b03166370a08231306040518263ffffffff1660e01b8152600401610a9e9190613641565b6001600160a01b0381166000908152602081905260409020545b919050565b6009546001600160a01b03163314610bb55760405162461bcd60e51b815260040161054290613b39565b620f42408110610bd75760405162461bcd60e51b815260040161054290613acf565b600655565b60026005541415610bff5760405162461bcd60e51b815260040161054290613dac565b60026005556008546001600160a01b03163314610c2e5760405162461bcd60e51b815260040161054290613b13565b610c388686611ed3565b610c428484611ed3565b610c4c8282611ed3565b60007f00000000000000000000000000000000000000000000000000000000000000006001600160a01b0316633850c7bd6040518163ffffffff1660e01b815260040160e06040518083038186803b158015610ca757600080fd5b505afa158015610cbb573d6000803e3d6000fd5b505050506040513d601f19601f82011682018060405250810190610cdf9190613484565b50505050509150508060020b8460020b1315610d0d5760405162461bcd60e51b815260040161054290613a07565b8060020b8360020b13610d325760405162461bcd60e51b815260040161054290613c46565b600a54600090610d5790600160a01b8104600290810b91600160b81b9004900b611fc8565b5050600a54929350600092610d849250600160d01b8104600290810b9250600160e81b909104900b611fc8565b5050600a54929350610db092600160a01b8104600290810b9350600160b81b909104900b90508461208f565b5050600a54610dd89250600160d01b8104600290810b9250600160e81b909104900b8361208f565b5050505050506000610de8610b18565b90506000610df4610a4a565b90507f210f60adf1db7a02e9db9a49ec7c2eb2060c516cbcfd01a0c05288144738ee5d838383610e226106ff565b604051610e329493929190613793565b60405180910390a18a15610f11576001600160a01b037f00000000000000000000000000000000000000000000000000000000000000001663128acb083060008e1380610e8757610e828f613ff4565b610e89565b8e5b8e6040518563ffffffff1660e01b8152600401610ea99493929190613679565b6040805180830381600087803b158015610ec257600080fd5b505af1158015610ed6573d6000803e3d6000fd5b505050506040513d601f19601f82011682018060405250810190610efa91906132e2565b5050610f04610b18565b9150610f0e610a4a565b90505b6000610f1f8a8a85856122db565b9050610f2c8a8a8361239e565b600a805460028c810b62ffffff908116600160a01b0262ffffff60a01b19928e900b909116600160b81b0262ffffff60b81b199093169290921716179055610f72610b18565b9250610f7c610a4a565b91506000610f8c898986866122db565b90506000610f9c888887876122db565b9050806001600160801b0316826001600160801b0316111561100657610fc38a8a8461239e565b600a805460028c810b62ffffff908116600160d01b0262ffffff60d01b19928e900b909116600160e81b026001600160e81b039093169290921716179055611050565b61101188888361239e565b600a805460028a810b62ffffff908116600160d01b0262ffffff60d01b19928c900b909116600160e81b026001600160e81b0390931692909217161790555b50506001600555505050505050505050505050565b600a54600160b81b900460020b81565b6060600480546105f390613f62565b600c5481565b6000806110956119dd565b6001600160a01b03808216600090815260016020908152604080832093891683529290522054909150838110156110de5760405162461bcd60e51b815260040161054290613de3565b6110eb82868684036119e1565b506001949350505050565b6000806111016119dd565b905061068e818585611ad9565b60008060008060006111208787611fc8565b94509450505092506111338787856123ff565b600654919650945060009061114c90620f42409061197b565b9050611178611171620f424061116b6001600160801b038716856124c6565b906124d2565b87906124de565b955061119e611197620f424061116b6001600160801b038616856124c6565b86906124de565b9450505050509250929050565b6009546001600160a01b031633146111d55760405162461bcd60e51b815260040161054290613b39565b600a80546001600160a01b0319166001600160a01b0392909216919091179055565b6009546001600160a01b031633146112215760405162461bcd60e51b815260040161054290613b39565b60405163a34123a760e01b81526001600160a01b037f0000000000000000000000000000000000000000000000000000000000000000169063a34123a7906112719086908690869060040161376d565b6040805180830381600087803b15801561128a57600080fd5b505af115801561129e573d6000803e3d6000fd5b505050506040513d601f19601f820116820180604052508101906112c291906132e2565b50506040516309e3d67b60e31b81526001600160a01b037f00000000000000000000000000000000000000000000000000000000000000001690634f1eb3d89061131f903090879087906001600160801b039081906004016136f5565b6040805180830381600087803b15801561133857600080fd5b505af115801561134c573d6000803e3d6000fd5b505050506040513d601f19601f8201168201806040525081019061137091906133f5565b5050505050565b60065481565b6009546001600160a01b031633146113a75760405162461bcd60e51b815260040161054290613b39565b600880546001600160a01b0319166001600160a01b0392909216919091179055565b600a546000908190819081906113f490600160a01b8104600290810b91600160b81b9004900b61110e565b600a549193509150600090819061142090600160d01b8104600290810b91600160e81b9004900b61110e565b9150915061143a8261143486611434610b18565b906124de565b955061144c8161143485611434610a4a565b9450505050509091565b7f000000000000000000000000000000000000000000000000000000000000000081565b7f000000000000000000000000000000000000000000000000000000000000000081565b600080600260055414156114c45760405162461bcd60e51b815260040161054290613dac565b6002600555856114e65760405162461bcd60e51b815260040161054290613b5d565b6001600160a01b0383161580159061150757506001600160a01b0383163014155b6115235760405162461bcd60e51b81526004016105429061388f565b600061152d6106ff565b905061153933886124ea565b60006115518261116b8a61154b610b18565b906124c6565b905060006115658361116b8b61154b610a4a565b600a54909150600090819061159190600160a01b8104600290810b91600160b81b9004900b8d886125db565b600a54919350915060009081906115bf90600160d01b8104600290810b91600160e81b9004900b8f8a6125db565b90925090506115d28261143488876124de565b98506115e28161143487866124de565b97508b8910156116045760405162461bcd60e51b815260040161054290613829565b8a8810156116245760405162461bcd60e51b815260040161054290613c22565b881561165e5761165e6001600160a01b037f0000000000000000000000000000000000000000000000000000000000000000168b8b611987565b8715611698576116986001600160a01b037f0000000000000000000000000000000000000000000000000000000000000000168b8a611987565b896001600160a01b0316336001600160a01b03167febff2602b3f468259e1e99f613fed6691f3a6526effe6ef3e768ba7ae7a36c4f8f8c8c6040516116df93929190613e6d565b60405180910390a350505050505050600160058190555094509492505050565b336001600160a01b037f0000000000000000000000000000000000000000000000000000000000000000161461173457600080fd5b831561176e5761176e6001600160a01b037f0000000000000000000000000000000000000000000000000000000000000000163386611987565b82156117a8576117a86001600160a01b037f0000000000000000000000000000000000000000000000000000000000000000163385611987565b50505050565b6009546001600160a01b031633146117d85760405162461bcd60e51b815260040161054290613b39565b7f00000000000000000000000000000000000000000000000000000000000000006001600160a01b0316836001600160a01b03161415801561184c57507f00000000000000000000000000000000000000000000000000000000000000006001600160a01b0316836001600160a01b031614155b6118685760405162461bcd60e51b815260040161054290613af4565b6105df6001600160a01b0384168284611987565b6001600160a01b03918216600090815260016020908152604080832093909416825291909152205490565b600b5481565b600a546001600160a01b031681565b600a54600160a01b900460020b81565b336001600160a01b037f0000000000000000000000000000000000000000000000000000000000000000161461190157600080fd5b600084131561193e5761193e6001600160a01b037f0000000000000000000000000000000000000000000000000000000000000000163386611987565b60008313156117a8576117a86001600160a01b037f0000000000000000000000000000000000000000000000000000000000000000163385611987565b600061076c8284613f1f565b6105df8363a9059cbb60e01b84846040516024016119a6929190613732565b60408051601f198184030181529190526020810180516001600160e01b03166001600160e01b031990931692909217909152612681565b3390565b6001600160a01b038316611a075760405162461bcd60e51b815260040161054290613c93565b6001600160a01b038216611a2d5760405162461bcd60e51b8152600401610542906138da565b6001600160a01b0380841660008181526001602090815260408083209487168084529490915290819020849055517f8c5be1e5ebec7d5bd14f71427d1e84f3dd0314c0f7b2291e5b200ac8c7c3b92590611a88908590613756565b60405180910390a3505050565b6000611aa1848461187c565b905060001981146117a85781811015611acc5760405162461bcd60e51b815260040161054290613953565b6117a884848484036119e1565b6001600160a01b038316611aff5760405162461bcd60e51b815260040161054290613bdd565b6001600160a01b038216611b255760405162461bcd60e51b8152600401610542906137e6565b611b308383836105df565b6001600160a01b03831660009081526020819052604090205481811015611b695760405162461bcd60e51b8152600401610542906139c1565b6001600160a01b03808516600090815260208190526040808220858503905591851681529081208054849290611ba0908490613eac565b92505081905550826001600160a01b0316846001600160a01b03167fddf252ad1be2c89b69c2b068fc378daa952ba7f163c4a11628f55a4df523b3ef84604051611bea9190613756565b60405180910390a36117a88484846105df565b6000611c098383611fc8565b5050505090506000816001600160801b031611156105df5760405163a34123a760e01b81526001600160a01b037f0000000000000000000000000000000000000000000000000000000000000000169063a34123a790611c72908690869060009060040161376d565b6040805180830381600087803b158015611c8b57600080fd5b505af1158015611c9f573d6000803e3d6000fd5b505050506040513d601f19601f8201168201806040525081019061137091906132e2565b600080600080611cd16106ff565b9050600080611cde6113c9565b915091508260001480611cf15750600082115b80611cfc5750600081115b611d1657634e487b7160e01b600052600160045260246000fd5b82611d3257879450869350611d2b8585612710565b9550611ddc565b81611d4857869350611d2b8161116b86866124c6565b80611d5e57879450611d2b8261116b87866124c6565b6000611d7c611d6d8a846124c6565b611d778a866124c6565b612727565b905060008111611d9e5760405162461bcd60e51b815260040161054290613bbe565b611db160016114348461116b858461197b565b9550611dc660016114348561116b858461197b565b9450611dd88261116b858185896124c6565b9650505b5050509250925092565b6117a8846323b872dd60e01b8585856040516024016119a693929190613655565b6001600160a01b038216611e2d5760405162461bcd60e51b815260040161054290613e28565b611e39600083836105df565b8060026000828254611e4b9190613eac565b90915550506001600160a01b03821660009081526020819052604081208054839290611e78908490613eac565b90915550506040516001600160a01b038316906000907fddf252ad1be2c89b69c2b068fc378daa952ba7f163c4a11628f55a4df523b3ef90611ebb908590613756565b60405180910390a3611ecf600083836105df565b5050565b7f0000000000000000000000000000000000000000000000000000000000000000600282810b9084900b12611f1a5760405162461bcd60e51b8152600401610542906138ab565b620d89e719600284900b1215611f425760405162461bcd60e51b815260040161054290613c68565b611f4f620d89e719613fd3565b60020b8260020b1315611f745760405162461bcd60e51b815260040161054290613cd7565b611f7e8184613f9d565b60020b15611f9e5760405162461bcd60e51b81526004016105429061391c565b611fa88183613f9d565b60020b156105df5760405162461bcd60e51b81526004016105429061398a565b600080600080600080611fdc308989612736565b60405163514ea4bf60e01b81529091506001600160a01b037f0000000000000000000000000000000000000000000000000000000000000000169063514ea4bf9061202b908490600401613756565b60a06040518083038186803b15801561204357600080fd5b505afa158015612057573d6000803e3d6000fd5b505050506040513d601f19601f8201168201806040525081019061207b9190613423565b939c929b5090995097509095509350505050565b60008080806001600160801b0385161561214a5760405163a34123a760e01b81526001600160a01b037f0000000000000000000000000000000000000000000000000000000000000000169063a34123a7906120f3908a908a908a9060040161376d565b6040805180830381600087803b15801561210c57600080fd5b505af1158015612120573d6000803e3d6000fd5b505050506040513d601f19601f8201168201806040525081019061214491906132e2565b90945092505b6000807f00000000000000000000000000000000000000000000000000000000000000006001600160a01b0316634f1eb3d8308b8b6001600160801b03806040518663ffffffff1660e01b81526004016121a89594939291906136f5565b6040805180830381600087803b1580156121c157600080fd5b505af11580156121d5573d6000803e3d6000fd5b505050506040513d601f19601f820116820180604052508101906121f991906133f5565b6001600160801b039182169350169050612213828761197b565b935061221f818661197b565b6006549093506000908190801561229057612241620f424061116b89846124c6565b9250612254620f424061116b88846124c6565b9150612260878461197b565b965061226c868361197b565b600b5490965061227c90846124de565b600b55600c5461228c90836124de565b600c555b7f1ac56d7e866e3f5ea9aa92aa11758ead39a0a5f013f3fefb0f47cb9d008edd27878785856040516122c59493929190613e83565b60405180910390a1505050505093509350935093565b6000807f00000000000000000000000000000000000000000000000000000000000000006001600160a01b0316633850c7bd6040518163ffffffff1660e01b815260040160e06040518083038186803b15801561233757600080fd5b505afa15801561234b573d6000803e3d6000fd5b505050506040513d601f19601f8201168201806040525081019061236f9190613484565b5050505050509050612394816123848861276c565b61238d8861276c565b8787612b46565b9695505050505050565b6001600160801b038116156105df57604051633c8a7d8d60e01b81526001600160a01b037f00000000000000000000000000000000000000000000000000000000000000001690633c8a7d8d90611c729030908790879087906004016136b3565b60008060007f00000000000000000000000000000000000000000000000000000000000000006001600160a01b0316633850c7bd6040518163ffffffff1660e01b815260040160e06040518083038186803b15801561245d57600080fd5b505afa158015612471573d6000803e3d6000fd5b505050506040513d601f19601f820116820180604052508101906124959190613484565b50505050505090506124b9816124aa8861276c565b6124b38861276c565b87612c0a565b9250925050935093915050565b600061076c8284613ed8565b600061076c8284613ec4565b600061076c8284613eac565b6001600160a01b0382166125105760405162461bcd60e51b815260040161054290613b7d565b61251c826000836105df565b6001600160a01b038216600090815260208190526040902054818110156125555760405162461bcd60e51b81526004016105429061384d565b6001600160a01b0383166000908152602081905260408120838303905560028054849290612584908490613f1f565b90915550506040516000906001600160a01b038516907fddf252ad1be2c89b69c2b068fc378daa952ba7f163c4a11628f55a4df523b3ef906125c7908690613756565b60405180910390a36105df836000846105df565b60008060006125ea8787611fc8565b50505050905060006126128561116b88856001600160801b03166124c690919063ffffffff16565b90508015612676576000806000806126338c8c61262e88612ca6565b61208f565b9296509094509250905061265561264e8a61116b858e6124c6565b85906124de565b975061266f6126688a61116b848e6124c6565b84906124de565b9650505050505b505094509492505050565b60006126d6826040518060400160405280602081526020017f5361666545524332303a206c6f772d6c6576656c2063616c6c206661696c6564815250856001600160a01b0316612cd19092919063ffffffff16565b8051909150156105df57808060200190518101906126f4919061321b565b6105df5760405162461bcd60e51b815260040161054290613d62565b600081831015612720578161076c565b5090919050565b6000818310612720578161076c565b600083838360405160200161274d939291906135f0565b6040516020818303038152906040528051906020012090509392505050565b60008060008360020b12612783578260020b612790565b8260020b61279090613ff4565b90506000600182166127a657600160801b6127b8565b6ffffcb933bd6fad37aa2d162d1a5940015b70ffffffffffffffffffffffffffffffffff16905060028216156127f75760806127f2826ffff97272373d413259a46990580e213a613ed8565b901c90505b600482161561282157608061281c826ffff2e50f5f656932ef12357cf3c7fdcc613ed8565b901c90505b600882161561284b576080612846826fffe5caca7e10e4e61c3624eaa0941cd0613ed8565b901c90505b6010821615612875576080612870826fffcb9843d60f6159c9db58835c926644613ed8565b901c90505b602082161561289f57608061289a826fff973b41fa98c081472e6896dfb254c0613ed8565b901c90505b60408216156128c95760806128c4826fff2ea16466c96a3843ec78b326b52861613ed8565b901c90505b60808216156128f35760806128ee826ffe5dee046a99a2a811c461f1969c3053613ed8565b901c90505b61010082161561291e576080612919826ffcbe86c7900a88aedcffc83b479aa3a4613ed8565b901c90505b610200821615612949576080612944826ff987a7253ac413176f2b074cf7815e54613ed8565b901c90505b61040082161561297457608061296f826ff3392b0822b70005940c7a398e4b70f3613ed8565b901c90505b61080082161561299f57608061299a826fe7159475a2c29b7443b29c7fa6e889d9613ed8565b901c90505b6110008216156129ca5760806129c5826fd097f3bdfd2022b8845ad8f792aa5825613ed8565b901c90505b6120008216156129f55760806129f0826fa9f746462d870fdf8a65dc1f90e061e5613ed8565b901c90505b614000821615612a20576080612a1b826f70d869a156d2a1b890bb3df62baf32f7613ed8565b901c90505b618000821615612a4b576080612a46826f31be135f97d08fd981231505542fcfa6613ed8565b901c90505b62010000821615612a77576080612a72826f09aa508b5b7a84e1c677de54f3e99bc9613ed8565b901c90505b62020000821615612aa2576080612a9d826e5d6af8dedb81196699c329225ee604613ed8565b901c90505b62040000821615612acc576080612ac7826d2216e584f5fa1ea926041bedfe98613ed8565b901c90505b62080000821615612af4576080612aef826b048a170391f7dc42444e8fa2613ed8565b901c90505b60008460020b1315612b0f57612b0c81600019613ec4565b90505b612b1e64010000000082613fbf565b15612b2a576001612b2d565b60005b612b3e9060ff16602083901c613eac565b949350505050565b6000836001600160a01b0316856001600160a01b03161115612b66579293925b846001600160a01b0316866001600160a01b031611612b9157612b8a858585612ce0565b9050612c01565b836001600160a01b0316866001600160a01b03161015612bf3576000612bb8878686612ce0565b90506000612bc7878986612d4a565b9050806001600160801b0316826001600160801b031610612be85780612bea565b815b92505050612c01565b612bfe858584612d4a565b90505b95945050505050565b600080836001600160a01b0316856001600160a01b03161115612c2b579293925b846001600160a01b0316866001600160a01b031611612c5657612c4f858585612d80565b9150612c9d565b836001600160a01b0316866001600160a01b03161015612c8f57612c7b868585612d80565b9150612c88858785612df3565b9050612c9d565b612c9a858585612df3565b90505b94509492505050565b60006001600160801b03821115612ccd57634e487b7160e01b600052600160045260246000fd5b5090565b6060612b3e8484600085612e3d565b6000826001600160a01b0316846001600160a01b03161115612d00579192915b6000612d23856001600160a01b0316856001600160a01b0316600160601b612efd565b9050612c01612d458483612d378989613ef7565b6001600160a01b0316612efd565b613073565b6000826001600160a01b0316846001600160a01b03161115612d6a579192915b612b3e612d4583600160601b612d378888613ef7565b6000826001600160a01b0316846001600160a01b03161115612da0579192915b6001600160a01b038416612de96fffffffffffffffffffffffffffffffff60601b606085901b16612dd18787613ef7565b6001600160a01b0316866001600160a01b0316612efd565b612b3e9190613ec4565b6000826001600160a01b0316846001600160a01b03161115612e13579192915b612b3e6001600160801b038316612e2a8686613ef7565b6001600160a01b0316600160601b612efd565b606082471015612e5f5760405162461bcd60e51b815260040161054290613a29565b612e6885613089565b612e845760405162461bcd60e51b815260040161054290613d03565b600080866001600160a01b03168587604051612ea09190613625565b60006040518083038185875af1925050503d8060008114612edd576040519150601f19603f3d011682016040523d82523d6000602084013e612ee2565b606091505b5091509150612ef28282866130ba565b979650505050505050565b6000808060001985870986860292508281109083900303905080612f335760008411612f2857600080fd5b50829004905061076c565b808411612f3f57600080fd5b6000848688098084039381119092039190506000612f5f86196001613eac565b8616958690049593849004936000819003046001019050612f808184613ed8565b909317926000612f91876003613ed8565b6002189050612fa08188613ed8565b612fab906002613f1f565b612fb59082613ed8565b9050612fc18188613ed8565b612fcc906002613f1f565b612fd69082613ed8565b9050612fe28188613ed8565b612fed906002613f1f565b612ff79082613ed8565b90506130038188613ed8565b61300e906002613f1f565b6130189082613ed8565b90506130248188613ed8565b61302f906002613f1f565b6130399082613ed8565b90506130458188613ed8565b613050906002613f1f565b61305a9082613ed8565b90506130668186613ed8565b9998505050505050505050565b806001600160801b0381168114610b8657600080fd5b600080826001600160a01b0316803b806020016040519081016040528181526000908060200190933c511192915050565b606083156130c957508161076c565b8251156130d95782518084602001fd5b8160405162461bcd60e51b815260040161054291906137b3565b80518015158114610b8657600080fd5b60008083601f840112613114578182fd5b50813567ffffffffffffffff81111561312b578182fd5b60208301915083602082850101111561314357600080fd5b9250929050565b805161ffff81168114610b8657600080fd5b60006020828403121561316d578081fd5b813561076c8161403a565b6000806040838503121561318a578081fd5b82356131958161403a565b915060208301356131a58161403a565b809150509250929050565b6000806000606084860312156131c4578081fd5b83356131cf8161403a565b925060208401356131df8161403a565b929592945050506040919091013590565b60008060408385031215613202578182fd5b823561320d8161403a565b946020939093013593505050565b60006020828403121561322c578081fd5b61076c826130f3565b600080600060608486031215613249578283fd5b83356132548161403a565b925060208401359150604084013561326b8161403a565b809150509250925092565b60008060408385031215613288578182fd5b823561329381614052565b915060208301356131a581614052565b6000806000606084860312156132b7578283fd5b83356132c281614052565b925060208401356132d281614052565b9150604084013561326b81614061565b600080604083850312156132f4578182fd5b505080516020909101519092909150565b6000806000806060858703121561331a578182fd5b8435935060208501359250604085013567ffffffffffffffff81111561333e578283fd5b61334a87828801613103565b95989497509550505050565b600080600080600080600080610100898b031215613372578586fd5b8835975060208901356133848161403a565b9650604089013561339481614052565b955060608901356133a481614052565b945060808901356133b481614052565b935060a08901356133c481614052565b925060c08901356133d481614052565b915060e08901356133e481614052565b809150509295985092959890939650565b60008060408385031215613407578182fd5b825161341281614061565b60208401519092506131a581614061565b600080600080600060a0868803121561343a578283fd5b855161344581614061565b809550506020860151935060408601519250606086015161346581614061565b608087015190925061347681614061565b809150509295509295909350565b600080600080600080600060e0888a03121561349e578081fd5b87516134a98161403a565b60208901519097506134ba81614052565b95506134c86040890161314a565b94506134d66060890161314a565b93506134e46080890161314a565b925060a088015160ff811681146134f9578182fd5b915061350760c089016130f3565b905092959891949750929550565b600060208284031215613526578081fd5b5035919050565b60006020828403121561353e578081fd5b5051919050565b600080600060608486031215613559578081fd5b8335925060208401359150604084013561326b8161403a565b60008060008060808587031215613587578182fd5b84359350602085013592506040850135915060608501356135a78161403a565b939692955090935050565b600080600080600060a086880312156135c9578283fd5b8535945060208601359350604086013592506060860135915060808601356134768161403a565b60609390931b6bffffffffffffffffffffffff19168352600291820b60e890811b6014850152910b901b6017820152601a0190565b60008251613637818460208701613f36565b9190910192915050565b6001600160a01b0391909116815260200190565b6001600160a01b039384168152919092166020820152604081019190915260600190565b6001600160a01b03948516815292151560208401526040830191909152909116606082015260a06080820181905260009082015260c00190565b6001600160a01b03949094168452600292830b6020850152910b60408301526001600160801b0316606082015260a06080820181905260009082015260c00190565b6001600160a01b03959095168552600293840b60208601529190920b60408401526001600160801b03918216606084015216608082015260a00190565b6001600160a01b03929092168252602082015260400190565b901515815260200190565b90815260200190565b60029190910b815260200190565b600293840b81529190920b60208201526001600160801b03909116604082015260600190565b60029490940b845260208401929092526040830152606082015260800190565b60006020825282518060208401526137d2816040850160208701613f36565b601f01601f19169190910160400192915050565b60208082526023908201527f45524332303a207472616e7366657220746f20746865207a65726f206164647260408201526265737360e81b606082015260800190565b6020808252600a908201526930b6b7bab73a1826b4b760b11b604082015260600190565b60208082526022908201527f45524332303a206275726e20616d6f756e7420657863656564732062616c616e604082015261636560f01b606082015260800190565b602080825260029082015261746f60f01b604082015260600190565b6020808252601590820152743a34b1b5a637bbb2b9101e103a34b1b5aab83832b960591b604082015260600190565b60208082526022908201527f45524332303a20617070726f766520746f20746865207a65726f206164647265604082015261737360f01b606082015260800190565b60208082526017908201527f7469636b4c6f7765722025207469636b53706163696e67000000000000000000604082015260600190565b6020808252601d908201527f45524332303a20696e73756666696369656e7420616c6c6f77616e6365000000604082015260600190565b60208082526017908201527f7469636b55707065722025207469636b53706163696e67000000000000000000604082015260600190565b60208082526026908201527f45524332303a207472616e7366657220616d6f756e7420657863656564732062604082015265616c616e636560d01b606082015260800190565b6020808252600890820152673134b22ab83832b960c11b604082015260600190565b60208082526026908201527f416464726573733a20696e73756666696369656e742062616c616e636520666f6040820152651c8818d85b1b60d21b606082015260800190565b6020808252818101527f616d6f756e743044657369726564206f7220616d6f756e743144657369726564604082015260600190565b60208082526011908201527070656e64696e67476f7665726e616e636560781b604082015260600190565b6020808252600b908201526a70726f746f636f6c46656560a81b604082015260600190565b6020808252600590820152643a37b5b2b760d91b604082015260600190565b6020808252600c908201526b29b430b93832a5b2b2b832b960a11b604082015260600190565b6020808252600a9082015269676f7665726e616e636560b01b604082015260600190565b60208082526006908201526573686172657360d01b604082015260600190565b60208082526021908201527f45524332303a206275726e2066726f6d20746865207a65726f206164647265736040820152607360f81b606082015260800190565b60208082526005908201526463726f737360d81b604082015260600190565b60208082526025908201527f45524332303a207472616e736665722066726f6d20746865207a65726f206164604082015264647265737360d81b606082015260800190565b6020808252600a908201526930b6b7bab73a18a6b4b760b11b604082015260600190565b60208082526008908201526730b9b5a637bbb2b960c11b604082015260600190565b6020808252601190820152707469636b4c6f77657220746f6f206c6f7760781b604082015260600190565b60208082526024908201527f45524332303a20617070726f76652066726f6d20746865207a65726f206164646040820152637265737360e01b606082015260800190565b6020808252601290820152710e8d2c6d6aae0e0cae440e8dede40d0d2ced60731b604082015260600190565b6020808252601d908201527f416464726573733a2063616c6c20746f206e6f6e2d636f6e7472616374000000604082015260600190565b6020808252600e908201526d6d6178546f74616c537570706c7960901b604082015260600190565b6020808252602a908201527f5361666545524332303a204552433230206f7065726174696f6e20646964206e6040820152691bdd081cdd58d8d9595960b21b606082015260800190565b6020808252601f908201527f5265656e7472616e637947756172643a207265656e7472616e742063616c6c00604082015260600190565b60208082526025908201527f45524332303a2064656372656173656420616c6c6f77616e63652062656c6f77604082015264207a65726f60d81b606082015260800190565b6020808252601f908201527f45524332303a206d696e7420746f20746865207a65726f206164647265737300604082015260600190565b918252602082015260400190565b9283526020830191909152604082015260600190565b93845260208401929092526040830152606082015260800190565b60ff91909116815260200190565b60008219821115613ebf57613ebf61400e565b500190565b600082613ed357613ed3614024565b500490565b6000816000190483118215151615613ef257613ef261400e565b500290565b60006001600160a01b0383811690831681811015613f1757613f1761400e565b039392505050565b600082821015613f3157613f3161400e565b500390565b60005b83811015613f51578181015183820152602001613f39565b838111156117a85750506000910152565b600281046001821680613f7657607f821691505b60208210811415613f9757634e487b7160e01b600052602260045260246000fd5b50919050565b60008260020b80613fb057613fb0614024565b808360020b0791505092915050565b600082613fce57613fce614024565b500690565b60008160020b627fffff19811415613fed57613fed61400e565b9003919050565b6000600160ff1b82141561400a5761400a61400e565b0390565b634e487b7160e01b600052601160045260246000fd5b634e487b7160e01b600052601260045260246000fd5b6001600160a01b038116811461404f57600080fd5b50565b8060020b811461404f57600080fd5b6001600160801b038116811461404f57600080fdfea2646970667358221220b6c0a93d24cb21be5566f8bef62bec6da63d110e5b85ad6c0e14459d6a78436664736f6c63430008000033",
    "bytecodeSha1": "74b0765a568d4a81eaab315cc6305502e3cb3ea0",
    "compiler": {
        "evm_version": "istanbul",
        "optimizer": {
            "enabled": true,
            "runs": 200
        },
        "version": "0.8.0+commit.c7dfd78e"
    },
    "contractName": "SharpeAI",
    "language": "Solidity",
    "natspec": {
        "kind": "dev",
        "methods": {
            "acceptGovernance()": {
                "notice": "`setGovernance()` should be called by the existing governance address prior to calling this function."
            },
            "allowance(address,address)": {
                "details": "See {IERC20-allowance}."
            },
            "approve(address,uint256)": {
                "details": "See {IERC20-approve}. NOTE: If `amount` is the maximum `uint256`, the allowance is not updated on `transferFrom`. This is semantically equivalent to an infinite approval. Requirements: - `spender` cannot be the zero address."
            },
            "balanceOf(address)": {
                "details": "See {IERC20-balanceOf}."
            },
            "collectProtocol(uint256,uint256,address)": {
                "notice": "Used to collect accumulated protocol fees."
            },
            "constructor": {
                "notice": "dev After deploying, strategy needs to be set by offchain devs param _pool Underlying Uniswap V3 pool param _protocolFee Protocol fee expressed as multiple of 1e-6 param _maxTotalSupply Cap on total supply"
            },
            "decimals()": {
                "details": "Returns the number of decimals used to get its user representation. For example, if `decimals` equals `2`, a balance of `505` tokens should be displayed to a user as `5.05` (`505 / 10 ** 2`). Tokens usually opt for a value of 18, imitating the relationship between Ether and Wei. This is the value {ERC20} uses, unless this function is overridden; NOTE: This information is only used for _display_ purposes: it in no way affects any of the arithmetic of the contract, including {IERC20-balanceOf} and {IERC20-transfer}."
            },
            "decreaseAllowance(address,uint256)": {
                "details": "Atomically decreases the allowance granted to `spender` by the caller. This is an alternative to {approve} that can be used as a mitigation for problems described in {IERC20-approve}. Emits an {Approval} event indicating the updated allowance. Requirements: - `spender` cannot be the zero address. - `spender` must have allowance for the caller of at least `subtractedValue`."
            },
            "deposit(uint256,uint256,uint256,uint256,address)": {
                "details": "These tokens sit in the vault and are not used for liquidity on Uniswap until the next rebalance. Also note it's not necessary to check if user manipulated price to deposit cheaper, as the value of range orders can only by manipulated higher.",
                "notice": "Deposits tokens in proportion to the vault's current holdings.",
                "params": {
                    "amount0Desired": "Max amount of token0 to deposit",
                    "amount0Min": "Revert if resulting `amount0` is less than this",
                    "amount1Desired": "Max amount of token1 to deposit",
                    "amount1Min": "Revert if resulting `amount1` is less than this",
                    "to": "Recipient of shares"
                },
                "returns": {
                    "amount0": "Amount of token0 deposited",
                    "amount1": "Amount of token1 deposited",
                    "shares": "Number of shares minted"
                }
            },
            "emergencyBurn(int24,int24,uint128)": {
                "notice": "Removes liquidity in case of emergency."
            },
            "getBalance0()": {
                "notice": "Balance of token0 in vault not used in any position."
            },
            "getBalance1()": {
                "notice": "Balance of token1 in vault not used in any position."
            },
            "getPositionAmounts(int24,int24)": {
                "notice": "Amounts of token0 and token1 held in vault's position. Includes owed fees but excludes the proportion of fees that will be paid to the protocol. Doesn't include fees accrued since last poke."
            },
            "getTotalAmounts()": {
                "notice": "Calculates the vault's total holdings of token0 and token1 - in other words, how much of each token the vault would hold if it withdrew all its liquidity from Uniswap."
            },
            "increaseAllowance(address,uint256)": {
                "details": "Atomically increases the allowance granted to `spender` by the caller. This is an alternative to {approve} that can be used as a mitigation for problems described in {IERC20-approve}. Emits an {Approval} event indicating the updated allowance. Requirements: - `spender` cannot be the zero address."
            },
            "name()": {
                "details": "Returns the name of the token."
            },
            "rebalance(int256,uint160,int24,int24,int24,int24,int24,int24)": {
                "details": "Two orders are placed - a base order and a limit order. The base order is placed first with as much liquidity as possible. This order should use up all of one token, leaving only the other one. This excess amount is then placed as a single-sided bid or ask order.",
                "notice": "Updates vault's positions. Can only be called by the strategy."
            },
            "setGovernance(address)": {
                "notice": "Governance address is not updated until the new governance address has called `acceptGovernance()` to accept this responsibility."
            },
            "setMaxTotalSupply(uint256)": {
                "notice": "Used to change deposit cap for a guarded launch or to ensure vault doesn't grow too large relative to the pool. Cap is on total supply rather than amounts of token0 and token1 as those amounts fluctuate naturally over time."
            },
            "setProtocolFee(uint256)": {
                "notice": "Used to change the protocol fee charged on pool fees earned from Uniswap, expressed as multiple of 1e-6."
            },
            "setSharpeKeeper(address)": {
                "notice": "Used to set the keeper contract that determines the position ranges and calls rebalance(). Must be called after this vault is deployed."
            },
            "sweep(address,uint256,address)": {
                "notice": "Removes tokens accidentally sent to this vault."
            },
            "symbol()": {
                "details": "Returns the symbol of the token, usually a shorter version of the name."
            },
            "totalSupply()": {
                "details": "See {IERC20-totalSupply}."
            },
            "transfer(address,uint256)": {
                "details": "See {IERC20-transfer}. Requirements: - `to` cannot be the zero address. - the caller must have a balance of at least `amount`."
            },
            "transferFrom(address,address,uint256)": {
                "details": "See {IERC20-transferFrom}. Emits an {Approval} event indicating the updated allowance. This is not required by the EIP. See the note at the beginning of {ERC20}. NOTE: Does not update the allowance if the current allowance is the maximum `uint256`. Requirements: - `from` and `to` cannot be the zero address. - `from` must have a balance of at least `amount`. - the caller must have allowance for ``from``'s tokens of at least `amount`."
            },
            "uniswapV3MintCallback(uint256,uint256,bytes)": {
                "details": "Callback for Uniswap V3 pool."
            },
            "uniswapV3SwapCallback(int256,int256,bytes)": {
                "details": "Callback for Uniswap V3 pool."
            },
            "withdraw(uint256,uint256,uint256,address)": {
                "notice": "Withdraws tokens in proportion to the vault's holdings.",
                "params": {
                    "amount0Min": "Revert if resulting `amount0` is smaller than this",
                    "amount1Min": "Revert if resulting `amount1` is smaller than this",
                    "shares": "Shares burned by sender",
                    "to": "Recipient of tokens"
                },
                "returns": {
                    "amount0": "Amount of token0 sent to recipient",
                    "amount1": "Amount of token1 sent to recipient"
                }
            }
        },
        "version": 1
    },
    "opcodes": "PUSH1 0x80 PUSH1 0x40 MSTORE CALLVALUE DUP1 ISZERO PUSH2 0x10 JUMPI PUSH1 0x0 DUP1 REVERT JUMPDEST POP PUSH1 0x4 CALLDATASIZE LT PUSH2 0x269 JUMPI PUSH1 0x0 CALLDATALOAD PUSH1 0xE0 SHR DUP1 PUSH4 0x87E5E083 GT PUSH2 0x151 JUMPI DUP1 PUSH4 0xC4A7761E GT PUSH2 0xC3 JUMPI DUP1 PUSH4 0xDC2C256F GT PUSH2 0x87 JUMPI DUP1 PUSH4 0xDC2C256F EQ PUSH2 0x4C7 JUMPI DUP1 PUSH4 0xDD62ED3E EQ PUSH2 0x4DA JUMPI DUP1 PUSH4 0xEAE989A2 EQ PUSH2 0x4ED JUMPI DUP1 PUSH4 0xF39C38A0 EQ PUSH2 0x4F5 JUMPI DUP1 PUSH4 0xFA082743 EQ PUSH2 0x4FD JUMPI DUP1 PUSH4 0xFA461E33 EQ PUSH2 0x505 JUMPI PUSH2 0x269 JUMP JUMPDEST DUP1 PUSH4 0xC4A7761E EQ PUSH2 0x489 JUMPI DUP1 PUSH4 0xD0C93A7C EQ PUSH2 0x491 JUMPI DUP1 PUSH4 0xD21220A7 EQ PUSH2 0x499 JUMPI DUP1 PUSH4 0xD331BEF7 EQ PUSH2 0x4A1 JUMPI DUP1 PUSH4 0xD3487997 EQ PUSH2 0x4B4 JUMPI PUSH2 0x269 JUMP JUMPDEST DUP1 PUSH4 0xA9059CBB GT PUSH2 0x115 JUMPI DUP1 PUSH4 0xA9059CBB EQ PUSH2 0x414 JUMPI DUP1 PUSH4 0xA91EF6EB EQ PUSH2 0x427 JUMPI DUP1 PUSH4 0xAB033EA9 EQ PUSH2 0x448 JUMPI DUP1 PUSH4 0xABBFFCB9 EQ PUSH2 0x45B JUMPI DUP1 PUSH4 0xB0E21E8A EQ PUSH2 0x46E JUMPI DUP1 PUSH4 0xB3A3D00C EQ PUSH2 0x476 JUMPI PUSH2 0x269 JUMP JUMPDEST DUP1 PUSH4 0x87E5E083 EQ PUSH2 0x3D6 JUMPI DUP1 PUSH4 0x888A9134 EQ PUSH2 0x3E9 JUMPI DUP1 PUSH4 0x95D89B41 EQ PUSH2 0x3F1 JUMPI DUP1 PUSH4 0xA00FA77F EQ PUSH2 0x3F9 JUMPI DUP1 PUSH4 0xA457C2D7 EQ PUSH2 0x401 JUMPI PUSH2 0x269 JUMP JUMPDEST DUP1 PUSH4 0x2AB4D052 GT PUSH2 0x1EA JUMPI DUP1 PUSH4 0x41AEC538 GT PUSH2 0x1AE JUMPI DUP1 PUSH4 0x41AEC538 EQ PUSH2 0x390 JUMPI DUP1 PUSH4 0x51E87AF7 EQ PUSH2 0x398 JUMPI DUP1 PUSH4 0x5AA6E675 EQ PUSH2 0x3A0 JUMPI DUP1 PUSH4 0x629D9405 EQ PUSH2 0x3A8 JUMPI DUP1 PUSH4 0x70A08231 EQ PUSH2 0x3B0 JUMPI DUP1 PUSH4 0x787DCE3D EQ PUSH2 0x3C3 JUMPI PUSH2 0x269 JUMP JUMPDEST DUP1 PUSH4 0x2AB4D052 EQ PUSH2 0x32B JUMPI DUP1 PUSH4 0x313CE567 EQ PUSH2 0x333 JUMPI DUP1 PUSH4 0x365D0ED7 EQ PUSH2 0x348 JUMPI DUP1 PUSH4 0x39509351 EQ PUSH2 0x36A JUMPI DUP1 PUSH4 0x3F3E4C11 EQ PUSH2 0x37D JUMPI PUSH2 0x269 JUMP JUMPDEST DUP1 PUSH4 0xF35BCAC GT PUSH2 0x231 JUMPI DUP1 PUSH4 0xF35BCAC EQ PUSH2 0x2DE JUMPI DUP1 PUSH4 0x16F0115B EQ PUSH2 0x2F3 JUMPI DUP1 PUSH4 0x18160DDD EQ PUSH2 0x2FB JUMPI DUP1 PUSH4 0x238EFCBC EQ PUSH2 0x310 JUMPI DUP1 PUSH4 0x23B872DD EQ PUSH2 0x318 JUMPI PUSH2 0x269 JUMP JUMPDEST DUP1 PUSH4 0x430C130 EQ PUSH2 0x26E JUMPI DUP1 PUSH4 0x6FDDE03 EQ PUSH2 0x283 JUMPI DUP1 PUSH4 0x95EA7B3 EQ PUSH2 0x2A1 JUMPI DUP1 PUSH4 0xC42383A EQ PUSH2 0x2C1 JUMPI DUP1 PUSH4 0xDFE1681 EQ PUSH2 0x2D6 JUMPI JUMPDEST PUSH1 0x0 DUP1 REVERT JUMPDEST PUSH2 0x281 PUSH2 0x27C CALLDATASIZE PUSH1 0x4 PUSH2 0x3545 JUMP JUMPDEST PUSH2 0x518 JUMP JUMPDEST STOP JUMPDEST PUSH2 0x28B PUSH2 0x5E4 JUMP JUMPDEST PUSH1 0x40 MLOAD PUSH2 0x298 SWAP2 SWAP1 PUSH2 0x37B3 JUMP JUMPDEST PUSH1 0x40 MLOAD DUP1 SWAP2 SUB SWAP1 RETURN JUMPDEST PUSH2 0x2B4 PUSH2 0x2AF CALLDATASIZE PUSH1 0x4 PUSH2 0x31F0 JUMP JUMPDEST PUSH2 0x676 JUMP JUMPDEST PUSH1 0x40 MLOAD PUSH2 0x298 SWAP2 SWAP1 PUSH2 0x374B JUMP JUMPDEST PUSH2 0x2C9 PUSH2 0x698 JUMP JUMPDEST PUSH1 0x40 MLOAD PUSH2 0x298 SWAP2 SWAP1 PUSH2 0x3641 JUMP JUMPDEST PUSH2 0x2C9 PUSH2 0x6A7 JUMP JUMPDEST PUSH2 0x2E6 PUSH2 0x6CB JUMP JUMPDEST PUSH1 0x40 MLOAD PUSH2 0x298 SWAP2 SWAP1 PUSH2 0x375F JUMP JUMPDEST PUSH2 0x2C9 PUSH2 0x6DB JUMP JUMPDEST PUSH2 0x303 PUSH2 0x6FF JUMP JUMPDEST PUSH1 0x40 MLOAD PUSH2 0x298 SWAP2 SWAP1 PUSH2 0x3756 JUMP JUMPDEST PUSH2 0x281 PUSH2 0x705 JUMP JUMPDEST PUSH2 0x2B4 PUSH2 0x326 CALLDATASIZE PUSH1 0x4 PUSH2 0x31B0 JUMP JUMPDEST PUSH2 0x743 JUMP JUMPDEST PUSH2 0x303 PUSH2 0x773 JUMP JUMPDEST PUSH2 0x33B PUSH2 0x779 JUMP JUMPDEST PUSH1 0x40 MLOAD PUSH2 0x298 SWAP2 SWAP1 PUSH2 0x3E9E JUMP JUMPDEST PUSH2 0x35B PUSH2 0x356 CALLDATASIZE PUSH1 0x4 PUSH2 0x35B2 JUMP JUMPDEST PUSH2 0x77E JUMP JUMPDEST PUSH1 0x40 MLOAD PUSH2 0x298 SWAP4 SWAP3 SWAP2 SWAP1 PUSH2 0x3E6D JUMP JUMPDEST PUSH2 0x2B4 PUSH2 0x378 CALLDATASIZE PUSH1 0x4 PUSH2 0x31F0 JUMP JUMPDEST PUSH2 0x9CF JUMP JUMPDEST PUSH2 0x281 PUSH2 0x38B CALLDATASIZE PUSH1 0x4 PUSH2 0x3515 JUMP JUMPDEST PUSH2 0xA1B JUMP JUMPDEST PUSH2 0x303 PUSH2 0xA4A JUMP JUMPDEST PUSH2 0x2E6 PUSH2 0xAF9 JUMP JUMPDEST PUSH2 0x2C9 PUSH2 0xB09 JUMP JUMPDEST PUSH2 0x303 PUSH2 0xB18 JUMP JUMPDEST PUSH2 0x303 PUSH2 0x3BE CALLDATASIZE PUSH1 0x4 PUSH2 0x315C JUMP JUMPDEST PUSH2 0xB6C JUMP JUMPDEST PUSH2 0x281 PUSH2 0x3D1 CALLDATASIZE PUSH1 0x4 PUSH2 0x3515 JUMP JUMPDEST PUSH2 0xB8B JUMP JUMPDEST PUSH2 0x281 PUSH2 0x3E4 CALLDATASIZE PUSH1 0x4 PUSH2 0x3356 JUMP JUMPDEST PUSH2 0xBDC JUMP JUMPDEST PUSH2 0x2E6 PUSH2 0x1065 JUMP JUMPDEST PUSH2 0x28B PUSH2 0x1075 JUMP JUMPDEST PUSH2 0x303 PUSH2 0x1084 JUMP JUMPDEST PUSH2 0x2B4 PUSH2 0x40F CALLDATASIZE PUSH1 0x4 PUSH2 0x31F0 JUMP JUMPDEST PUSH2 0x108A JUMP JUMPDEST PUSH2 0x2B4 PUSH2 0x422 CALLDATASIZE PUSH1 0x4 PUSH2 0x31F0 JUMP JUMPDEST PUSH2 0x10F6 JUMP JUMPDEST PUSH2 0x43A PUSH2 0x435 CALLDATASIZE PUSH1 0x4 PUSH2 0x3276 JUMP JUMPDEST PUSH2 0x110E JUMP JUMPDEST PUSH1 0x40 MLOAD PUSH2 0x298 SWAP3 SWAP2 SWAP1 PUSH2 0x3E5F JUMP JUMPDEST PUSH2 0x281 PUSH2 0x456 CALLDATASIZE PUSH1 0x4 PUSH2 0x315C JUMP JUMPDEST PUSH2 0x11AB JUMP JUMPDEST PUSH2 0x281 PUSH2 0x469 CALLDATASIZE PUSH1 0x4 PUSH2 0x32A3 JUMP JUMPDEST PUSH2 0x11F7 JUMP JUMPDEST PUSH2 0x303 PUSH2 0x1377 JUMP JUMPDEST PUSH2 0x281 PUSH2 0x484 CALLDATASIZE PUSH1 0x4 PUSH2 0x315C JUMP JUMPDEST PUSH2 0x137D JUMP JUMPDEST PUSH2 0x43A PUSH2 0x13C9 JUMP JUMPDEST PUSH2 0x2E6 PUSH2 0x1456 JUMP JUMPDEST PUSH2 0x2C9 PUSH2 0x147A JUMP JUMPDEST PUSH2 0x43A PUSH2 0x4AF CALLDATASIZE PUSH1 0x4 PUSH2 0x3572 JUMP JUMPDEST PUSH2 0x149E JUMP JUMPDEST PUSH2 0x281 PUSH2 0x4C2 CALLDATASIZE PUSH1 0x4 PUSH2 0x3305 JUMP JUMPDEST PUSH2 0x16FF JUMP JUMPDEST PUSH2 0x281 PUSH2 0x4D5 CALLDATASIZE PUSH1 0x4 PUSH2 0x3235 JUMP JUMPDEST PUSH2 0x17AE JUMP JUMPDEST PUSH2 0x303 PUSH2 0x4E8 CALLDATASIZE PUSH1 0x4 PUSH2 0x3178 JUMP JUMPDEST PUSH2 0x187C JUMP JUMPDEST PUSH2 0x303 PUSH2 0x18A7 JUMP JUMPDEST PUSH2 0x2C9 PUSH2 0x18AD JUMP JUMPDEST PUSH2 0x2E6 PUSH2 0x18BC JUMP JUMPDEST PUSH2 0x281 PUSH2 0x513 CALLDATASIZE PUSH1 0x4 PUSH2 0x3305 JUMP JUMPDEST PUSH2 0x18CC JUMP JUMPDEST PUSH1 0x9 SLOAD PUSH1 0x1 PUSH1 0x1 PUSH1 0xA0 SHL SUB AND CALLER EQ PUSH2 0x54B JUMPI PUSH1 0x40 MLOAD PUSH3 0x461BCD PUSH1 0xE5 SHL DUP2 MSTORE PUSH1 0x4 ADD PUSH2 0x542 SWAP1 PUSH2 0x3B39 JUMP JUMPDEST PUSH1 0x40 MLOAD DUP1 SWAP2 SUB SWAP1 REVERT JUMPDEST PUSH1 0xB SLOAD PUSH2 0x558 SWAP1 DUP5 PUSH2 0x197B JUMP JUMPDEST PUSH1 0xB SSTORE PUSH1 0xC SLOAD PUSH2 0x568 SWAP1 DUP4 PUSH2 0x197B JUMP JUMPDEST PUSH1 0xC SSTORE DUP3 ISZERO PUSH2 0x5A5 JUMPI PUSH2 0x5A5 PUSH1 0x1 PUSH1 0x1 PUSH1 0xA0 SHL SUB PUSH32 0x0 AND DUP3 DUP6 PUSH2 0x1987 JUMP JUMPDEST DUP2 ISZERO PUSH2 0x5DF JUMPI PUSH2 0x5DF PUSH1 0x1 PUSH1 0x1 PUSH1 0xA0 SHL SUB PUSH32 0x0 AND DUP3 DUP5 PUSH2 0x1987 JUMP JUMPDEST POP POP POP JUMP JUMPDEST PUSH1 0x60 PUSH1 0x3 DUP1 SLOAD PUSH2 0x5F3 SWAP1 PUSH2 0x3F62 JUMP JUMPDEST DUP1 PUSH1 0x1F ADD PUSH1 0x20 DUP1 SWAP2 DIV MUL PUSH1 0x20 ADD PUSH1 0x40 MLOAD SWAP1 DUP2 ADD PUSH1 0x40 MSTORE DUP1 SWAP3 SWAP2 SWAP1 DUP2 DUP2 MSTORE PUSH1 0x20 ADD DUP3 DUP1 SLOAD PUSH2 0x61F SWAP1 PUSH2 0x3F62 JUMP JUMPDEST DUP1 ISZERO PUSH2 0x66C JUMPI DUP1 PUSH1 0x1F LT PUSH2 0x641 JUMPI PUSH2 0x100 DUP1 DUP4 SLOAD DIV MUL DUP4 MSTORE SWAP2 PUSH1 0x20 ADD SWAP2 PUSH2 0x66C JUMP JUMPDEST DUP3 ADD SWAP2 SWAP1 PUSH1 0x0 MSTORE PUSH1 0x20 PUSH1 0x0 KECCAK256 SWAP1 JUMPDEST DUP2 SLOAD DUP2 MSTORE SWAP1 PUSH1 0x1 ADD SWAP1 PUSH1 0x20 ADD DUP1 DUP4 GT PUSH2 0x64F JUMPI DUP3 SWAP1 SUB PUSH1 0x1F AND DUP3 ADD SWAP2 JUMPDEST POP POP POP POP POP SWAP1 POP SWAP1 JUMP JUMPDEST PUSH1 0x0 DUP1 PUSH2 0x681 PUSH2 0x19DD JUMP JUMPDEST SWAP1 POP PUSH2 0x68E DUP2 DUP6 DUP6 PUSH2 0x19E1 JUMP JUMPDEST POP PUSH1 0x1 SWAP4 SWAP3 POP POP POP JUMP JUMPDEST PUSH1 0x8 SLOAD PUSH1 0x1 PUSH1 0x1 PUSH1 0xA0 SHL SUB AND DUP2 JUMP JUMPDEST PUSH32 0x0 DUP2 JUMP JUMPDEST PUSH1 0xA SLOAD PUSH1 0x1 PUSH1 0xE8 SHL SWAP1 DIV PUSH1 0x2 SIGNEXTEND DUP2 JUMP JUMPDEST PUSH32 0x0 DUP2 JUMP JUMPDEST PUSH1 0x2 SLOAD SWAP1 JUMP JUMPDEST PUSH1 0xA SLOAD PUSH1 0x1 PUSH1 0x1 PUSH1 0xA0 SHL SUB AND CALLER EQ PUSH2 0x72F JUMPI PUSH1 0x40 MLOAD PUSH3 0x461BCD PUSH1 0xE5 SHL DUP2 MSTORE PUSH1 0x4 ADD PUSH2 0x542 SWAP1 PUSH2 0x3AA4 JUMP JUMPDEST PUSH1 0x9 DUP1 SLOAD PUSH1 0x1 PUSH1 0x1 PUSH1 0xA0 SHL SUB NOT AND CALLER OR SWAP1 SSTORE JUMP JUMPDEST PUSH1 0x0 DUP1 PUSH2 0x74E PUSH2 0x19DD JUMP JUMPDEST SWAP1 POP PUSH2 0x75B DUP6 DUP3 DUP6 PUSH2 0x1A95 JUMP JUMPDEST PUSH2 0x766 DUP6 DUP6 DUP6 PUSH2 0x1AD9 JUMP JUMPDEST PUSH1 0x1 SWAP2 POP POP JUMPDEST SWAP4 SWAP3 POP POP POP JUMP JUMPDEST PUSH1 0x7 SLOAD DUP2 JUMP JUMPDEST PUSH1 0x12 SWAP1 JUMP JUMPDEST PUSH1 0x0 DUP1 PUSH1 0x0 PUSH1 0x2 PUSH1 0x5 SLOAD EQ ISZERO PUSH2 0x7A6 JUMPI PUSH1 0x40 MLOAD PUSH3 0x461BCD PUSH1 0xE5 SHL DUP2 MSTORE PUSH1 0x4 ADD PUSH2 0x542 SWAP1 PUSH2 0x3DAC JUMP JUMPDEST PUSH1 0x2 PUSH1 0x5 SSTORE DUP8 ISZERO ISZERO DUP1 PUSH2 0x7B9 JUMPI POP PUSH1 0x0 DUP8 GT JUMPDEST PUSH2 0x7D5 JUMPI PUSH1 0x40 MLOAD PUSH3 0x461BCD PUSH1 0xE5 SHL DUP2 MSTORE PUSH1 0x4 ADD PUSH2 0x542 SWAP1 PUSH2 0x3A6F JUMP JUMPDEST PUSH1 0x1 PUSH1 0x1 PUSH1 0xA0 SHL SUB DUP5 AND ISZERO DUP1 ISZERO SWAP1 PUSH2 0x7F6 JUMPI POP PUSH1 0x1 PUSH1 0x1 PUSH1 0xA0 SHL SUB DUP5 AND ADDRESS EQ ISZERO JUMPDEST PUSH2 0x812 JUMPI PUSH1 0x40 MLOAD PUSH3 0x461BCD PUSH1 0xE5 SHL DUP2 MSTORE PUSH1 0x4 ADD PUSH2 0x542 SWAP1 PUSH2 0x388F JUMP JUMPDEST PUSH1 0xA SLOAD PUSH2 0x834 SWAP1 PUSH1 0x1 PUSH1 0xA0 SHL DUP2 DIV PUSH1 0x2 SWAP1 DUP2 SIGNEXTEND SWAP2 PUSH1 0x1 PUSH1 0xB8 SHL SWAP1 DIV SWAP1 SIGNEXTEND PUSH2 0x1BFD JUMP JUMPDEST PUSH1 0xA SLOAD PUSH2 0x856 SWAP1 PUSH1 0x1 PUSH1 0xD0 SHL DUP2 DIV PUSH1 0x2 SWAP1 DUP2 SIGNEXTEND SWAP2 PUSH1 0x1 PUSH1 0xE8 SHL SWAP1 DIV SWAP1 SIGNEXTEND PUSH2 0x1BFD JUMP JUMPDEST PUSH2 0x860 DUP9 DUP9 PUSH2 0x1CC3 JUMP JUMPDEST SWAP2 SWAP5 POP SWAP3 POP SWAP1 POP DUP3 PUSH2 0x884 JUMPI PUSH1 0x40 MLOAD PUSH3 0x461BCD PUSH1 0xE5 SHL DUP2 MSTORE PUSH1 0x4 ADD PUSH2 0x542 SWAP1 PUSH2 0x3B5D JUMP JUMPDEST DUP6 DUP3 LT ISZERO PUSH2 0x8A4 JUMPI PUSH1 0x40 MLOAD PUSH3 0x461BCD PUSH1 0xE5 SHL DUP2 MSTORE PUSH1 0x4 ADD PUSH2 0x542 SWAP1 PUSH2 0x3829 JUMP JUMPDEST DUP5 DUP2 LT ISZERO PUSH2 0x8C4 JUMPI PUSH1 0x40 MLOAD PUSH3 0x461BCD PUSH1 0xE5 SHL DUP2 MSTORE PUSH1 0x4 ADD PUSH2 0x542 SWAP1 PUSH2 0x3C22 JUMP JUMPDEST DUP2 ISZERO PUSH2 0x8FF JUMPI PUSH2 0x8FF PUSH1 0x1 PUSH1 0x1 PUSH1 0xA0 SHL SUB PUSH32 0x0 AND CALLER ADDRESS DUP6 PUSH2 0x1DE6 JUMP JUMPDEST DUP1 ISZERO PUSH2 0x93A JUMPI PUSH2 0x93A PUSH1 0x1 PUSH1 0x1 PUSH1 0xA0 SHL SUB PUSH32 0x0 AND CALLER ADDRESS DUP5 PUSH2 0x1DE6 JUMP JUMPDEST PUSH2 0x944 DUP5 DUP5 PUSH2 0x1E07 JUMP JUMPDEST DUP4 PUSH1 0x1 PUSH1 0x1 PUSH1 0xA0 SHL SUB AND CALLER PUSH1 0x1 PUSH1 0x1 PUSH1 0xA0 SHL SUB AND PUSH32 0x4E2CA0515ED1AEF1395F66B5303BB5D6F1BF9D61A353FA53F73F8AC9973FA9F6 DUP6 DUP6 DUP6 PUSH1 0x40 MLOAD PUSH2 0x98B SWAP4 SWAP3 SWAP2 SWAP1 PUSH2 0x3E6D JUMP JUMPDEST PUSH1 0x40 MLOAD DUP1 SWAP2 SUB SWAP1 LOG3 PUSH1 0x7 SLOAD PUSH2 0x99E PUSH2 0x6FF JUMP JUMPDEST GT ISZERO PUSH2 0x9BC JUMPI PUSH1 0x40 MLOAD PUSH3 0x461BCD PUSH1 0xE5 SHL DUP2 MSTORE PUSH1 0x4 ADD PUSH2 0x542 SWAP1 PUSH2 0x3D3A JUMP JUMPDEST PUSH1 0x1 PUSH1 0x5 DUP2 SWAP1 SSTORE POP SWAP6 POP SWAP6 POP SWAP6 SWAP3 POP POP POP JUMP JUMPDEST PUSH1 0x0 DUP1 PUSH2 0x9DA PUSH2 0x19DD JUMP JUMPDEST PUSH1 0x1 PUSH1 0x1 PUSH1 0xA0 SHL SUB DUP1 DUP3 AND PUSH1 0x0 SWAP1 DUP2 MSTORE PUSH1 0x1 PUSH1 0x20 SWAP1 DUP2 MSTORE PUSH1 0x40 DUP1 DUP4 KECCAK256 SWAP4 DUP10 AND DUP4 MSTORE SWAP3 SWAP1 MSTORE KECCAK256 SLOAD SWAP1 SWAP2 POP PUSH2 0x68E SWAP1 DUP3 SWAP1 DUP7 SWAP1 PUSH2 0xA16 SWAP1 DUP8 SWAP1 PUSH2 0x3EAC JUMP JUMPDEST PUSH2 0x19E1 JUMP JUMPDEST PUSH1 0x9 SLOAD PUSH1 0x1 PUSH1 0x1 PUSH1 0xA0 SHL SUB AND CALLER EQ PUSH2 0xA45 JUMPI PUSH1 0x40 MLOAD PUSH3 0x461BCD PUSH1 0xE5 SHL DUP2 MSTORE PUSH1 0x4 ADD PUSH2 0x542 SWAP1 PUSH2 0x3B39 JUMP JUMPDEST PUSH1 0x7 SSTORE JUMP JUMPDEST PUSH1 0x0 PUSH2 0xAF4 PUSH1 0xC SLOAD PUSH32 0x0 PUSH1 0x1 PUSH1 0x1 PUSH1 0xA0 SHL SUB AND PUSH4 0x70A08231 ADDRESS PUSH1 0x40 MLOAD DUP3 PUSH4 0xFFFFFFFF AND PUSH1 0xE0 SHL DUP2 MSTORE PUSH1 0x4 ADD PUSH2 0xA9E SWAP2 SWAP1 PUSH2 0x3641 JUMP JUMPDEST PUSH1 0x20 PUSH1 0x40 MLOAD DUP1 DUP4 SUB DUP2 DUP7 DUP1 EXTCODESIZE ISZERO DUP1 ISZERO PUSH2 0xAB6 JUMPI PUSH1 0x0 DUP1 REVERT JUMPDEST POP GAS STATICCALL ISZERO DUP1 ISZERO PUSH2 0xACA JUMPI RETURNDATASIZE PUSH1 0x0 DUP1 RETURNDATACOPY RETURNDATASIZE PUSH1 0x0 REVERT JUMPDEST POP POP POP POP PUSH1 0x40 MLOAD RETURNDATASIZE PUSH1 0x1F NOT PUSH1 0x1F DUP3 ADD AND DUP3 ADD DUP1 PUSH1 0x40 MSTORE POP DUP2 ADD SWAP1 PUSH2 0xAEE SWAP2 SWAP1 PUSH2 0x352D JUMP JUMPDEST SWAP1 PUSH2 0x197B JUMP JUMPDEST SWAP1 POP SWAP1 JUMP JUMPDEST PUSH1 0xA SLOAD PUSH1 0x1 PUSH1 0xD0 SHL SWAP1 DIV PUSH1 0x2 SIGNEXTEND DUP2 JUMP JUMPDEST PUSH1 0x9 SLOAD PUSH1 0x1 PUSH1 0x1 PUSH1 0xA0 SHL SUB AND DUP2 JUMP JUMPDEST PUSH1 0x0 PUSH2 0xAF4 PUSH1 0xB SLOAD PUSH32 0x0 PUSH1 0x1 PUSH1 0x1 PUSH1 0xA0 SHL SUB AND PUSH4 0x70A08231 ADDRESS PUSH1 0x40 MLOAD DUP3 PUSH4 0xFFFFFFFF AND PUSH1 0xE0 SHL DUP2 MSTORE PUSH1 0x4 ADD PUSH2 0xA9E SWAP2 SWAP1 PUSH2 0x3641 JUMP JUMPDEST PUSH1 0x1 PUSH1 0x1 PUSH1 0xA0 SHL SUB DUP2 AND PUSH1 0x0 SWAP1 DUP2 MSTORE PUSH1 0x20 DUP2 SWAP1 MSTORE PUSH1 0x40 SWAP1 KECCAK256 SLOAD JUMPDEST SWAP2 SWAP1 POP JUMP JUMPDEST PUSH1 0x9 SLOAD PUSH1 0x1 PUSH1 0x1 PUSH1 0xA0 SHL SUB AND CALLER EQ PUSH2 0xBB5 JUMPI PUSH1 0x40 MLOAD PUSH3 0x461BCD PUSH1 0xE5 SHL DUP2 MSTORE PUSH1 0x4 ADD PUSH2 0x542 SWAP1 PUSH2 0x3B39 JUMP JUMPDEST PUSH3 0xF4240 DUP2 LT PUSH2 0xBD7 JUMPI PUSH1 0x40 MLOAD PUSH3 0x461BCD PUSH1 0xE5 SHL DUP2 MSTORE PUSH1 0x4 ADD PUSH2 0x542 SWAP1 PUSH2 0x3ACF JUMP JUMPDEST PUSH1 0x6 SSTORE JUMP JUMPDEST PUSH1 0x2 PUSH1 0x5 SLOAD EQ ISZERO PUSH2 0xBFF JUMPI PUSH1 0x40 MLOAD PUSH3 0x461BCD PUSH1 0xE5 SHL DUP2 MSTORE PUSH1 0x4 ADD PUSH2 0x542 SWAP1 PUSH2 0x3DAC JUMP JUMPDEST PUSH1 0x2 PUSH1 0x5 SSTORE PUSH1 0x8 SLOAD PUSH1 0x1 PUSH1 0x1 PUSH1 0xA0 SHL SUB AND CALLER EQ PUSH2 0xC2E JUMPI PUSH1 0x40 MLOAD PUSH3 0x461BCD PUSH1 0xE5 SHL DUP2 MSTORE PUSH1 0x4 ADD PUSH2 0x542 SWAP1 PUSH2 0x3B13 JUMP JUMPDEST PUSH2 0xC38 DUP7 DUP7 PUSH2 0x1ED3 JUMP JUMPDEST PUSH2 0xC42 DUP5 DUP5 PUSH2 0x1ED3 JUMP JUMPDEST PUSH2 0xC4C DUP3 DUP3 PUSH2 0x1ED3 JUMP JUMPDEST PUSH1 0x0 PUSH32 0x0 PUSH1 0x1 PUSH1 0x1 PUSH1 0xA0 SHL SUB AND PUSH4 0x3850C7BD PUSH1 0x40 MLOAD DUP2 PUSH4 0xFFFFFFFF AND PUSH1 0xE0 SHL DUP2 MSTORE PUSH1 0x4 ADD PUSH1 0xE0 PUSH1 0x40 MLOAD DUP1 DUP4 SUB DUP2 DUP7 DUP1 EXTCODESIZE ISZERO DUP1 ISZERO PUSH2 0xCA7 JUMPI PUSH1 0x0 DUP1 REVERT JUMPDEST POP GAS STATICCALL ISZERO DUP1 ISZERO PUSH2 0xCBB JUMPI RETURNDATASIZE PUSH1 0x0 DUP1 RETURNDATACOPY RETURNDATASIZE PUSH1 0x0 REVERT JUMPDEST POP POP POP POP PUSH1 0x40 MLOAD RETURNDATASIZE PUSH1 0x1F NOT PUSH1 0x1F DUP3 ADD AND DUP3 ADD DUP1 PUSH1 0x40 MSTORE POP DUP2 ADD SWAP1 PUSH2 0xCDF SWAP2 SWAP1 PUSH2 0x3484 JUMP JUMPDEST POP POP POP POP POP SWAP2 POP POP DUP1 PUSH1 0x2 SIGNEXTEND DUP5 PUSH1 0x2 SIGNEXTEND SGT ISZERO PUSH2 0xD0D JUMPI PUSH1 0x40 MLOAD PUSH3 0x461BCD PUSH1 0xE5 SHL DUP2 MSTORE PUSH1 0x4 ADD PUSH2 0x542 SWAP1 PUSH2 0x3A07 JUMP JUMPDEST DUP1 PUSH1 0x2 SIGNEXTEND DUP4 PUSH1 0x2 SIGNEXTEND SGT PUSH2 0xD32 JUMPI PUSH1 0x40 MLOAD PUSH3 0x461BCD PUSH1 0xE5 SHL DUP2 MSTORE PUSH1 0x4 ADD PUSH2 0x542 SWAP1 PUSH2 0x3C46 JUMP JUMPDEST PUSH1 0xA SLOAD PUSH1 0x0 SWAP1 PUSH2 0xD57 SWAP1 PUSH1 0x1 PUSH1 0xA0 SHL DUP2 DIV PUSH1 0x2 SWAP1 DUP2 SIGNEXTEND SWAP2 PUSH1 0x1 PUSH1 0xB8 SHL SWAP1 DIV SWAP1 SIGNEXTEND PUSH2 0x1FC8 JUMP JUMPDEST POP POP PUSH1 0xA SLOAD SWAP3 SWAP4 POP PUSH1 0x0 SWAP3 PUSH2 0xD84 SWAP3 POP PUSH1 0x1 PUSH1 0xD0 SHL DUP2 DIV PUSH1 0x2 SWAP1 DUP2 SIGNEXTEND SWAP3 POP PUSH1 0x1 PUSH1 0xE8 SHL SWAP1 SWAP2 DIV SWAP1 SIGNEXTEND PUSH2 0x1FC8 JUMP JUMPDEST POP POP PUSH1 0xA SLOAD SWAP3 SWAP4 POP PUSH2 0xDB0 SWAP3 PUSH1 0x1 PUSH1 0xA0 SHL DUP2 DIV PUSH1 0x2 SWAP1 DUP2 SIGNEXTEND SWAP4 POP PUSH1 0x1 PUSH1 0xB8 SHL SWAP1 SWAP2 DIV SWAP1 SIGNEXTEND SWAP1 POP DUP5 PUSH2 0x208F JUMP JUMPDEST POP POP PUSH1 0xA SLOAD PUSH2 0xDD8 SWAP3 POP PUSH1 0x1 PUSH1 0xD0 SHL DUP2 DIV PUSH1 0x2 SWAP1 DUP2 SIGNEXTEND SWAP3 POP PUSH1 0x1 PUSH1 0xE8 SHL SWAP1 SWAP2 DIV SWAP1 SIGNEXTEND DUP4 PUSH2 0x208F JUMP JUMPDEST POP POP POP POP POP POP PUSH1 0x0 PUSH2 0xDE8 PUSH2 0xB18 JUMP JUMPDEST SWAP1 POP PUSH1 0x0 PUSH2 0xDF4 PUSH2 0xA4A JUMP JUMPDEST SWAP1 POP PUSH32 0x210F60ADF1DB7A02E9DB9A49EC7C2EB2060C516CBCFD01A0C05288144738EE5D DUP4 DUP4 DUP4 PUSH2 0xE22 PUSH2 0x6FF JUMP JUMPDEST PUSH1 0x40 MLOAD PUSH2 0xE32 SWAP5 SWAP4 SWAP3 SWAP2 SWAP1 PUSH2 0x3793 JUMP JUMPDEST PUSH1 0x40 MLOAD DUP1 SWAP2 SUB SWAP1 LOG1 DUP11 ISZERO PUSH2 0xF11 JUMPI PUSH1 0x1 PUSH1 0x1 PUSH1 0xA0 SHL SUB PUSH32 0x0 AND PUSH4 0x128ACB08 ADDRESS PUSH1 0x0 DUP15 SGT DUP1 PUSH2 0xE87 JUMPI PUSH2 0xE82 DUP16 PUSH2 0x3FF4 JUMP JUMPDEST PUSH2 0xE89 JUMP JUMPDEST DUP15 JUMPDEST DUP15 PUSH1 0x40 MLOAD DUP6 PUSH4 0xFFFFFFFF AND PUSH1 0xE0 SHL DUP2 MSTORE PUSH1 0x4 ADD PUSH2 0xEA9 SWAP5 SWAP4 SWAP3 SWAP2 SWAP1 PUSH2 0x3679 JUMP JUMPDEST PUSH1 0x40 DUP1 MLOAD DUP1 DUP4 SUB DUP2 PUSH1 0x0 DUP8 DUP1 EXTCODESIZE ISZERO DUP1 ISZERO PUSH2 0xEC2 JUMPI PUSH1 0x0 DUP1 REVERT JUMPDEST POP GAS CALL ISZERO DUP1 ISZERO PUSH2 0xED6 JUMPI RETURNDATASIZE PUSH1 0x0 DUP1 RETURNDATACOPY RETURNDATASIZE PUSH1 0x0 REVERT JUMPDEST POP POP POP POP PUSH1 0x40 MLOAD RETURNDATASIZE PUSH1 0x1F NOT PUSH1 0x1F DUP3 ADD AND DUP3 ADD DUP1 PUSH1 0x40 MSTORE POP DUP2 ADD SWAP1 PUSH2 0xEFA SWAP2 SWAP1 PUSH2 0x32E2 JUMP JUMPDEST POP POP PUSH2 0xF04 PUSH2 0xB18 JUMP JUMPDEST SWAP2 POP PUSH2 0xF0E PUSH2 0xA4A JUMP JUMPDEST SWAP1 POP JUMPDEST PUSH1 0x0 PUSH2 0xF1F DUP11 DUP11 DUP6 DUP6 PUSH2 0x22DB JUMP JUMPDEST SWAP1 POP PUSH2 0xF2C DUP11 DUP11 DUP4 PUSH2 0x239E JUMP JUMPDEST PUSH1 0xA DUP1 SLOAD PUSH1 0x2 DUP13 DUP2 SIGNEXTEND PUSH3 0xFFFFFF SWAP1 DUP2 AND PUSH1 0x1 PUSH1 0xA0 SHL MUL PUSH3 0xFFFFFF PUSH1 0xA0 SHL NOT SWAP3 DUP15 SWAP1 SIGNEXTEND SWAP1 SWAP2 AND PUSH1 0x1 PUSH1 0xB8 SHL MUL PUSH3 0xFFFFFF PUSH1 0xB8 SHL NOT SWAP1 SWAP4 AND SWAP3 SWAP1 SWAP3 OR AND OR SWAP1 SSTORE PUSH2 0xF72 PUSH2 0xB18 JUMP JUMPDEST SWAP3 POP PUSH2 0xF7C PUSH2 0xA4A JUMP JUMPDEST SWAP2 POP PUSH1 0x0 PUSH2 0xF8C DUP10 DUP10 DUP7 DUP7 PUSH2 0x22DB JUMP JUMPDEST SWAP1 POP PUSH1 0x0 PUSH2 0xF9C DUP9 DUP9 DUP8 DUP8 PUSH2 0x22DB JUMP JUMPDEST SWAP1 POP DUP1 PUSH1 0x1 PUSH1 0x1 PUSH1 0x80 SHL SUB AND DUP3 PUSH1 0x1 PUSH1 0x1 PUSH1 0x80 SHL SUB AND GT ISZERO PUSH2 0x1006 JUMPI PUSH2 0xFC3 DUP11 DUP11 DUP5 PUSH2 0x239E JUMP JUMPDEST PUSH1 0xA DUP1 SLOAD PUSH1 0x2 DUP13 DUP2 SIGNEXTEND PUSH3 0xFFFFFF SWAP1 DUP2 AND PUSH1 0x1 PUSH1 0xD0 SHL MUL PUSH3 0xFFFFFF PUSH1 0xD0 SHL NOT SWAP3 DUP15 SWAP1 SIGNEXTEND SWAP1 SWAP2 AND PUSH1 0x1 PUSH1 0xE8 SHL MUL PUSH1 0x1 PUSH1 0x1 PUSH1 0xE8 SHL SUB SWAP1 SWAP4 AND SWAP3 SWAP1 SWAP3 OR AND OR SWAP1 SSTORE PUSH2 0x1050 JUMP JUMPDEST PUSH2 0x1011 DUP9 DUP9 DUP4 PUSH2 0x239E JUMP JUMPDEST PUSH1 0xA DUP1 SLOAD PUSH1 0x2 DUP11 DUP2 SIGNEXTEND PUSH3 0xFFFFFF SWAP1 DUP2 AND PUSH1 0x1 PUSH1 0xD0 SHL MUL PUSH3 0xFFFFFF PUSH1 0xD0 SHL NOT SWAP3 DUP13 SWAP1 SIGNEXTEND SWAP1 SWAP2 AND PUSH1 0x1 PUSH1 0xE8 SHL MUL PUSH1 0x1 PUSH1 0x1 PUSH1 0xE8 SHL SUB SWAP1 SWAP4 AND SWAP3 SWAP1 SWAP3 OR AND OR SWAP1 SSTORE JUMPDEST POP POP PUSH1 0x1 PUSH1 0x5 SSTORE POP POP POP POP POP POP POP POP POP POP POP POP JUMP JUMPDEST PUSH1 0xA SLOAD PUSH1 0x1 PUSH1 0xB8 SHL SWAP1 DIV PUSH1 0x2 SIGNEXTEND DUP2 JUMP JUMPDEST PUSH1 0x60 PUSH1 0x4 DUP1 SLOAD PUSH2 0x5F3 SWAP1 PUSH2 0x3F62 JUMP JUMPDEST PUSH1 0xC SLOAD DUP2 JUMP JUMPDEST PUSH1 0x0 DUP1 PUSH2 0x1095 PUSH2 0x19DD JUMP JUMPDEST PUSH1 0x1 PUSH1 0x1 PUSH1 0xA0 SHL SUB DUP1 DUP3 AND PUSH1 0x0 SWAP1 DUP2 MSTORE PUSH1 0x1 PUSH1 0x20 SWAP1 DUP2 MSTORE PUSH1 0x40 DUP1 DUP4 KECCAK256 SWAP4 DUP10 AND DUP4 MSTORE SWAP3 SWAP1 MSTORE KECCAK256 SLOAD SWAP1 SWAP2 POP DUP4 DUP2 LT ISZERO PUSH2 0x10DE JUMPI PUSH1 0x40 MLOAD PUSH3 0x461BCD PUSH1 0xE5 SHL DUP2 MSTORE PUSH1 0x4 ADD PUSH2 0x542 SWAP1 PUSH2 0x3DE3 JUMP JUMPDEST PUSH2 0x10EB DUP3 DUP7 DUP7 DUP5 SUB PUSH2 0x19E1 JUMP JUMPDEST POP PUSH1 0x1 SWAP5 SWAP4 POP POP POP POP JUMP JUMPDEST PUSH1 0x0 DUP1 PUSH2 0x1101 PUSH2 0x19DD JUMP JUMPDEST SWAP1 POP PUSH2 0x68E DUP2 DUP6 DUP6 PUSH2 0x1AD9 JUMP JUMPDEST PUSH1 0x0 DUP1 PUSH1 0x0 DUP1 PUSH1 0x0 PUSH2 0x1120 DUP8 DUP8 PUSH2 0x1FC8 JUMP JUMPDEST SWAP5 POP SWAP5 POP POP POP SWAP3 POP PUSH2 0x1133 DUP8 DUP8 DUP6 PUSH2 0x23FF JUMP JUMPDEST PUSH1 0x6 SLOAD SWAP2 SWAP7 POP SWAP5 POP PUSH1 0x0 SWAP1 PUSH2 0x114C SWAP1 PUSH3 0xF4240 SWAP1 PUSH2 0x197B JUMP JUMPDEST SWAP1 POP PUSH2 0x1178 PUSH2 0x1171 PUSH3 0xF4240 PUSH2 0x116B PUSH1 0x1 PUSH1 0x1 PUSH1 0x80 SHL SUB DUP8 AND DUP6 PUSH2 0x24C6 JUMP JUMPDEST SWAP1 PUSH2 0x24D2 JUMP JUMPDEST DUP8 SWAP1 PUSH2 0x24DE JUMP JUMPDEST SWAP6 POP PUSH2 0x119E PUSH2 0x1197 PUSH3 0xF4240 PUSH2 0x116B PUSH1 0x1 PUSH1 0x1 PUSH1 0x80 SHL SUB DUP7 AND DUP6 PUSH2 0x24C6 JUMP JUMPDEST DUP7 SWAP1 PUSH2 0x24DE JUMP JUMPDEST SWAP5 POP POP POP POP POP SWAP3 POP SWAP3 SWAP1 POP JUMP JUMPDEST PUSH1 0x9 SLOAD PUSH1 0x1 PUSH1 0x1 PUSH1 0xA0 SHL SUB AND CALLER EQ PUSH2 0x11D5 JUMPI PUSH1 0x40 MLOAD PUSH3 0x461BCD PUSH1 0xE5 SHL DUP2 MSTORE PUSH1 0x4 ADD PUSH2 0x542 SWAP1 PUSH2 0x3B39 JUMP JUMPDEST PUSH1 0xA DUP1 SLOAD PUSH1 0x1 PUSH1 0x1 PUSH1 0xA0 SHL SUB NOT AND PUSH1 0x1 PUSH1 0x1 PUSH1 0xA0 SHL SUB SWAP3 SWAP1 SWAP3 AND SWAP2 SWAP1 SWAP2 OR SWAP1 SSTORE JUMP JUMPDEST PUSH1 0x9 SLOAD PUSH1 0x1 PUSH1 0x1 PUSH1 0xA0 SHL SUB AND CALLER EQ PUSH2 0x1221 JUMPI PUSH1 0x40 MLOAD PUSH3 0x461BCD PUSH1 0xE5 SHL DUP2 MSTORE PUSH1 0x4 ADD PUSH2 0x542 SWAP1 PUSH2 0x3B39 JUMP JUMPDEST PUSH1 0x40 MLOAD PUSH4 0xA34123A7 PUSH1 0xE0 SHL DUP2 MSTORE PUSH1 0x1 PUSH1 0x1 PUSH1 0xA0 SHL SUB PUSH32 0x0 AND SWAP1 PUSH4 0xA34123A7 SWAP1 PUSH2 0x1271 SWAP1 DUP7 SWAP1 DUP7 SWAP1 DUP7 SWAP1 PUSH1 0x4 ADD PUSH2 0x376D JUMP JUMPDEST PUSH1 0x40 DUP1 MLOAD DUP1 DUP4 SUB DUP2 PUSH1 0x0 DUP8 DUP1 EXTCODESIZE ISZERO DUP1 ISZERO PUSH2 0x128A JUMPI PUSH1 0x0 DUP1 REVERT JUMPDEST POP GAS CALL ISZERO DUP1 ISZERO PUSH2 0x129E JUMPI RETURNDATASIZE PUSH1 0x0 DUP1 RETURNDATACOPY RETURNDATASIZE PUSH1 0x0 REVERT JUMPDEST POP POP POP POP PUSH1 0x40 MLOAD RETURNDATASIZE PUSH1 0x1F NOT PUSH1 0x1F DUP3 ADD AND DUP3 ADD DUP1 PUSH1 0x40 MSTORE POP DUP2 ADD SWAP1 PUSH2 0x12C2 SWAP2 SWAP1 PUSH2 0x32E2 JUMP JUMPDEST POP POP PUSH1 0x40 MLOAD PUSH4 0x9E3D67B PUSH1 0xE3 SHL DUP2 MSTORE PUSH1 0x1 PUSH1 0x1 PUSH1 0xA0 SHL SUB PUSH32 0x0 AND SWAP1 PUSH4 0x4F1EB3D8 SWAP1 PUSH2 0x131F SWAP1 ADDRESS SWAP1 DUP8 SWAP1 DUP8 SWAP1 PUSH1 0x1 PUSH1 0x1 PUSH1 0x80 SHL SUB SWAP1 DUP2 SWAP1 PUSH1 0x4 ADD PUSH2 0x36F5 JUMP JUMPDEST PUSH1 0x40 DUP1 MLOAD DUP1 DUP4 SUB DUP2 PUSH1 0x0 DUP8 DUP1 EXTCODESIZE ISZERO DUP1 ISZERO PUSH2 0x1338 JUMPI PUSH1 0x0 DUP1 REVERT JUMPDEST POP GAS CALL ISZERO DUP1 ISZERO PUSH2 0x134C JUMPI RETURNDATASIZE PUSH1 0x0 DUP1 RETURNDATACOPY RETURNDATASIZE PUSH1 0x0 REVERT JUMPDEST POP POP POP POP PUSH1 0x40 MLOAD RETURNDATASIZE PUSH1 0x1F NOT PUSH1 0x1F DUP3 ADD AND DUP3 ADD DUP1 PUSH1 0x40 MSTORE POP DUP2 ADD SWAP1 PUSH2 0x1370 SWAP2 SWAP1 PUSH2 0x33F5 JUMP JUMPDEST POP POP POP POP POP JUMP JUMPDEST PUSH1 0x6 SLOAD DUP2 JUMP JUMPDEST PUSH1 0x9 SLOAD PUSH1 0x1 PUSH1 0x1 PUSH1 0xA0 SHL SUB AND CALLER EQ PUSH2 0x13A7 JUMPI PUSH1 0x40 MLOAD PUSH3 0x461BCD PUSH1 0xE5 SHL DUP2 MSTORE PUSH1 0x4 ADD PUSH2 0x542 SWAP1 PUSH2 0x3B39 JUMP JUMPDEST PUSH1 0x8 DUP1 SLOAD PUSH1 0x1 PUSH1 0x1 PUSH1 0xA0 SHL SUB NOT AND PUSH1 0x1 PUSH1 0x1 PUSH1 0xA0 SHL SUB SWAP3 SWAP1 SWAP3 AND SWAP2 SWAP1 SWAP2 OR SWAP1 SSTORE JUMP JUMPDEST PUSH1 0xA SLOAD PUSH1 0x0 SWAP1 DUP2 SWAP1 DUP2 SWAP1 DUP2 SWAP1 PUSH2 0x13F4 SWAP1 PUSH1 0x1 PUSH1 0xA0 SHL DUP2 DIV PUSH1 0x2 SWAP1 DUP2 SIGNEXTEND SWAP2 PUSH1 0x1 PUSH1 0xB8 SHL SWAP1 DIV SWAP1 SIGNEXTEND PUSH2 0x110E JUMP JUMPDEST PUSH1 0xA SLOAD SWAP2 SWAP4 POP SWAP2 POP PUSH1 0x0 SWAP1 DUP2 SWAP1 PUSH2 0x1420 SWAP1 PUSH1 0x1 PUSH1 0xD0 SHL DUP2 DIV PUSH1 0x2 SWAP1 DUP2 SIGNEXTEND SWAP2 PUSH1 0x1 PUSH1 0xE8 SHL SWAP1 DIV SWAP1 SIGNEXTEND PUSH2 0x110E JUMP JUMPDEST SWAP2 POP SWAP2 POP PUSH2 0x143A DUP3 PUSH2 0x1434 DUP7 PUSH2 0x1434 PUSH2 0xB18 JUMP JUMPDEST SWAP1 PUSH2 0x24DE JUMP JUMPDEST SWAP6 POP PUSH2 0x144C DUP2 PUSH2 0x1434 DUP6 PUSH2 0x1434 PUSH2 0xA4A JUMP JUMPDEST SWAP5 POP POP POP POP POP SWAP1 SWAP2 JUMP JUMPDEST PUSH32 0x0 DUP2 JUMP JUMPDEST PUSH32 0x0 DUP2 JUMP JUMPDEST PUSH1 0x0 DUP1 PUSH1 0x2 PUSH1 0x5 SLOAD EQ ISZERO PUSH2 0x14C4 JUMPI PUSH1 0x40 MLOAD PUSH3 0x461BCD PUSH1 0xE5 SHL DUP2 MSTORE PUSH1 0x4 ADD PUSH2 0x542 SWAP1 PUSH2 0x3DAC JUMP JUMPDEST PUSH1 0x2 PUSH1 0x5 SSTORE DUP6 PUSH2 0x14E6 JUMPI PUSH1 0x40 MLOAD PUSH3 0x461BCD PUSH1 0xE5 SHL DUP2 MSTORE PUSH1 0x4 ADD PUSH2 0x542 SWAP1 PUSH2 0x3B5D JUMP JUMPDEST PUSH1 0x1 PUSH1 0x1 PUSH1 0xA0 SHL SUB DUP4 AND ISZERO DUP1 ISZERO SWAP1 PUSH2 0x1507 JUMPI POP PUSH1 0x1 PUSH1 0x1 PUSH1 0xA0 SHL SUB DUP4 AND ADDRESS EQ ISZERO JUMPDEST PUSH2 0x1523 JUMPI PUSH1 0x40 MLOAD PUSH3 0x461BCD PUSH1 0xE5 SHL DUP2 MSTORE PUSH1 0x4 ADD PUSH2 0x542 SWAP1 PUSH2 0x388F JUMP JUMPDEST PUSH1 0x0 PUSH2 0x152D PUSH2 0x6FF JUMP JUMPDEST SWAP1 POP PUSH2 0x1539 CALLER DUP9 PUSH2 0x24EA JUMP JUMPDEST PUSH1 0x0 PUSH2 0x1551 DUP3 PUSH2 0x116B DUP11 PUSH2 0x154B PUSH2 0xB18 JUMP JUMPDEST SWAP1 PUSH2 0x24C6 JUMP JUMPDEST SWAP1 POP PUSH1 0x0 PUSH2 0x1565 DUP4 PUSH2 0x116B DUP12 PUSH2 0x154B PUSH2 0xA4A JUMP JUMPDEST PUSH1 0xA SLOAD SWAP1 SWAP2 POP PUSH1 0x0 SWAP1 DUP2 SWAP1 PUSH2 0x1591 SWAP1 PUSH1 0x1 PUSH1 0xA0 SHL DUP2 DIV PUSH1 0x2 SWAP1 DUP2 SIGNEXTEND SWAP2 PUSH1 0x1 PUSH1 0xB8 SHL SWAP1 DIV SWAP1 SIGNEXTEND DUP14 DUP9 PUSH2 0x25DB JUMP JUMPDEST PUSH1 0xA SLOAD SWAP2 SWAP4 POP SWAP2 POP PUSH1 0x0 SWAP1 DUP2 SWAP1 PUSH2 0x15BF SWAP1 PUSH1 0x1 PUSH1 0xD0 SHL DUP2 DIV PUSH1 0x2 SWAP1 DUP2 SIGNEXTEND SWAP2 PUSH1 0x1 PUSH1 0xE8 SHL SWAP1 DIV SWAP1 SIGNEXTEND DUP16 DUP11 PUSH2 0x25DB JUMP JUMPDEST SWAP1 SWAP3 POP SWAP1 POP PUSH2 0x15D2 DUP3 PUSH2 0x1434 DUP9 DUP8 PUSH2 0x24DE JUMP JUMPDEST SWAP9 POP PUSH2 0x15E2 DUP2 PUSH2 0x1434 DUP8 DUP7 PUSH2 0x24DE JUMP JUMPDEST SWAP8 POP DUP12 DUP10 LT ISZERO PUSH2 0x1604 JUMPI PUSH1 0x40 MLOAD PUSH3 0x461BCD PUSH1 0xE5 SHL DUP2 MSTORE PUSH1 0x4 ADD PUSH2 0x542 SWAP1 PUSH2 0x3829 JUMP JUMPDEST DUP11 DUP9 LT ISZERO PUSH2 0x1624 JUMPI PUSH1 0x40 MLOAD PUSH3 0x461BCD PUSH1 0xE5 SHL DUP2 MSTORE PUSH1 0x4 ADD PUSH2 0x542 SWAP1 PUSH2 0x3C22 JUMP JUMPDEST DUP9 ISZERO PUSH2 0x165E JUMPI PUSH2 0x165E PUSH1 0x1 PUSH1 0x1 PUSH1 0xA0 SHL SUB PUSH32 0x0 AND DUP12 DUP12 PUSH2 0x1987 JUMP JUMPDEST DUP8 ISZERO PUSH2 0x1698 JUMPI PUSH2 0x1698 PUSH1 0x1 PUSH1 0x1 PUSH1 0xA0 SHL SUB PUSH32 0x0 AND DUP12 DUP11 PUSH2 0x1987 JUMP JUMPDEST DUP10 PUSH1 0x1 PUSH1 0x1 PUSH1 0xA0 SHL SUB AND CALLER PUSH1 0x1 PUSH1 0x1 PUSH1 0xA0 SHL SUB AND PUSH32 0xEBFF2602B3F468259E1E99F613FED6691F3A6526EFFE6EF3E768BA7AE7A36C4F DUP16 DUP13 DUP13 PUSH1 0x40 MLOAD PUSH2 0x16DF SWAP4 SWAP3 SWAP2 SWAP1 PUSH2 0x3E6D JUMP JUMPDEST PUSH1 0x40 MLOAD DUP1 SWAP2 SUB SWAP1 LOG3 POP POP POP POP POP POP POP PUSH1 0x1 PUSH1 0x5 DUP2 SWAP1 SSTORE POP SWAP5 POP SWAP5 SWAP3 POP POP POP JUMP JUMPDEST CALLER PUSH1 0x1 PUSH1 0x1 PUSH1 0xA0 SHL SUB PUSH32 0x0 AND EQ PUSH2 0x1734 JUMPI PUSH1 0x0 DUP1 REVERT JUMPDEST DUP4 ISZERO PUSH2 0x176E JUMPI PUSH2 0x176E PUSH1 0x1 PUSH1 0x1 PUSH1 0xA0 SHL SUB PUSH32 0x0 AND CALLER DUP7 PUSH2 0x1987 JUMP JUMPDEST DUP3 ISZERO PUSH2 0x17A8 JUMPI PUSH2 0x17A8 PUSH1 0x1 PUSH1 0x1 PUSH1 0xA0 SHL SUB PUSH32 0x0 AND CALLER DUP6 PUSH2 0x1987 JUMP JUMPDEST POP POP POP POP JUMP JUMPDEST PUSH1 0x9 SLOAD PUSH1 0x1 PUSH1 0x1 PUSH1 0xA0 SHL SUB AND CALLER EQ PUSH2 0x17D8 JUMPI PUSH1 0x40 MLOAD PUSH3 0x461BCD PUSH1 0xE5 SHL DUP2 MSTORE PUSH1 0x4 ADD PUSH2 0x542 SWAP1 PUSH2 0x3B39 JUMP JUMPDEST PUSH32 0x0 PUSH1 0x1 PUSH1 0x1 PUSH1 0xA0 SHL SUB AND DUP4 PUSH1 0x1 PUSH1 0x1 PUSH1 0xA0 SHL SUB AND EQ ISZERO DUP1 ISZERO PUSH2 0x184C JUMPI POP PUSH32 0x0 PUSH1 0x1 PUSH1 0x1 PUSH1 0xA0 SHL SUB AND DUP4 PUSH1 0x1 PUSH1 0x1 PUSH1 0xA0 SHL SUB AND EQ ISZERO JUMPDEST PUSH2 0x1868 JUMPI PUSH1 0x40 MLOAD PUSH3 0x461BCD PUSH1 0xE5 SHL DUP2 MSTORE PUSH1 0x4 ADD PUSH2 0x542 SWAP1 PUSH2 0x3AF4 JUMP JUMPDEST PUSH2 0x5DF PUSH1 0x1 PUSH1 0x1 PUSH1 0xA0 SHL SUB DUP5 AND DUP3 DUP5 PUSH2 0x1987 JUMP JUMPDEST PUSH1 0x1 PUSH1 0x1 PUSH1 0xA0 SHL SUB SWAP2 DUP3 AND PUSH1 0x0 SWAP1 DUP2 MSTORE PUSH1 0x1 PUSH1 0x20 SWAP1 DUP2 MSTORE PUSH1 0x40 DUP1 DUP4 KECCAK256 SWAP4 SWAP1 SWAP5 AND DUP3 MSTORE SWAP2 SWAP1 SWAP2 MSTORE KECCAK256 SLOAD SWAP1 JUMP JUMPDEST PUSH1 0xB SLOAD DUP2 JUMP JUMPDEST PUSH1 0xA SLOAD PUSH1 0x1 PUSH1 0x1 PUSH1 0xA0 SHL SUB AND DUP2 JUMP JUMPDEST PUSH1 0xA SLOAD PUSH1 0x1 PUSH1 0xA0 SHL SWAP1 DIV PUSH1 0x2 SIGNEXTEND DUP2 JUMP JUMPDEST CALLER PUSH1 0x1 PUSH1 0x1 PUSH1 0xA0 SHL SUB PUSH32 0x0 AND EQ PUSH2 0x1901 JUMPI PUSH1 0x0 DUP1 REVERT JUMPDEST PUSH1 0x0 DUP5 SGT ISZERO PUSH2 0x193E JUMPI PUSH2 0x193E PUSH1 0x1 PUSH1 0x1 PUSH1 0xA0 SHL SUB PUSH32 0x0 AND CALLER DUP7 PUSH2 0x1987 JUMP JUMPDEST PUSH1 0x0 DUP4 SGT ISZERO PUSH2 0x17A8 JUMPI PUSH2 0x17A8 PUSH1 0x1 PUSH1 0x1 PUSH1 0xA0 SHL SUB PUSH32 0x0 AND CALLER DUP6 PUSH2 0x1987 JUMP JUMPDEST PUSH1 0x0 PUSH2 0x76C DUP3 DUP5 PUSH2 0x3F1F JUMP JUMPDEST PUSH2 0x5DF DUP4 PUSH4 0xA9059CBB PUSH1 0xE0 SHL DUP5 DUP5 PUSH1 0x40 MLOAD PUSH1 0x24 ADD PUSH2 0x19A6 SWAP3 SWAP2 SWAP1 PUSH2 0x3732 JUMP JUMPDEST PUSH1 0x40 DUP1 MLOAD PUSH1 0x1F NOT DUP2 DUP5 SUB ADD DUP2 MSTORE SWAP2 SWAP1 MSTORE PUSH1 0x20 DUP2 ADD DUP1 MLOAD PUSH1 0x1 PUSH1 0x1 PUSH1 0xE0 SHL SUB AND PUSH1 0x1 PUSH1 0x1 PUSH1 0xE0 SHL SUB NOT SWAP1 SWAP4 AND SWAP3 SWAP1 SWAP3 OR SWAP1 SWAP2 MSTORE PUSH2 0x2681 JUMP JUMPDEST CALLER SWAP1 JUMP JUMPDEST PUSH1 0x1 PUSH1 0x1 PUSH1 0xA0 SHL SUB DUP4 AND PUSH2 0x1A07 JUMPI PUSH1 0x40 MLOAD PUSH3 0x461BCD PUSH1 0xE5 SHL DUP2 MSTORE PUSH1 0x4 ADD PUSH2 0x542 SWAP1 PUSH2 0x3C93 JUMP JUMPDEST PUSH1 0x1 PUSH1 0x1 PUSH1 0xA0 SHL SUB DUP3 AND PUSH2 0x1A2D JUMPI PUSH1 0x40 MLOAD PUSH3 0x461BCD PUSH1 0xE5 SHL DUP2 MSTORE PUSH1 0x4 ADD PUSH2 0x542 SWAP1 PUSH2 0x38DA JUMP JUMPDEST PUSH1 0x1 PUSH1 0x1 PUSH1 0xA0 SHL SUB DUP1 DUP5 AND PUSH1 0x0 DUP2 DUP2 MSTORE PUSH1 0x1 PUSH1 0x20 SWAP1 DUP2 MSTORE PUSH1 0x40 DUP1 DUP4 KECCAK256 SWAP5 DUP8 AND DUP1 DUP5 MSTORE SWAP5 SWAP1 SWAP2 MSTORE SWAP1 DUP2 SWAP1 KECCAK256 DUP5 SWAP1 SSTORE MLOAD PUSH32 0x8C5BE1E5EBEC7D5BD14F71427D1E84F3DD0314C0F7B2291E5B200AC8C7C3B925 SWAP1 PUSH2 0x1A88 SWAP1 DUP6 SWAP1 PUSH2 0x3756 JUMP JUMPDEST PUSH1 0x40 MLOAD DUP1 SWAP2 SUB SWAP1 LOG3 POP POP POP JUMP JUMPDEST PUSH1 0x0 PUSH2 0x1AA1 DUP5 DUP5 PUSH2 0x187C JUMP JUMPDEST SWAP1 POP PUSH1 0x0 NOT DUP2 EQ PUSH2 0x17A8 JUMPI DUP2 DUP2 LT ISZERO PUSH2 0x1ACC JUMPI PUSH1 0x40 MLOAD PUSH3 0x461BCD PUSH1 0xE5 SHL DUP2 MSTORE PUSH1 0x4 ADD PUSH2 0x542 SWAP1 PUSH2 0x3953 JUMP JUMPDEST PUSH2 0x17A8 DUP5 DUP5 DUP5 DUP5 SUB PUSH2 0x19E1 JUMP JUMPDEST PUSH1 0x1 PUSH1 0x1 PUSH1 0xA0 SHL SUB DUP4 AND PUSH2 0x1AFF JUMPI PUSH1 0x40 MLOAD PUSH3 0x461BCD PUSH1 0xE5 SHL DUP2 MSTORE PUSH1 0x4 ADD PUSH2 0x542 SWAP1 PUSH2 0x3BDD JUMP JUMPDEST PUSH1 0x1 PUSH1 0x1 PUSH1 0xA0 SHL SUB DUP3 AND PUSH2 0x1B25 JUMPI PUSH1 0x40 MLOAD PUSH3 0x461BCD PUSH1 0xE5 SHL DUP2 MSTORE PUSH1 0x4 ADD PUSH2 0x542 SWAP1 PUSH2 0x37E6 JUMP JUMPDEST PUSH2 0x1B30 DUP4 DUP4 DUP4 PUSH2 0x5DF JUMP JUMPDEST PUSH1 0x1 PUSH1 0x1 PUSH1 0xA0 SHL SUB DUP4 AND PUSH1 0x0 SWAP1 DUP2 MSTORE PUSH1 0x20 DUP2 SWAP1 MSTORE PUSH1 0x40 SWAP1 KECCAK256 SLOAD DUP2 DUP2 LT ISZERO PUSH2 0x1B69 JUMPI PUSH1 0x40 MLOAD PUSH3 0x461BCD PUSH1 0xE5 SHL DUP2 MSTORE PUSH1 0x4 ADD PUSH2 0x542 SWAP1 PUSH2 0x39C1 JUMP JUMPDEST PUSH1 0x1 PUSH1 0x1 PUSH1 0xA0 SHL SUB DUP1 DUP6 AND PUSH1 0x0 SWAP1 DUP2 MSTORE PUSH1 0x20 DUP2 SWAP1 MSTORE PUSH1 0x40 DUP1 DUP3 KECCAK256 DUP6 DUP6 SUB SWAP1 SSTORE SWAP2 DUP6 AND DUP2 MSTORE SWAP1 DUP2 KECCAK256 DUP1 SLOAD DUP5 SWAP3 SWAP1 PUSH2 0x1BA0 SWAP1 DUP5 SWAP1 PUSH2 0x3EAC JUMP JUMPDEST SWAP3 POP POP DUP2 SWAP1 SSTORE POP DUP3 PUSH1 0x1 PUSH1 0x1 PUSH1 0xA0 SHL SUB AND DUP5 PUSH1 0x1 PUSH1 0x1 PUSH1 0xA0 SHL SUB AND PUSH32 0xDDF252AD1BE2C89B69C2B068FC378DAA952BA7F163C4A11628F55A4DF523B3EF DUP5 PUSH1 0x40 MLOAD PUSH2 0x1BEA SWAP2 SWAP1 PUSH2 0x3756 JUMP JUMPDEST PUSH1 0x40 MLOAD DUP1 SWAP2 SUB SWAP1 LOG3 PUSH2 0x17A8 DUP5 DUP5 DUP5 PUSH2 0x5DF JUMP JUMPDEST PUSH1 0x0 PUSH2 0x1C09 DUP4 DUP4 PUSH2 0x1FC8 JUMP JUMPDEST POP POP POP POP SWAP1 POP PUSH1 0x0 DUP2 PUSH1 0x1 PUSH1 0x1 PUSH1 0x80 SHL SUB AND GT ISZERO PUSH2 0x5DF JUMPI PUSH1 0x40 MLOAD PUSH4 0xA34123A7 PUSH1 0xE0 SHL DUP2 MSTORE PUSH1 0x1 PUSH1 0x1 PUSH1 0xA0 SHL SUB PUSH32 0x0 AND SWAP1 PUSH4 0xA34123A7 SWAP1 PUSH2 0x1C72 SWAP1 DUP7 SWAP1 DUP7 SWAP1 PUSH1 0x0 SWAP1 PUSH1 0x4 ADD PUSH2 0x376D JUMP JUMPDEST PUSH1 0x40 DUP1 MLOAD DUP1 DUP4 SUB DUP2 PUSH1 0x0 DUP8 DUP1 EXTCODESIZE ISZERO DUP1 ISZERO PUSH2 0x1C8B JUMPI PUSH1 0x0 DUP1 REVERT JUMPDEST POP GAS CALL ISZERO DUP1 ISZERO PUSH2 0x1C9F JUMPI RETURNDATASIZE PUSH1 0x0 DUP1 RETURNDATACOPY RETURNDATASIZE PUSH1 0x0 REVERT JUMPDEST POP POP POP POP PUSH1 0x40 MLOAD RETURNDATASIZE PUSH1 0x1F NOT PUSH1 0x1F DUP3 ADD AND DUP3 ADD DUP1 PUSH1 0x40 MSTORE POP DUP2 ADD SWAP1 PUSH2 0x1370 SWAP2 SWAP1 PUSH2 0x32E2 JUMP JUMPDEST PUSH1 0x0 DUP1 PUSH1 0x0 DUP1 PUSH2 0x1CD1 PUSH2 0x6FF JUMP JUMPDEST SWAP1 POP PUSH1 0x0 DUP1 PUSH2 0x1CDE PUSH2 0x13C9 JUMP JUMPDEST SWAP2 POP SWAP2 POP DUP3 PUSH1 0x0 EQ DUP1 PUSH2 0x1CF1 JUMPI POP PUSH1 0x0 DUP3 GT JUMPDEST DUP1 PUSH2 0x1CFC JUMPI POP PUSH1 0x0 DUP2 GT JUMPDEST PUSH2 0x1D16 JUMPI PUSH4 0x4E487B71 PUSH1 0xE0 SHL PUSH1 0x0 MSTORE PUSH1 0x1 PUSH1 0x4 MSTORE PUSH1 0x24 PUSH1 0x0 REVERT JUMPDEST DUP3 PUSH2 0x1D32 JUMPI DUP8 SWAP5 POP DUP7 SWAP4 POP PUSH2 0x1D2B DUP6 DUP6 PUSH2 0x2710 JUMP JUMPDEST SWAP6 POP PUSH2 0x1DDC JUMP JUMPDEST DUP2 PUSH2 0x1D48 JUMPI DUP7 SWAP4 POP PUSH2 0x1D2B DUP2 PUSH2 0x116B DUP7 DUP7 PUSH2 0x24C6 JUMP JUMPDEST DUP1 PUSH2 0x1D5E JUMPI DUP8 SWAP5 POP PUSH2 0x1D2B DUP3 PUSH2 0x116B DUP8 DUP7 PUSH2 0x24C6 JUMP JUMPDEST PUSH1 0x0 PUSH2 0x1D7C PUSH2 0x1D6D DUP11 DUP5 PUSH2 0x24C6 JUMP JUMPDEST PUSH2 0x1D77 DUP11 DUP7 PUSH2 0x24C6 JUMP JUMPDEST PUSH2 0x2727 JUMP JUMPDEST SWAP1 POP PUSH1 0x0 DUP2 GT PUSH2 0x1D9E JUMPI PUSH1 0x40 MLOAD PUSH3 0x461BCD PUSH1 0xE5 SHL DUP2 MSTORE PUSH1 0x4 ADD PUSH2 0x542 SWAP1 PUSH2 0x3BBE JUMP JUMPDEST PUSH2 0x1DB1 PUSH1 0x1 PUSH2 0x1434 DUP5 PUSH2 0x116B DUP6 DUP5 PUSH2 0x197B JUMP JUMPDEST SWAP6 POP PUSH2 0x1DC6 PUSH1 0x1 PUSH2 0x1434 DUP6 PUSH2 0x116B DUP6 DUP5 PUSH2 0x197B JUMP JUMPDEST SWAP5 POP PUSH2 0x1DD8 DUP3 PUSH2 0x116B DUP6 DUP2 DUP6 DUP10 PUSH2 0x24C6 JUMP JUMPDEST SWAP7 POP POP JUMPDEST POP POP POP SWAP3 POP SWAP3 POP SWAP3 JUMP JUMPDEST PUSH2 0x17A8 DUP5 PUSH4 0x23B872DD PUSH1 0xE0 SHL DUP6 DUP6 DUP6 PUSH1 0x40 MLOAD PUSH1 0x24 ADD PUSH2 0x19A6 SWAP4 SWAP3 SWAP2 SWAP1 PUSH2 0x3655 JUMP JUMPDEST PUSH1 0x1 PUSH1 0x1 PUSH1 0xA0 SHL SUB DUP3 AND PUSH2 0x1E2D JUMPI PUSH1 0x40 MLOAD PUSH3 0x461BCD PUSH1 0xE5 SHL DUP2 MSTORE PUSH1 0x4 ADD PUSH2 0x542 SWAP1 PUSH2 0x3E28 JUMP JUMPDEST PUSH2 0x1E39 PUSH1 0x0 DUP4 DUP4 PUSH2 0x5DF JUMP JUMPDEST DUP1 PUSH1 0x2 PUSH1 0x0 DUP3 DUP3 SLOAD PUSH2 0x1E4B SWAP2 SWAP1 PUSH2 0x3EAC JUMP JUMPDEST SWAP1 SWAP2 SSTORE POP POP PUSH1 0x1 PUSH1 0x1 PUSH1 0xA0 SHL SUB DUP3 AND PUSH1 0x0 SWAP1 DUP2 MSTORE PUSH1 0x20 DUP2 SWAP1 MSTORE PUSH1 0x40 DUP2 KECCAK256 DUP1 SLOAD DUP4 SWAP3 SWAP1 PUSH2 0x1E78 SWAP1 DUP5 SWAP1 PUSH2 0x3EAC JUMP JUMPDEST SWAP1 SWAP2 SSTORE POP POP PUSH1 0x40 MLOAD PUSH1 0x1 PUSH1 0x1 PUSH1 0xA0 SHL SUB DUP4 AND SWAP1 PUSH1 0x0 SWAP1 PUSH32 0xDDF252AD1BE2C89B69C2B068FC378DAA952BA7F163C4A11628F55A4DF523B3EF SWAP1 PUSH2 0x1EBB SWAP1 DUP6 SWAP1 PUSH2 0x3756 JUMP JUMPDEST PUSH1 0x40 MLOAD DUP1 SWAP2 SUB SWAP1 LOG3 PUSH2 0x1ECF PUSH1 0x0 DUP4 DUP4 PUSH2 0x5DF JUMP JUMPDEST POP POP JUMP JUMPDEST PUSH32 0x0 PUSH1 0x2 DUP3 DUP2 SIGNEXTEND SWAP1 DUP5 SWAP1 SIGNEXTEND SLT PUSH2 0x1F1A JUMPI PUSH1 0x40 MLOAD PUSH3 0x461BCD PUSH1 0xE5 SHL DUP2 MSTORE PUSH1 0x4 ADD PUSH2 0x542 SWAP1 PUSH2 0x38AB JUMP JUMPDEST PUSH3 0xD89E7 NOT PUSH1 0x2 DUP5 SWAP1 SIGNEXTEND SLT ISZERO PUSH2 0x1F42 JUMPI PUSH1 0x40 MLOAD PUSH3 0x461BCD PUSH1 0xE5 SHL DUP2 MSTORE PUSH1 0x4 ADD PUSH2 0x542 SWAP1 PUSH2 0x3C68 JUMP JUMPDEST PUSH2 0x1F4F PUSH3 0xD89E7 NOT PUSH2 0x3FD3 JUMP JUMPDEST PUSH1 0x2 SIGNEXTEND DUP3 PUSH1 0x2 SIGNEXTEND SGT ISZERO PUSH2 0x1F74 JUMPI PUSH1 0x40 MLOAD PUSH3 0x461BCD PUSH1 0xE5 SHL DUP2 MSTORE PUSH1 0x4 ADD PUSH2 0x542 SWAP1 PUSH2 0x3CD7 JUMP JUMPDEST PUSH2 0x1F7E DUP2 DUP5 PUSH2 0x3F9D JUMP JUMPDEST PUSH1 0x2 SIGNEXTEND ISZERO PUSH2 0x1F9E JUMPI PUSH1 0x40 MLOAD PUSH3 0x461BCD PUSH1 0xE5 SHL DUP2 MSTORE PUSH1 0x4 ADD PUSH2 0x542 SWAP1 PUSH2 0x391C JUMP JUMPDEST PUSH2 0x1FA8 DUP2 DUP4 PUSH2 0x3F9D JUMP JUMPDEST PUSH1 0x2 SIGNEXTEND ISZERO PUSH2 0x5DF JUMPI PUSH1 0x40 MLOAD PUSH3 0x461BCD PUSH1 0xE5 SHL DUP2 MSTORE PUSH1 0x4 ADD PUSH2 0x542 SWAP1 PUSH2 0x398A JUMP JUMPDEST PUSH1 0x0 DUP1 PUSH1 0x0 DUP1 PUSH1 0x0 DUP1 PUSH2 0x1FDC ADDRESS DUP10 DUP10 PUSH2 0x2736 JUMP JUMPDEST PUSH1 0x40 MLOAD PUSH4 0x514EA4BF PUSH1 0xE0 SHL DUP2 MSTORE SWAP1 SWAP2 POP PUSH1 0x1 PUSH1 0x1 PUSH1 0xA0 SHL SUB PUSH32 0x0 AND SWAP1 PUSH4 0x514EA4BF SWAP1 PUSH2 0x202B SWAP1 DUP5 SWAP1 PUSH1 0x4 ADD PUSH2 0x3756 JUMP JUMPDEST PUSH1 0xA0 PUSH1 0x40 MLOAD DUP1 DUP4 SUB DUP2 DUP7 DUP1 EXTCODESIZE ISZERO DUP1 ISZERO PUSH2 0x2043 JUMPI PUSH1 0x0 DUP1 REVERT JUMPDEST POP GAS STATICCALL ISZERO DUP1 ISZERO PUSH2 0x2057 JUMPI RETURNDATASIZE PUSH1 0x0 DUP1 RETURNDATACOPY RETURNDATASIZE PUSH1 0x0 REVERT JUMPDEST POP POP POP POP PUSH1 0x40 MLOAD RETURNDATASIZE PUSH1 0x1F NOT PUSH1 0x1F DUP3 ADD AND DUP3 ADD DUP1 PUSH1 0x40 MSTORE POP DUP2 ADD SWAP1 PUSH2 0x207B SWAP2 SWAP1 PUSH2 0x3423 JUMP JUMPDEST SWAP4 SWAP13 SWAP3 SWAP12 POP SWAP1 SWAP10 POP SWAP8 POP SWAP1 SWAP6 POP SWAP4 POP POP POP POP JUMP JUMPDEST PUSH1 0x0 DUP1 DUP1 DUP1 PUSH1 0x1 PUSH1 0x1 PUSH1 0x80 SHL SUB DUP6 AND ISZERO PUSH2 0x214A JUMPI PUSH1 0x40 MLOAD PUSH4 0xA34123A7 PUSH1 0xE0 SHL DUP2 MSTORE PUSH1 0x1 PUSH1 0x1 PUSH1 0xA0 SHL SUB PUSH32 0x0 AND SWAP1 PUSH4 0xA34123A7 SWAP1 PUSH2 0x20F3 SWAP1 DUP11 SWAP1 DUP11 SWAP1 DUP11 SWAP1 PUSH1 0x4 ADD PUSH2 0x376D JUMP JUMPDEST PUSH1 0x40 DUP1 MLOAD DUP1 DUP4 SUB DUP2 PUSH1 0x0 DUP8 DUP1 EXTCODESIZE ISZERO DUP1 ISZERO PUSH2 0x210C JUMPI PUSH1 0x0 DUP1 REVERT JUMPDEST POP GAS CALL ISZERO DUP1 ISZERO PUSH2 0x2120 JUMPI RETURNDATASIZE PUSH1 0x0 DUP1 RETURNDATACOPY RETURNDATASIZE PUSH1 0x0 REVERT JUMPDEST POP POP POP POP PUSH1 0x40 MLOAD RETURNDATASIZE PUSH1 0x1F NOT PUSH1 0x1F DUP3 ADD AND DUP3 ADD DUP1 PUSH1 0x40 MSTORE POP DUP2 ADD SWAP1 PUSH2 0x2144 SWAP2 SWAP1 PUSH2 0x32E2 JUMP JUMPDEST SWAP1 SWAP5 POP SWAP3 POP JUMPDEST PUSH1 0x0 DUP1 PUSH32 0x0 PUSH1 0x1 PUSH1 0x1 PUSH1 0xA0 SHL SUB AND PUSH4 0x4F1EB3D8 ADDRESS DUP12 DUP12 PUSH1 0x1 PUSH1 0x1 PUSH1 0x80 SHL SUB DUP1 PUSH1 0x40 MLOAD DUP7 PUSH4 0xFFFFFFFF AND PUSH1 0xE0 SHL DUP2 MSTORE PUSH1 0x4 ADD PUSH2 0x21A8 SWAP6 SWAP5 SWAP4 SWAP3 SWAP2 SWAP1 PUSH2 0x36F5 JUMP JUMPDEST PUSH1 0x40 DUP1 MLOAD DUP1 DUP4 SUB DUP2 PUSH1 0x0 DUP8 DUP1 EXTCODESIZE ISZERO DUP1 ISZERO PUSH2 0x21C1 JUMPI PUSH1 0x0 DUP1 REVERT JUMPDEST POP GAS CALL ISZERO DUP1 ISZERO PUSH2 0x21D5 JUMPI RETURNDATASIZE PUSH1 0x0 DUP1 RETURNDATACOPY RETURNDATASIZE PUSH1 0x0 REVERT JUMPDEST POP POP POP POP PUSH1 0x40 MLOAD RETURNDATASIZE PUSH1 0x1F NOT PUSH1 0x1F DUP3 ADD AND DUP3 ADD DUP1 PUSH1 0x40 MSTORE POP DUP2 ADD SWAP1 PUSH2 0x21F9 SWAP2 SWAP1 PUSH2 0x33F5 JUMP JUMPDEST PUSH1 0x1 PUSH1 0x1 PUSH1 0x80 SHL SUB SWAP2 DUP3 AND SWAP4 POP AND SWAP1 POP PUSH2 0x2213 DUP3 DUP8 PUSH2 0x197B JUMP JUMPDEST SWAP4 POP PUSH2 0x221F DUP2 DUP7 PUSH2 0x197B JUMP JUMPDEST PUSH1 0x6 SLOAD SWAP1 SWAP4 POP PUSH1 0x0 SWAP1 DUP2 SWAP1 DUP1 ISZERO PUSH2 0x2290 JUMPI PUSH2 0x2241 PUSH3 0xF4240 PUSH2 0x116B DUP10 DUP5 PUSH2 0x24C6 JUMP JUMPDEST SWAP3 POP PUSH2 0x2254 PUSH3 0xF4240 PUSH2 0x116B DUP9 DUP5 PUSH2 0x24C6 JUMP JUMPDEST SWAP2 POP PUSH2 0x2260 DUP8 DUP5 PUSH2 0x197B JUMP JUMPDEST SWAP7 POP PUSH2 0x226C DUP7 DUP4 PUSH2 0x197B JUMP JUMPDEST PUSH1 0xB SLOAD SWAP1 SWAP7 POP PUSH2 0x227C SWAP1 DUP5 PUSH2 0x24DE JUMP JUMPDEST PUSH1 0xB SSTORE PUSH1 0xC SLOAD PUSH2 0x228C SWAP1 DUP4 PUSH2 0x24DE JUMP JUMPDEST PUSH1 0xC SSTORE JUMPDEST PUSH32 0x1AC56D7E866E3F5EA9AA92AA11758EAD39A0A5F013F3FEFB0F47CB9D008EDD27 DUP8 DUP8 DUP6 DUP6 PUSH1 0x40 MLOAD PUSH2 0x22C5 SWAP5 SWAP4 SWAP3 SWAP2 SWAP1 PUSH2 0x3E83 JUMP JUMPDEST PUSH1 0x40 MLOAD DUP1 SWAP2 SUB SWAP1 LOG1 POP POP POP POP POP SWAP4 POP SWAP4 POP SWAP4 POP SWAP4 JUMP JUMPDEST PUSH1 0x0 DUP1 PUSH32 0x0 PUSH1 0x1 PUSH1 0x1 PUSH1 0xA0 SHL SUB AND PUSH4 0x3850C7BD PUSH1 0x40 MLOAD DUP2 PUSH4 0xFFFFFFFF AND PUSH1 0xE0 SHL DUP2 MSTORE PUSH1 0x4 ADD PUSH1 0xE0 PUSH1 0x40 MLOAD DUP1 DUP4 SUB DUP2 DUP7 DUP1 EXTCODESIZE ISZERO DUP1 ISZERO PUSH2 0x2337 JUMPI PUSH1 0x0 DUP1 REVERT JUMPDEST POP GAS STATICCALL ISZERO DUP1 ISZERO PUSH2 0x234B JUMPI RETURNDATASIZE PUSH1 0x0 DUP1 RETURNDATACOPY RETURNDATASIZE PUSH1 0x0 REVERT JUMPDEST POP POP POP POP PUSH1 0x40 MLOAD RETURNDATASIZE PUSH1 0x1F NOT PUSH1 0x1F DUP3 ADD AND DUP3 ADD DUP1 PUSH1 0x40 MSTORE POP DUP2 ADD SWAP1 PUSH2 0x236F SWAP2 SWAP1 PUSH2 0x3484 JUMP JUMPDEST POP POP POP POP POP POP SWAP1 POP PUSH2 0x2394 DUP2 PUSH2 0x2384 DUP9 PUSH2 0x276C JUMP JUMPDEST PUSH2 0x238D DUP9 PUSH2 0x276C JUMP JUMPDEST DUP8 DUP8 PUSH2 0x2B46 JUMP JUMPDEST SWAP7 SWAP6 POP POP POP POP POP POP JUMP JUMPDEST PUSH1 0x1 PUSH1 0x1 PUSH1 0x80 SHL SUB DUP2 AND ISZERO PUSH2 0x5DF JUMPI PUSH1 0x40 MLOAD PUSH4 0x3C8A7D8D PUSH1 0xE0 SHL DUP2 MSTORE PUSH1 0x1 PUSH1 0x1 PUSH1 0xA0 SHL SUB PUSH32 0x0 AND SWAP1 PUSH4 0x3C8A7D8D SWAP1 PUSH2 0x1C72 SWAP1 ADDRESS SWAP1 DUP8 SWAP1 DUP8 SWAP1 DUP8 SWAP1 PUSH1 0x4 ADD PUSH2 0x36B3 JUMP JUMPDEST PUSH1 0x0 DUP1 PUSH1 0x0 PUSH32 0x0 PUSH1 0x1 PUSH1 0x1 PUSH1 0xA0 SHL SUB AND PUSH4 0x3850C7BD PUSH1 0x40 MLOAD DUP2 PUSH4 0xFFFFFFFF AND PUSH1 0xE0 SHL DUP2 MSTORE PUSH1 0x4 ADD PUSH1 0xE0 PUSH1 0x40 MLOAD DUP1 DUP4 SUB DUP2 DUP7 DUP1 EXTCODESIZE ISZERO DUP1 ISZERO PUSH2 0x245D JUMPI PUSH1 0x0 DUP1 REVERT JUMPDEST POP GAS STATICCALL ISZERO DUP1 ISZERO PUSH2 0x2471 JUMPI RETURNDATASIZE PUSH1 0x0 DUP1 RETURNDATACOPY RETURNDATASIZE PUSH1 0x0 REVERT JUMPDEST POP POP POP POP PUSH1 0x40 MLOAD RETURNDATASIZE PUSH1 0x1F NOT PUSH1 0x1F DUP3 ADD AND DUP3 ADD DUP1 PUSH1 0x40 MSTORE POP DUP2 ADD SWAP1 PUSH2 0x2495 SWAP2 SWAP1 PUSH2 0x3484 JUMP JUMPDEST POP POP POP POP POP POP SWAP1 POP PUSH2 0x24B9 DUP2 PUSH2 0x24AA DUP9 PUSH2 0x276C JUMP JUMPDEST PUSH2 0x24B3 DUP9 PUSH2 0x276C JUMP JUMPDEST DUP8 PUSH2 0x2C0A JUMP JUMPDEST SWAP3 POP SWAP3 POP POP SWAP4 POP SWAP4 SWAP2 POP POP JUMP JUMPDEST PUSH1 0x0 PUSH2 0x76C DUP3 DUP5 PUSH2 0x3ED8 JUMP JUMPDEST PUSH1 0x0 PUSH2 0x76C DUP3 DUP5 PUSH2 0x3EC4 JUMP JUMPDEST PUSH1 0x0 PUSH2 0x76C DUP3 DUP5 PUSH2 0x3EAC JUMP JUMPDEST PUSH1 0x1 PUSH1 0x1 PUSH1 0xA0 SHL SUB DUP3 AND PUSH2 0x2510 JUMPI PUSH1 0x40 MLOAD PUSH3 0x461BCD PUSH1 0xE5 SHL DUP2 MSTORE PUSH1 0x4 ADD PUSH2 0x542 SWAP1 PUSH2 0x3B7D JUMP JUMPDEST PUSH2 0x251C DUP3 PUSH1 0x0 DUP4 PUSH2 0x5DF JUMP JUMPDEST PUSH1 0x1 PUSH1 0x1 PUSH1 0xA0 SHL SUB DUP3 AND PUSH1 0x0 SWAP1 DUP2 MSTORE PUSH1 0x20 DUP2 SWAP1 MSTORE PUSH1 0x40 SWAP1 KECCAK256 SLOAD DUP2 DUP2 LT ISZERO PUSH2 0x2555 JUMPI PUSH1 0x40 MLOAD PUSH3 0x461BCD PUSH1 0xE5 SHL DUP2 MSTORE PUSH1 0x4 ADD PUSH2 0x542 SWAP1 PUSH2 0x384D JUMP JUMPDEST PUSH1 0x1 PUSH1 0x1 PUSH1 0xA0 SHL SUB DUP4 AND PUSH1 0x0 SWAP1 DUP2 MSTORE PUSH1 0x20 DUP2 SWAP1 MSTORE PUSH1 0x40 DUP2 KECCAK256 DUP4 DUP4 SUB SWAP1 SSTORE PUSH1 0x2 DUP1 SLOAD DUP5 SWAP3 SWAP1 PUSH2 0x2584 SWAP1 DUP5 SWAP1 PUSH2 0x3F1F JUMP JUMPDEST SWAP1 SWAP2 SSTORE POP POP PUSH1 0x40 MLOAD PUSH1 0x0 SWAP1 PUSH1 0x1 PUSH1 0x1 PUSH1 0xA0 SHL SUB DUP6 AND SWAP1 PUSH32 0xDDF252AD1BE2C89B69C2B068FC378DAA952BA7F163C4A11628F55A4DF523B3EF SWAP1 PUSH2 0x25C7 SWAP1 DUP7 SWAP1 PUSH2 0x3756 JUMP JUMPDEST PUSH1 0x40 MLOAD DUP1 SWAP2 SUB SWAP1 LOG3 PUSH2 0x5DF DUP4 PUSH1 0x0 DUP5 PUSH2 0x5DF JUMP JUMPDEST PUSH1 0x0 DUP1 PUSH1 0x0 PUSH2 0x25EA DUP8 DUP8 PUSH2 0x1FC8 JUMP JUMPDEST POP POP POP POP SWAP1 POP PUSH1 0x0 PUSH2 0x2612 DUP6 PUSH2 0x116B DUP9 DUP6 PUSH1 0x1 PUSH1 0x1 PUSH1 0x80 SHL SUB AND PUSH2 0x24C6 SWAP1 SWAP2 SWAP1 PUSH4 0xFFFFFFFF AND JUMP JUMPDEST SWAP1 POP DUP1 ISZERO PUSH2 0x2676 JUMPI PUSH1 0x0 DUP1 PUSH1 0x0 DUP1 PUSH2 0x2633 DUP13 DUP13 PUSH2 0x262E DUP9 PUSH2 0x2CA6 JUMP JUMPDEST PUSH2 0x208F JUMP JUMPDEST SWAP3 SWAP7 POP SWAP1 SWAP5 POP SWAP3 POP SWAP1 POP PUSH2 0x2655 PUSH2 0x264E DUP11 PUSH2 0x116B DUP6 DUP15 PUSH2 0x24C6 JUMP JUMPDEST DUP6 SWAP1 PUSH2 0x24DE JUMP JUMPDEST SWAP8 POP PUSH2 0x266F PUSH2 0x2668 DUP11 PUSH2 0x116B DUP5 DUP15 PUSH2 0x24C6 JUMP JUMPDEST DUP5 SWAP1 PUSH2 0x24DE JUMP JUMPDEST SWAP7 POP POP POP POP POP JUMPDEST POP POP SWAP5 POP SWAP5 SWAP3 POP POP POP JUMP JUMPDEST PUSH1 0x0 PUSH2 0x26D6 DUP3 PUSH1 0x40 MLOAD DUP1 PUSH1 0x40 ADD PUSH1 0x40 MSTORE DUP1 PUSH1 0x20 DUP2 MSTORE PUSH1 0x20 ADD PUSH32 0x5361666545524332303A206C6F772D6C6576656C2063616C6C206661696C6564 DUP2 MSTORE POP DUP6 PUSH1 0x1 PUSH1 0x1 PUSH1 0xA0 SHL SUB AND PUSH2 0x2CD1 SWAP1 SWAP3 SWAP2 SWAP1 PUSH4 0xFFFFFFFF AND JUMP JUMPDEST DUP1 MLOAD SWAP1 SWAP2 POP ISZERO PUSH2 0x5DF JUMPI DUP1 DUP1 PUSH1 0x20 ADD SWAP1 MLOAD DUP2 ADD SWAP1 PUSH2 0x26F4 SWAP2 SWAP1 PUSH2 0x321B JUMP JUMPDEST PUSH2 0x5DF JUMPI PUSH1 0x40 MLOAD PUSH3 0x461BCD PUSH1 0xE5 SHL DUP2 MSTORE PUSH1 0x4 ADD PUSH2 0x542 SWAP1 PUSH2 0x3D62 JUMP JUMPDEST PUSH1 0x0 DUP2 DUP4 LT ISZERO PUSH2 0x2720 JUMPI DUP2 PUSH2 0x76C JUMP JUMPDEST POP SWAP1 SWAP2 SWAP1 POP JUMP JUMPDEST PUSH1 0x0 DUP2 DUP4 LT PUSH2 0x2720 JUMPI DUP2 PUSH2 0x76C JUMP JUMPDEST PUSH1 0x0 DUP4 DUP4 DUP4 PUSH1 0x40 MLOAD PUSH1 0x20 ADD PUSH2 0x274D SWAP4 SWAP3 SWAP2 SWAP1 PUSH2 0x35F0 JUMP JUMPDEST PUSH1 0x40 MLOAD PUSH1 0x20 DUP2 DUP4 SUB SUB DUP2 MSTORE SWAP1 PUSH1 0x40 MSTORE DUP1 MLOAD SWAP1 PUSH1 0x20 ADD KECCAK256 SWAP1 POP SWAP4 SWAP3 POP POP POP JUMP JUMPDEST PUSH1 0x0 DUP1 PUSH1 0x0 DUP4 PUSH1 0x2 SIGNEXTEND SLT PUSH2 0x2783 JUMPI DUP3 PUSH1 0x2 SIGNEXTEND PUSH2 0x2790 JUMP JUMPDEST DUP3 PUSH1 0x2 SIGNEXTEND PUSH2 0x2790 SWAP1 PUSH2 0x3FF4 JUMP JUMPDEST SWAP1 POP PUSH1 0x0 PUSH1 0x1 DUP3 AND PUSH2 0x27A6 JUMPI PUSH1 0x1 PUSH1 0x80 SHL PUSH2 0x27B8 JUMP JUMPDEST PUSH16 0xFFFCB933BD6FAD37AA2D162D1A594001 JUMPDEST PUSH17 0xFFFFFFFFFFFFFFFFFFFFFFFFFFFFFFFFFF AND SWAP1 POP PUSH1 0x2 DUP3 AND ISZERO PUSH2 0x27F7 JUMPI PUSH1 0x80 PUSH2 0x27F2 DUP3 PUSH16 0xFFF97272373D413259A46990580E213A PUSH2 0x3ED8 JUMP JUMPDEST SWAP1 SHR SWAP1 POP JUMPDEST PUSH1 0x4 DUP3 AND ISZERO PUSH2 0x2821 JUMPI PUSH1 0x80 PUSH2 0x281C DUP3 PUSH16 0xFFF2E50F5F656932EF12357CF3C7FDCC PUSH2 0x3ED8 JUMP JUMPDEST SWAP1 SHR SWAP1 POP JUMPDEST PUSH1 0x8 DUP3 AND ISZERO PUSH2 0x284B JUMPI PUSH1 0x80 PUSH2 0x2846 DUP3 PUSH16 0xFFE5CACA7E10E4E61C3624EAA0941CD0 PUSH2 0x3ED8 JUMP JUMPDEST SWAP1 SHR SWAP1 POP JUMPDEST PUSH1 0x10 DUP3 AND ISZERO PUSH2 0x2875 JUMPI PUSH1 0x80 PUSH2 0x2870 DUP3 PUSH16 0xFFCB9843D60F6159C9DB58835C926644 PUSH2 0x3ED8 JUMP JUMPDEST SWAP1 SHR SWAP1 POP JUMPDEST PUSH1 0x20 DUP3 AND ISZERO PUSH2 0x289F JUMPI PUSH1 0x80 PUSH2 0x289A DUP3 PUSH16 0xFF973B41FA98C081472E6896DFB254C0 PUSH2 0x3ED8 JUMP JUMPDEST SWAP1 SHR SWAP1 POP JUMPDEST PUSH1 0x40 DUP3 AND ISZERO PUSH2 0x28C9 JUMPI PUSH1 0x80 PUSH2 0x28C4 DUP3 PUSH16 0xFF2EA16466C96A3843EC78B326B52861 PUSH2 0x3ED8 JUMP JUMPDEST SWAP1 SHR SWAP1 POP JUMPDEST PUSH1 0x80 DUP3 AND ISZERO PUSH2 0x28F3 JUMPI PUSH1 0x80 PUSH2 0x28EE DUP3 PUSH16 0xFE5DEE046A99A2A811C461F1969C3053 PUSH2 0x3ED8 JUMP JUMPDEST SWAP1 SHR SWAP1 POP JUMPDEST PUSH2 0x100 DUP3 AND ISZERO PUSH2 0x291E JUMPI PUSH1 0x80 PUSH2 0x2919 DUP3 PUSH16 0xFCBE86C7900A88AEDCFFC83B479AA3A4 PUSH2 0x3ED8 JUMP JUMPDEST SWAP1 SHR SWAP1 POP JUMPDEST PUSH2 0x200 DUP3 AND ISZERO PUSH2 0x2949 JUMPI PUSH1 0x80 PUSH2 0x2944 DUP3 PUSH16 0xF987A7253AC413176F2B074CF7815E54 PUSH2 0x3ED8 JUMP JUMPDEST SWAP1 SHR SWAP1 POP JUMPDEST PUSH2 0x400 DUP3 AND ISZERO PUSH2 0x2974 JUMPI PUSH1 0x80 PUSH2 0x296F DUP3 PUSH16 0xF3392B0822B70005940C7A398E4B70F3 PUSH2 0x3ED8 JUMP JUMPDEST SWAP1 SHR SWAP1 POP JUMPDEST PUSH2 0x800 DUP3 AND ISZERO PUSH2 0x299F JUMPI PUSH1 0x80 PUSH2 0x299A DUP3 PUSH16 0xE7159475A2C29B7443B29C7FA6E889D9 PUSH2 0x3ED8 JUMP JUMPDEST SWAP1 SHR SWAP1 POP JUMPDEST PUSH2 0x1000 DUP3 AND ISZERO PUSH2 0x29CA JUMPI PUSH1 0x80 PUSH2 0x29C5 DUP3 PUSH16 0xD097F3BDFD2022B8845AD8F792AA5825 PUSH2 0x3ED8 JUMP JUMPDEST SWAP1 SHR SWAP1 POP JUMPDEST PUSH2 0x2000 DUP3 AND ISZERO PUSH2 0x29F5 JUMPI PUSH1 0x80 PUSH2 0x29F0 DUP3 PUSH16 0xA9F746462D870FDF8A65DC1F90E061E5 PUSH2 0x3ED8 JUMP JUMPDEST SWAP1 SHR SWAP1 POP JUMPDEST PUSH2 0x4000 DUP3 AND ISZERO PUSH2 0x2A20 JUMPI PUSH1 0x80 PUSH2 0x2A1B DUP3 PUSH16 0x70D869A156D2A1B890BB3DF62BAF32F7 PUSH2 0x3ED8 JUMP JUMPDEST SWAP1 SHR SWAP1 POP JUMPDEST PUSH2 0x8000 DUP3 AND ISZERO PUSH2 0x2A4B JUMPI PUSH1 0x80 PUSH2 0x2A46 DUP3 PUSH16 0x31BE135F97D08FD981231505542FCFA6 PUSH2 0x3ED8 JUMP JUMPDEST SWAP1 SHR SWAP1 POP JUMPDEST PUSH3 0x10000 DUP3 AND ISZERO PUSH2 0x2A77 JUMPI PUSH1 0x80 PUSH2 0x2A72 DUP3 PUSH16 0x9AA508B5B7A84E1C677DE54F3E99BC9 PUSH2 0x3ED8 JUMP JUMPDEST SWAP1 SHR SWAP1 POP JUMPDEST PUSH3 0x20000 DUP3 AND ISZERO PUSH2 0x2AA2 JUMPI PUSH1 0x80 PUSH2 0x2A9D DUP3 PUSH15 0x5D6AF8DEDB81196699C329225EE604 PUSH2 0x3ED8 JUMP JUMPDEST SWAP1 SHR SWAP1 POP JUMPDEST PUSH3 0x40000 DUP3 AND ISZERO PUSH2 0x2ACC JUMPI PUSH1 0x80 PUSH2 0x2AC7 DUP3 PUSH14 0x2216E584F5FA1EA926041BEDFE98 PUSH2 0x3ED8 JUMP JUMPDEST SWAP1 SHR SWAP1 POP JUMPDEST PUSH3 0x80000 DUP3 AND ISZERO PUSH2 0x2AF4 JUMPI PUSH1 0x80 PUSH2 0x2AEF DUP3 PUSH12 0x48A170391F7DC42444E8FA2 PUSH2 0x3ED8 JUMP JUMPDEST SWAP1 SHR SWAP1 POP JUMPDEST PUSH1 0x0 DUP5 PUSH1 0x2 SIGNEXTEND SGT ISZERO PUSH2 0x2B0F JUMPI PUSH2 0x2B0C DUP2 PUSH1 0x0 NOT PUSH2 0x3EC4 JUMP JUMPDEST SWAP1 POP JUMPDEST PUSH2 0x2B1E PUSH5 0x100000000 DUP3 PUSH2 0x3FBF JUMP JUMPDEST ISZERO PUSH2 0x2B2A JUMPI PUSH1 0x1 PUSH2 0x2B2D JUMP JUMPDEST PUSH1 0x0 JUMPDEST PUSH2 0x2B3E SWAP1 PUSH1 0xFF AND PUSH1 0x20 DUP4 SWAP1 SHR PUSH2 0x3EAC JUMP JUMPDEST SWAP5 SWAP4 POP POP POP POP JUMP JUMPDEST PUSH1 0x0 DUP4 PUSH1 0x1 PUSH1 0x1 PUSH1 0xA0 SHL SUB AND DUP6 PUSH1 0x1 PUSH1 0x1 PUSH1 0xA0 SHL SUB AND GT ISZERO PUSH2 0x2B66 JUMPI SWAP3 SWAP4 SWAP3 JUMPDEST DUP5 PUSH1 0x1 PUSH1 0x1 PUSH1 0xA0 SHL SUB AND DUP7 PUSH1 0x1 PUSH1 0x1 PUSH1 0xA0 SHL SUB AND GT PUSH2 0x2B91 JUMPI PUSH2 0x2B8A DUP6 DUP6 DUP6 PUSH2 0x2CE0 JUMP JUMPDEST SWAP1 POP PUSH2 0x2C01 JUMP JUMPDEST DUP4 PUSH1 0x1 PUSH1 0x1 PUSH1 0xA0 SHL SUB AND DUP7 PUSH1 0x1 PUSH1 0x1 PUSH1 0xA0 SHL SUB AND LT ISZERO PUSH2 0x2BF3 JUMPI PUSH1 0x0 PUSH2 0x2BB8 DUP8 DUP7 DUP7 PUSH2 0x2CE0 JUMP JUMPDEST SWAP1 POP PUSH1 0x0 PUSH2 0x2BC7 DUP8 DUP10 DUP7 PUSH2 0x2D4A JUMP JUMPDEST SWAP1 POP DUP1 PUSH1 0x1 PUSH1 0x1 PUSH1 0x80 SHL SUB AND DUP3 PUSH1 0x1 PUSH1 0x1 PUSH1 0x80 SHL SUB AND LT PUSH2 0x2BE8 JUMPI DUP1 PUSH2 0x2BEA JUMP JUMPDEST DUP2 JUMPDEST SWAP3 POP POP POP PUSH2 0x2C01 JUMP JUMPDEST PUSH2 0x2BFE DUP6 DUP6 DUP5 PUSH2 0x2D4A JUMP JUMPDEST SWAP1 POP JUMPDEST SWAP6 SWAP5 POP POP POP POP POP JUMP JUMPDEST PUSH1 0x0 DUP1 DUP4 PUSH1 0x1 PUSH1 0x1 PUSH1 0xA0 SHL SUB AND DUP6 PUSH1 0x1 PUSH1 0x1 PUSH1 0xA0 SHL SUB AND GT ISZERO PUSH2 0x2C2B JUMPI SWAP3 SWAP4 SWAP3 JUMPDEST DUP5 PUSH1 0x1 PUSH1 0x1 PUSH1 0xA0 SHL SUB AND DUP7 PUSH1 0x1 PUSH1 0x1 PUSH1 0xA0 SHL SUB AND GT PUSH2 0x2C56 JUMPI PUSH2 0x2C4F DUP6 DUP6 DUP6 PUSH2 0x2D80 JUMP JUMPDEST SWAP2 POP PUSH2 0x2C9D JUMP JUMPDEST DUP4 PUSH1 0x1 PUSH1 0x1 PUSH1 0xA0 SHL SUB AND DUP7 PUSH1 0x1 PUSH1 0x1 PUSH1 0xA0 SHL SUB AND LT ISZERO PUSH2 0x2C8F JUMPI PUSH2 0x2C7B DUP7 DUP6 DUP6 PUSH2 0x2D80 JUMP JUMPDEST SWAP2 POP PUSH2 0x2C88 DUP6 DUP8 DUP6 PUSH2 0x2DF3 JUMP JUMPDEST SWAP1 POP PUSH2 0x2C9D JUMP JUMPDEST PUSH2 0x2C9A DUP6 DUP6 DUP6 PUSH2 0x2DF3 JUMP JUMPDEST SWAP1 POP JUMPDEST SWAP5 POP SWAP5 SWAP3 POP POP POP JUMP JUMPDEST PUSH1 0x0 PUSH1 0x1 PUSH1 0x1 PUSH1 0x80 SHL SUB DUP3 GT ISZERO PUSH2 0x2CCD JUMPI PUSH4 0x4E487B71 PUSH1 0xE0 SHL PUSH1 0x0 MSTORE PUSH1 0x1 PUSH1 0x4 MSTORE PUSH1 0x24 PUSH1 0x0 REVERT JUMPDEST POP SWAP1 JUMP JUMPDEST PUSH1 0x60 PUSH2 0x2B3E DUP5 DUP5 PUSH1 0x0 DUP6 PUSH2 0x2E3D JUMP JUMPDEST PUSH1 0x0 DUP3 PUSH1 0x1 PUSH1 0x1 PUSH1 0xA0 SHL SUB AND DUP5 PUSH1 0x1 PUSH1 0x1 PUSH1 0xA0 SHL SUB AND GT ISZERO PUSH2 0x2D00 JUMPI SWAP2 SWAP3 SWAP2 JUMPDEST PUSH1 0x0 PUSH2 0x2D23 DUP6 PUSH1 0x1 PUSH1 0x1 PUSH1 0xA0 SHL SUB AND DUP6 PUSH1 0x1 PUSH1 0x1 PUSH1 0xA0 SHL SUB AND PUSH1 0x1 PUSH1 0x60 SHL PUSH2 0x2EFD JUMP JUMPDEST SWAP1 POP PUSH2 0x2C01 PUSH2 0x2D45 DUP5 DUP4 PUSH2 0x2D37 DUP10 DUP10 PUSH2 0x3EF7 JUMP JUMPDEST PUSH1 0x1 PUSH1 0x1 PUSH1 0xA0 SHL SUB AND PUSH2 0x2EFD JUMP JUMPDEST PUSH2 0x3073 JUMP JUMPDEST PUSH1 0x0 DUP3 PUSH1 0x1 PUSH1 0x1 PUSH1 0xA0 SHL SUB AND DUP5 PUSH1 0x1 PUSH1 0x1 PUSH1 0xA0 SHL SUB AND GT ISZERO PUSH2 0x2D6A JUMPI SWAP2 SWAP3 SWAP2 JUMPDEST PUSH2 0x2B3E PUSH2 0x2D45 DUP4 PUSH1 0x1 PUSH1 0x60 SHL PUSH2 0x2D37 DUP9 DUP9 PUSH2 0x3EF7 JUMP JUMPDEST PUSH1 0x0 DUP3 PUSH1 0x1 PUSH1 0x1 PUSH1 0xA0 SHL SUB AND DUP5 PUSH1 0x1 PUSH1 0x1 PUSH1 0xA0 SHL SUB AND GT ISZERO PUSH2 0x2DA0 JUMPI SWAP2 SWAP3 SWAP2 JUMPDEST PUSH1 0x1 PUSH1 0x1 PUSH1 0xA0 SHL SUB DUP5 AND PUSH2 0x2DE9 PUSH16 0xFFFFFFFFFFFFFFFFFFFFFFFFFFFFFFFF PUSH1 0x60 SHL PUSH1 0x60 DUP6 SWAP1 SHL AND PUSH2 0x2DD1 DUP8 DUP8 PUSH2 0x3EF7 JUMP JUMPDEST PUSH1 0x1 PUSH1 0x1 PUSH1 0xA0 SHL SUB AND DUP7 PUSH1 0x1 PUSH1 0x1 PUSH1 0xA0 SHL SUB AND PUSH2 0x2EFD JUMP JUMPDEST PUSH2 0x2B3E SWAP2 SWAP1 PUSH2 0x3EC4 JUMP JUMPDEST PUSH1 0x0 DUP3 PUSH1 0x1 PUSH1 0x1 PUSH1 0xA0 SHL SUB AND DUP5 PUSH1 0x1 PUSH1 0x1 PUSH1 0xA0 SHL SUB AND GT ISZERO PUSH2 0x2E13 JUMPI SWAP2 SWAP3 SWAP2 JUMPDEST PUSH2 0x2B3E PUSH1 0x1 PUSH1 0x1 PUSH1 0x80 SHL SUB DUP4 AND PUSH2 0x2E2A DUP7 DUP7 PUSH2 0x3EF7 JUMP JUMPDEST PUSH1 0x1 PUSH1 0x1 PUSH1 0xA0 SHL SUB AND PUSH1 0x1 PUSH1 0x60 SHL PUSH2 0x2EFD JUMP JUMPDEST PUSH1 0x60 DUP3 SELFBALANCE LT ISZERO PUSH2 0x2E5F JUMPI PUSH1 0x40 MLOAD PUSH3 0x461BCD PUSH1 0xE5 SHL DUP2 MSTORE PUSH1 0x4 ADD PUSH2 0x542 SWAP1 PUSH2 0x3A29 JUMP JUMPDEST PUSH2 0x2E68 DUP6 PUSH2 0x3089 JUMP JUMPDEST PUSH2 0x2E84 JUMPI PUSH1 0x40 MLOAD PUSH3 0x461BCD PUSH1 0xE5 SHL DUP2 MSTORE PUSH1 0x4 ADD PUSH2 0x542 SWAP1 PUSH2 0x3D03 JUMP JUMPDEST PUSH1 0x0 DUP1 DUP7 PUSH1 0x1 PUSH1 0x1 PUSH1 0xA0 SHL SUB AND DUP6 DUP8 PUSH1 0x40 MLOAD PUSH2 0x2EA0 SWAP2 SWAP1 PUSH2 0x3625 JUMP JUMPDEST PUSH1 0x0 PUSH1 0x40 MLOAD DUP1 DUP4 SUB DUP2 DUP6 DUP8 GAS CALL SWAP3 POP POP POP RETURNDATASIZE DUP1 PUSH1 0x0 DUP2 EQ PUSH2 0x2EDD JUMPI PUSH1 0x40 MLOAD SWAP2 POP PUSH1 0x1F NOT PUSH1 0x3F RETURNDATASIZE ADD AND DUP3 ADD PUSH1 0x40 MSTORE RETURNDATASIZE DUP3 MSTORE RETURNDATASIZE PUSH1 0x0 PUSH1 0x20 DUP5 ADD RETURNDATACOPY PUSH2 0x2EE2 JUMP JUMPDEST PUSH1 0x60 SWAP2 POP JUMPDEST POP SWAP2 POP SWAP2 POP PUSH2 0x2EF2 DUP3 DUP3 DUP7 PUSH2 0x30BA JUMP JUMPDEST SWAP8 SWAP7 POP POP POP POP POP POP POP JUMP JUMPDEST PUSH1 0x0 DUP1 DUP1 PUSH1 0x0 NOT DUP6 DUP8 MULMOD DUP7 DUP7 MUL SWAP3 POP DUP3 DUP2 LT SWAP1 DUP4 SWAP1 SUB SUB SWAP1 POP DUP1 PUSH2 0x2F33 JUMPI PUSH1 0x0 DUP5 GT PUSH2 0x2F28 JUMPI PUSH1 0x0 DUP1 REVERT JUMPDEST POP DUP3 SWAP1 DIV SWAP1 POP PUSH2 0x76C JUMP JUMPDEST DUP1 DUP5 GT PUSH2 0x2F3F JUMPI PUSH1 0x0 DUP1 REVERT JUMPDEST PUSH1 0x0 DUP5 DUP7 DUP9 MULMOD DUP1 DUP5 SUB SWAP4 DUP2 GT SWAP1 SWAP3 SUB SWAP2 SWAP1 POP PUSH1 0x0 PUSH2 0x2F5F DUP7 NOT PUSH1 0x1 PUSH2 0x3EAC JUMP JUMPDEST DUP7 AND SWAP6 DUP7 SWAP1 DIV SWAP6 SWAP4 DUP5 SWAP1 DIV SWAP4 PUSH1 0x0 DUP2 SWAP1 SUB DIV PUSH1 0x1 ADD SWAP1 POP PUSH2 0x2F80 DUP2 DUP5 PUSH2 0x3ED8 JUMP JUMPDEST SWAP1 SWAP4 OR SWAP3 PUSH1 0x0 PUSH2 0x2F91 DUP8 PUSH1 0x3 PUSH2 0x3ED8 JUMP JUMPDEST PUSH1 0x2 XOR SWAP1 POP PUSH2 0x2FA0 DUP2 DUP9 PUSH2 0x3ED8 JUMP JUMPDEST PUSH2 0x2FAB SWAP1 PUSH1 0x2 PUSH2 0x3F1F JUMP JUMPDEST PUSH2 0x2FB5 SWAP1 DUP3 PUSH2 0x3ED8 JUMP JUMPDEST SWAP1 POP PUSH2 0x2FC1 DUP2 DUP9 PUSH2 0x3ED8 JUMP JUMPDEST PUSH2 0x2FCC SWAP1 PUSH1 0x2 PUSH2 0x3F1F JUMP JUMPDEST PUSH2 0x2FD6 SWAP1 DUP3 PUSH2 0x3ED8 JUMP JUMPDEST SWAP1 POP PUSH2 0x2FE2 DUP2 DUP9 PUSH2 0x3ED8 JUMP JUMPDEST PUSH2 0x2FED SWAP1 PUSH1 0x2 PUSH2 0x3F1F JUMP JUMPDEST PUSH2 0x2FF7 SWAP1 DUP3 PUSH2 0x3ED8 JUMP JUMPDEST SWAP1 POP PUSH2 0x3003 DUP2 DUP9 PUSH2 0x3ED8 JUMP JUMPDEST PUSH2 0x300E SWAP1 PUSH1 0x2 PUSH2 0x3F1F JUMP JUMPDEST PUSH2 0x3018 SWAP1 DUP3 PUSH2 0x3ED8 JUMP JUMPDEST SWAP1 POP PUSH2 0x3024 DUP2 DUP9 PUSH2 0x3ED8 JUMP JUMPDEST PUSH2 0x302F SWAP1 PUSH1 0x2 PUSH2 0x3F1F JUMP JUMPDEST PUSH2 0x3039 SWAP1 DUP3 PUSH2 0x3ED8 JUMP JUMPDEST SWAP1 POP PUSH2 0x3045 DUP2 DUP9 PUSH2 0x3ED8 JUMP JUMPDEST PUSH2 0x3050 SWAP1 PUSH1 0x2 PUSH2 0x3F1F JUMP JUMPDEST PUSH2 0x305A SWAP1 DUP3 PUSH2 0x3ED8 JUMP JUMPDEST SWAP1 POP PUSH2 0x3066 DUP2 DUP7 PUSH2 0x3ED8 JUMP JUMPDEST SWAP10 SWAP9 POP POP POP POP POP POP POP POP POP JUMP JUMPDEST DUP1 PUSH1 0x1 PUSH1 0x1 PUSH1 0x80 SHL SUB DUP2 AND DUP2 EQ PUSH2 0xB86 JUMPI PUSH1 0x0 DUP1 REVERT JUMPDEST PUSH1 0x0 DUP1 DUP3 PUSH1 0x1 PUSH1 0x1 PUSH1 0xA0 SHL SUB AND DUP1 EXTCODESIZE DUP1 PUSH1 0x20 ADD PUSH1 0x40 MLOAD SWAP1 DUP2 ADD PUSH1 0x40 MSTORE DUP2 DUP2 MSTORE PUSH1 0x0 SWAP1 DUP1 PUSH1 0x20 ADD SWAP1 SWAP4 EXTCODECOPY MLOAD GT SWAP3 SWAP2 POP POP JUMP JUMPDEST PUSH1 0x60 DUP4 ISZERO PUSH2 0x30C9 JUMPI POP DUP2 PUSH2 0x76C JUMP JUMPDEST DUP3 MLOAD ISZERO PUSH2 0x30D9 JUMPI DUP3 MLOAD DUP1 DUP5 PUSH1 0x20 ADD REVERT JUMPDEST DUP2 PUSH1 0x40 MLOAD PUSH3 0x461BCD PUSH1 0xE5 SHL DUP2 MSTORE PUSH1 0x4 ADD PUSH2 0x542 SWAP2 SWAP1 PUSH2 0x37B3 JUMP JUMPDEST DUP1 MLOAD DUP1 ISZERO ISZERO DUP2 EQ PUSH2 0xB86 JUMPI PUSH1 0x0 DUP1 REVERT JUMPDEST PUSH1 0x0 DUP1 DUP4 PUSH1 0x1F DUP5 ADD SLT PUSH2 0x3114 JUMPI DUP2 DUP3 REVERT JUMPDEST POP DUP2 CALLDATALOAD PUSH8 0xFFFFFFFFFFFFFFFF DUP2 GT ISZERO PUSH2 0x312B JUMPI DUP2 DUP3 REVERT JUMPDEST PUSH1 0x20 DUP4 ADD SWAP2 POP DUP4 PUSH1 0x20 DUP3 DUP6 ADD ADD GT ISZERO PUSH2 0x3143 JUMPI PUSH1 0x0 DUP1 REVERT JUMPDEST SWAP3 POP SWAP3 SWAP1 POP JUMP JUMPDEST DUP1 MLOAD PUSH2 0xFFFF DUP2 AND DUP2 EQ PUSH2 0xB86 JUMPI PUSH1 0x0 DUP1 REVERT JUMPDEST PUSH1 0x0 PUSH1 0x20 DUP3 DUP5 SUB SLT ISZERO PUSH2 0x316D JUMPI DUP1 DUP2 REVERT JUMPDEST DUP2 CALLDATALOAD PUSH2 0x76C DUP2 PUSH2 0x403A JUMP JUMPDEST PUSH1 0x0 DUP1 PUSH1 0x40 DUP4 DUP6 SUB SLT ISZERO PUSH2 0x318A JUMPI DUP1 DUP2 REVERT JUMPDEST DUP3 CALLDATALOAD PUSH2 0x3195 DUP2 PUSH2 0x403A JUMP JUMPDEST SWAP2 POP PUSH1 0x20 DUP4 ADD CALLDATALOAD PUSH2 0x31A5 DUP2 PUSH2 0x403A JUMP JUMPDEST DUP1 SWAP2 POP POP SWAP3 POP SWAP3 SWAP1 POP JUMP JUMPDEST PUSH1 0x0 DUP1 PUSH1 0x0 PUSH1 0x60 DUP5 DUP7 SUB SLT ISZERO PUSH2 0x31C4 JUMPI DUP1 DUP2 REVERT JUMPDEST DUP4 CALLDATALOAD PUSH2 0x31CF DUP2 PUSH2 0x403A JUMP JUMPDEST SWAP3 POP PUSH1 0x20 DUP5 ADD CALLDATALOAD PUSH2 0x31DF DUP2 PUSH2 0x403A JUMP JUMPDEST SWAP3 SWAP6 SWAP3 SWAP5 POP POP POP PUSH1 0x40 SWAP2 SWAP1 SWAP2 ADD CALLDATALOAD SWAP1 JUMP JUMPDEST PUSH1 0x0 DUP1 PUSH1 0x40 DUP4 DUP6 SUB SLT ISZERO PUSH2 0x3202 JUMPI DUP2 DUP3 REVERT JUMPDEST DUP3 CALLDATALOAD PUSH2 0x320D DUP2 PUSH2 0x403A JUMP JUMPDEST SWAP5 PUSH1 0x20 SWAP4 SWAP1 SWAP4 ADD CALLDATALOAD SWAP4 POP POP POP JUMP JUMPDEST PUSH1 0x0 PUSH1 0x20 DUP3 DUP5 SUB SLT ISZERO PUSH2 0x322C JUMPI DUP1 DUP2 REVERT JUMPDEST PUSH2 0x76C DUP3 PUSH2 0x30F3 JUMP JUMPDEST PUSH1 0x0 DUP1 PUSH1 0x0 PUSH1 0x60 DUP5 DUP7 SUB SLT ISZERO PUSH2 0x3249 JUMPI DUP3 DUP4 REVERT JUMPDEST DUP4 CALLDATALOAD PUSH2 0x3254 DUP2 PUSH2 0x403A JUMP JUMPDEST SWAP3 POP PUSH1 0x20 DUP5 ADD CALLDATALOAD SWAP2 POP PUSH1 0x40 DUP5 ADD CALLDATALOAD PUSH2 0x326B DUP2 PUSH2 0x403A JUMP JUMPDEST DUP1 SWAP2 POP POP SWAP3 POP SWAP3 POP SWAP3 JUMP JUMPDEST PUSH1 0x0 DUP1 PUSH1 0x40 DUP4 DUP6 SUB SLT ISZERO PUSH2 0x3288 JUMPI DUP2 DUP3 REVERT JUMPDEST DUP3 CALLDATALOAD PUSH2 0x3293 DUP2 PUSH2 0x4052 JUMP JUMPDEST SWAP2 POP PUSH1 0x20 DUP4 ADD CALLDATALOAD PUSH2 0x31A5 DUP2 PUSH2 0x4052 JUMP JUMPDEST PUSH1 0x0 DUP1 PUSH1 0x0 PUSH1 0x60 DUP5 DUP7 SUB SLT ISZERO PUSH2 0x32B7 JUMPI DUP3 DUP4 REVERT JUMPDEST DUP4 CALLDATALOAD PUSH2 0x32C2 DUP2 PUSH2 0x4052 JUMP JUMPDEST SWAP3 POP PUSH1 0x20 DUP5 ADD CALLDATALOAD PUSH2 0x32D2 DUP2 PUSH2 0x4052 JUMP JUMPDEST SWAP2 POP PUSH1 0x40 DUP5 ADD CALLDATALOAD PUSH2 0x326B DUP2 PUSH2 0x4061 JUMP JUMPDEST PUSH1 0x0 DUP1 PUSH1 0x40 DUP4 DUP6 SUB SLT ISZERO PUSH2 0x32F4 JUMPI DUP2 DUP3 REVERT JUMPDEST POP POP DUP1 MLOAD PUSH1 0x20 SWAP1 SWAP2 ADD MLOAD SWAP1 SWAP3 SWAP1 SWAP2 POP JUMP JUMPDEST PUSH1 0x0 DUP1 PUSH1 0x0 DUP1 PUSH1 0x60 DUP6 DUP8 SUB SLT ISZERO PUSH2 0x331A JUMPI DUP2 DUP3 REVERT JUMPDEST DUP5 CALLDATALOAD SWAP4 POP PUSH1 0x20 DUP6 ADD CALLDATALOAD SWAP3 POP PUSH1 0x40 DUP6 ADD CALLDATALOAD PUSH8 0xFFFFFFFFFFFFFFFF DUP2 GT ISZERO PUSH2 0x333E JUMPI DUP3 DUP4 REVERT JUMPDEST PUSH2 0x334A DUP8 DUP3 DUP9 ADD PUSH2 0x3103 JUMP JUMPDEST SWAP6 SWAP9 SWAP5 SWAP8 POP SWAP6 POP POP POP POP JUMP JUMPDEST PUSH1 0x0 DUP1 PUSH1 0x0 DUP1 PUSH1 0x0 DUP1 PUSH1 0x0 DUP1 PUSH2 0x100 DUP10 DUP12 SUB SLT ISZERO PUSH2 0x3372 JUMPI DUP6 DUP7 REVERT JUMPDEST DUP9 CALLDATALOAD SWAP8 POP PUSH1 0x20 DUP10 ADD CALLDATALOAD PUSH2 0x3384 DUP2 PUSH2 0x403A JUMP JUMPDEST SWAP7 POP PUSH1 0x40 DUP10 ADD CALLDATALOAD PUSH2 0x3394 DUP2 PUSH2 0x4052 JUMP JUMPDEST SWAP6 POP PUSH1 0x60 DUP10 ADD CALLDATALOAD PUSH2 0x33A4 DUP2 PUSH2 0x4052 JUMP JUMPDEST SWAP5 POP PUSH1 0x80 DUP10 ADD CALLDATALOAD PUSH2 0x33B4 DUP2 PUSH2 0x4052 JUMP JUMPDEST SWAP4 POP PUSH1 0xA0 DUP10 ADD CALLDATALOAD PUSH2 0x33C4 DUP2 PUSH2 0x4052 JUMP JUMPDEST SWAP3 POP PUSH1 0xC0 DUP10 ADD CALLDATALOAD PUSH2 0x33D4 DUP2 PUSH2 0x4052 JUMP JUMPDEST SWAP2 POP PUSH1 0xE0 DUP10 ADD CALLDATALOAD PUSH2 0x33E4 DUP2 PUSH2 0x4052 JUMP JUMPDEST DUP1 SWAP2 POP POP SWAP3 SWAP6 SWAP9 POP SWAP3 SWAP6 SWAP9 SWAP1 SWAP4 SWAP7 POP JUMP JUMPDEST PUSH1 0x0 DUP1 PUSH1 0x40 DUP4 DUP6 SUB SLT ISZERO PUSH2 0x3407 JUMPI DUP2 DUP3 REVERT JUMPDEST DUP3 MLOAD PUSH2 0x3412 DUP2 PUSH2 0x4061 JUMP JUMPDEST PUSH1 0x20 DUP5 ADD MLOAD SWAP1 SWAP3 POP PUSH2 0x31A5 DUP2 PUSH2 0x4061 JUMP JUMPDEST PUSH1 0x0 DUP1 PUSH1 0x0 DUP1 PUSH1 0x0 PUSH1 0xA0 DUP7 DUP9 SUB SLT ISZERO PUSH2 0x343A JUMPI DUP3 DUP4 REVERT JUMPDEST DUP6 MLOAD PUSH2 0x3445 DUP2 PUSH2 0x4061 JUMP JUMPDEST DUP1 SWAP6 POP POP PUSH1 0x20 DUP7 ADD MLOAD SWAP4 POP PUSH1 0x40 DUP7 ADD MLOAD SWAP3 POP PUSH1 0x60 DUP7 ADD MLOAD PUSH2 0x3465 DUP2 PUSH2 0x4061 JUMP JUMPDEST PUSH1 0x80 DUP8 ADD MLOAD SWAP1 SWAP3 POP PUSH2 0x3476 DUP2 PUSH2 0x4061 JUMP JUMPDEST DUP1 SWAP2 POP POP SWAP3 SWAP6 POP SWAP3 SWAP6 SWAP1 SWAP4 POP JUMP JUMPDEST PUSH1 0x0 DUP1 PUSH1 0x0 DUP1 PUSH1 0x0 DUP1 PUSH1 0x0 PUSH1 0xE0 DUP9 DUP11 SUB SLT ISZERO PUSH2 0x349E JUMPI DUP1 DUP2 REVERT JUMPDEST DUP8 MLOAD PUSH2 0x34A9 DUP2 PUSH2 0x403A JUMP JUMPDEST PUSH1 0x20 DUP10 ADD MLOAD SWAP1 SWAP8 POP PUSH2 0x34BA DUP2 PUSH2 0x4052 JUMP JUMPDEST SWAP6 POP PUSH2 0x34C8 PUSH1 0x40 DUP10 ADD PUSH2 0x314A JUMP JUMPDEST SWAP5 POP PUSH2 0x34D6 PUSH1 0x60 DUP10 ADD PUSH2 0x314A JUMP JUMPDEST SWAP4 POP PUSH2 0x34E4 PUSH1 0x80 DUP10 ADD PUSH2 0x314A JUMP JUMPDEST SWAP3 POP PUSH1 0xA0 DUP9 ADD MLOAD PUSH1 0xFF DUP2 AND DUP2 EQ PUSH2 0x34F9 JUMPI DUP2 DUP3 REVERT JUMPDEST SWAP2 POP PUSH2 0x3507 PUSH1 0xC0 DUP10 ADD PUSH2 0x30F3 JUMP JUMPDEST SWAP1 POP SWAP3 SWAP6 SWAP9 SWAP2 SWAP5 SWAP8 POP SWAP3 SWAP6 POP JUMP JUMPDEST PUSH1 0x0 PUSH1 0x20 DUP3 DUP5 SUB SLT ISZERO PUSH2 0x3526 JUMPI DUP1 DUP2 REVERT JUMPDEST POP CALLDATALOAD SWAP2 SWAP1 POP JUMP JUMPDEST PUSH1 0x0 PUSH1 0x20 DUP3 DUP5 SUB SLT ISZERO PUSH2 0x353E JUMPI DUP1 DUP2 REVERT JUMPDEST POP MLOAD SWAP2 SWAP1 POP JUMP JUMPDEST PUSH1 0x0 DUP1 PUSH1 0x0 PUSH1 0x60 DUP5 DUP7 SUB SLT ISZERO PUSH2 0x3559 JUMPI DUP1 DUP2 REVERT JUMPDEST DUP4 CALLDATALOAD SWAP3 POP PUSH1 0x20 DUP5 ADD CALLDATALOAD SWAP2 POP PUSH1 0x40 DUP5 ADD CALLDATALOAD PUSH2 0x326B DUP2 PUSH2 0x403A JUMP JUMPDEST PUSH1 0x0 DUP1 PUSH1 0x0 DUP1 PUSH1 0x80 DUP6 DUP8 SUB SLT ISZERO PUSH2 0x3587 JUMPI DUP2 DUP3 REVERT JUMPDEST DUP5 CALLDATALOAD SWAP4 POP PUSH1 0x20 DUP6 ADD CALLDATALOAD SWAP3 POP PUSH1 0x40 DUP6 ADD CALLDATALOAD SWAP2 POP PUSH1 0x60 DUP6 ADD CALLDATALOAD PUSH2 0x35A7 DUP2 PUSH2 0x403A JUMP JUMPDEST SWAP4 SWAP7 SWAP3 SWAP6 POP SWAP1 SWAP4 POP POP JUMP JUMPDEST PUSH1 0x0 DUP1 PUSH1 0x0 DUP1 PUSH1 0x0 PUSH1 0xA0 DUP7 DUP9 SUB SLT ISZERO PUSH2 0x35C9 JUMPI DUP3 DUP4 REVERT JUMPDEST DUP6 CALLDATALOAD SWAP5 POP PUSH1 0x20 DUP7 ADD CALLDATALOAD SWAP4 POP PUSH1 0x40 DUP7 ADD CALLDATALOAD SWAP3 POP PUSH1 0x60 DUP7 ADD CALLDATALOAD SWAP2 POP PUSH1 0x80 DUP7 ADD CALLDATALOAD PUSH2 0x3476 DUP2 PUSH2 0x403A JUMP JUMPDEST PUSH1 0x60 SWAP4 SWAP1 SWAP4 SHL PUSH12 0xFFFFFFFFFFFFFFFFFFFFFFFF NOT AND DUP4 MSTORE PUSH1 0x2 SWAP2 DUP3 SIGNEXTEND PUSH1 0xE8 SWAP1 DUP2 SHL PUSH1 0x14 DUP6 ADD MSTORE SWAP2 SIGNEXTEND SWAP1 SHL PUSH1 0x17 DUP3 ADD MSTORE PUSH1 0x1A ADD SWAP1 JUMP JUMPDEST PUSH1 0x0 DUP3 MLOAD PUSH2 0x3637 DUP2 DUP5 PUSH1 0x20 DUP8 ADD PUSH2 0x3F36 JUMP JUMPDEST SWAP2 SWAP1 SWAP2 ADD SWAP3 SWAP2 POP POP JUMP JUMPDEST PUSH1 0x1 PUSH1 0x1 PUSH1 0xA0 SHL SUB SWAP2 SWAP1 SWAP2 AND DUP2 MSTORE PUSH1 0x20 ADD SWAP1 JUMP JUMPDEST PUSH1 0x1 PUSH1 0x1 PUSH1 0xA0 SHL SUB SWAP4 DUP5 AND DUP2 MSTORE SWAP2 SWAP1 SWAP3 AND PUSH1 0x20 DUP3 ADD MSTORE PUSH1 0x40 DUP2 ADD SWAP2 SWAP1 SWAP2 MSTORE PUSH1 0x60 ADD SWAP1 JUMP JUMPDEST PUSH1 0x1 PUSH1 0x1 PUSH1 0xA0 SHL SUB SWAP5 DUP6 AND DUP2 MSTORE SWAP3 ISZERO ISZERO PUSH1 0x20 DUP5 ADD MSTORE PUSH1 0x40 DUP4 ADD SWAP2 SWAP1 SWAP2 MSTORE SWAP1 SWAP2 AND PUSH1 0x60 DUP3 ADD MSTORE PUSH1 0xA0 PUSH1 0x80 DUP3 ADD DUP2 SWAP1 MSTORE PUSH1 0x0 SWAP1 DUP3 ADD MSTORE PUSH1 0xC0 ADD SWAP1 JUMP JUMPDEST PUSH1 0x1 PUSH1 0x1 PUSH1 0xA0 SHL SUB SWAP5 SWAP1 SWAP5 AND DUP5 MSTORE PUSH1 0x2 SWAP3 DUP4 SIGNEXTEND PUSH1 0x20 DUP6 ADD MSTORE SWAP2 SIGNEXTEND PUSH1 0x40 DUP4 ADD MSTORE PUSH1 0x1 PUSH1 0x1 PUSH1 0x80 SHL SUB AND PUSH1 0x60 DUP3 ADD MSTORE PUSH1 0xA0 PUSH1 0x80 DUP3 ADD DUP2 SWAP1 MSTORE PUSH1 0x0 SWAP1 DUP3 ADD MSTORE PUSH1 0xC0 ADD SWAP1 JUMP JUMPDEST PUSH1 0x1 PUSH1 0x1 PUSH1 0xA0 SHL SUB SWAP6 SWAP1 SWAP6 AND DUP6 MSTORE PUSH1 0x2 SWAP4 DUP5 SIGNEXTEND PUSH1 0x20 DUP7 ADD MSTORE SWAP2 SWAP1 SWAP3 SIGNEXTEND PUSH1 0x40 DUP5 ADD MSTORE PUSH1 0x1 PUSH1 0x1 PUSH1 0x80 SHL SUB SWAP2 DUP3 AND PUSH1 0x60 DUP5 ADD MSTORE AND PUSH1 0x80 DUP3 ADD MSTORE PUSH1 0xA0 ADD SWAP1 JUMP JUMPDEST PUSH1 0x1 PUSH1 0x1 PUSH1 0xA0 SHL SUB SWAP3 SWAP1 SWAP3 AND DUP3 MSTORE PUSH1 0x20 DUP3 ADD MSTORE PUSH1 0x40 ADD SWAP1 JUMP JUMPDEST SWAP1 ISZERO ISZERO DUP2 MSTORE PUSH1 0x20 ADD SWAP1 JUMP JUMPDEST SWAP1 DUP2 MSTORE PUSH1 0x20 ADD SWAP1 JUMP JUMPDEST PUSH1 0x2 SWAP2 SWAP1 SWAP2 SIGNEXTEND DUP2 MSTORE PUSH1 0x20 ADD SWAP1 JUMP JUMPDEST PUSH1 0x2 SWAP4 DUP5 SIGNEXTEND DUP2 MSTORE SWAP2 SWAP1 SWAP3 SIGNEXTEND PUSH1 0x20 DUP3 ADD MSTORE PUSH1 0x1 PUSH1 0x1 PUSH1 0x80 SHL SUB SWAP1 SWAP2 AND PUSH1 0x40 DUP3 ADD MSTORE PUSH1 0x60 ADD SWAP1 JUMP JUMPDEST PUSH1 0x2 SWAP5 SWAP1 SWAP5 SIGNEXTEND DUP5 MSTORE PUSH1 0x20 DUP5 ADD SWAP3 SWAP1 SWAP3 MSTORE PUSH1 0x40 DUP4 ADD MSTORE PUSH1 0x60 DUP3 ADD MSTORE PUSH1 0x80 ADD SWAP1 JUMP JUMPDEST PUSH1 0x0 PUSH1 0x20 DUP3 MSTORE DUP3 MLOAD DUP1 PUSH1 0x20 DUP5 ADD MSTORE PUSH2 0x37D2 DUP2 PUSH1 0x40 DUP6 ADD PUSH1 0x20 DUP8 ADD PUSH2 0x3F36 JUMP JUMPDEST PUSH1 0x1F ADD PUSH1 0x1F NOT AND SWAP2 SWAP1 SWAP2 ADD PUSH1 0x40 ADD SWAP3 SWAP2 POP POP JUMP JUMPDEST PUSH1 0x20 DUP1 DUP3 MSTORE PUSH1 0x23 SWAP1 DUP3 ADD MSTORE PUSH32 0x45524332303A207472616E7366657220746F20746865207A65726F2061646472 PUSH1 0x40 DUP3 ADD MSTORE PUSH3 0x657373 PUSH1 0xE8 SHL PUSH1 0x60 DUP3 ADD MSTORE PUSH1 0x80 ADD SWAP1 JUMP JUMPDEST PUSH1 0x20 DUP1 DUP3 MSTORE PUSH1 0xA SWAP1 DUP3 ADD MSTORE PUSH10 0x30B6B7BAB73A1826B4B7 PUSH1 0xB1 SHL PUSH1 0x40 DUP3 ADD MSTORE PUSH1 0x60 ADD SWAP1 JUMP JUMPDEST PUSH1 0x20 DUP1 DUP3 MSTORE PUSH1 0x22 SWAP1 DUP3 ADD MSTORE PUSH32 0x45524332303A206275726E20616D6F756E7420657863656564732062616C616E PUSH1 0x40 DUP3 ADD MSTORE PUSH2 0x6365 PUSH1 0xF0 SHL PUSH1 0x60 DUP3 ADD MSTORE PUSH1 0x80 ADD SWAP1 JUMP JUMPDEST PUSH1 0x20 DUP1 DUP3 MSTORE PUSH1 0x2 SWAP1 DUP3 ADD MSTORE PUSH2 0x746F PUSH1 0xF0 SHL PUSH1 0x40 DUP3 ADD MSTORE PUSH1 0x60 ADD SWAP1 JUMP JUMPDEST PUSH1 0x20 DUP1 DUP3 MSTORE PUSH1 0x15 SWAP1 DUP3 ADD MSTORE PUSH21 0x3A34B1B5A637BBB2B9101E103A34B1B5AAB83832B9 PUSH1 0x59 SHL PUSH1 0x40 DUP3 ADD MSTORE PUSH1 0x60 ADD SWAP1 JUMP JUMPDEST PUSH1 0x20 DUP1 DUP3 MSTORE PUSH1 0x22 SWAP1 DUP3 ADD MSTORE PUSH32 0x45524332303A20617070726F766520746F20746865207A65726F206164647265 PUSH1 0x40 DUP3 ADD MSTORE PUSH2 0x7373 PUSH1 0xF0 SHL PUSH1 0x60 DUP3 ADD MSTORE PUSH1 0x80 ADD SWAP1 JUMP JUMPDEST PUSH1 0x20 DUP1 DUP3 MSTORE PUSH1 0x17 SWAP1 DUP3 ADD MSTORE PUSH32 0x7469636B4C6F7765722025207469636B53706163696E67000000000000000000 PUSH1 0x40 DUP3 ADD MSTORE PUSH1 0x60 ADD SWAP1 JUMP JUMPDEST PUSH1 0x20 DUP1 DUP3 MSTORE PUSH1 0x1D SWAP1 DUP3 ADD MSTORE PUSH32 0x45524332303A20696E73756666696369656E7420616C6C6F77616E6365000000 PUSH1 0x40 DUP3 ADD MSTORE PUSH1 0x60 ADD SWAP1 JUMP JUMPDEST PUSH1 0x20 DUP1 DUP3 MSTORE PUSH1 0x17 SWAP1 DUP3 ADD MSTORE PUSH32 0x7469636B55707065722025207469636B53706163696E67000000000000000000 PUSH1 0x40 DUP3 ADD MSTORE PUSH1 0x60 ADD SWAP1 JUMP JUMPDEST PUSH1 0x20 DUP1 DUP3 MSTORE PUSH1 0x26 SWAP1 DUP3 ADD MSTORE PUSH32 0x45524332303A207472616E7366657220616D6F756E7420657863656564732062 PUSH1 0x40 DUP3 ADD MSTORE PUSH6 0x616C616E6365 PUSH1 0xD0 SHL PUSH1 0x60 DUP3 ADD MSTORE PUSH1 0x80 ADD SWAP1 JUMP JUMPDEST PUSH1 0x20 DUP1 DUP3 MSTORE PUSH1 0x8 SWAP1 DUP3 ADD MSTORE PUSH8 0x3134B22AB83832B9 PUSH1 0xC1 SHL PUSH1 0x40 DUP3 ADD MSTORE PUSH1 0x60 ADD SWAP1 JUMP JUMPDEST PUSH1 0x20 DUP1 DUP3 MSTORE PUSH1 0x26 SWAP1 DUP3 ADD MSTORE PUSH32 0x416464726573733A20696E73756666696369656E742062616C616E636520666F PUSH1 0x40 DUP3 ADD MSTORE PUSH6 0x1C8818D85B1B PUSH1 0xD2 SHL PUSH1 0x60 DUP3 ADD MSTORE PUSH1 0x80 ADD SWAP1 JUMP JUMPDEST PUSH1 0x20 DUP1 DUP3 MSTORE DUP2 DUP2 ADD MSTORE PUSH32 0x616D6F756E743044657369726564206F7220616D6F756E743144657369726564 PUSH1 0x40 DUP3 ADD MSTORE PUSH1 0x60 ADD SWAP1 JUMP JUMPDEST PUSH1 0x20 DUP1 DUP3 MSTORE PUSH1 0x11 SWAP1 DUP3 ADD MSTORE PUSH17 0x70656E64696E67476F7665726E616E6365 PUSH1 0x78 SHL PUSH1 0x40 DUP3 ADD MSTORE PUSH1 0x60 ADD SWAP1 JUMP JUMPDEST PUSH1 0x20 DUP1 DUP3 MSTORE PUSH1 0xB SWAP1 DUP3 ADD MSTORE PUSH11 0x70726F746F636F6C466565 PUSH1 0xA8 SHL PUSH1 0x40 DUP3 ADD MSTORE PUSH1 0x60 ADD SWAP1 JUMP JUMPDEST PUSH1 0x20 DUP1 DUP3 MSTORE PUSH1 0x5 SWAP1 DUP3 ADD MSTORE PUSH5 0x3A37B5B2B7 PUSH1 0xD9 SHL PUSH1 0x40 DUP3 ADD MSTORE PUSH1 0x60 ADD SWAP1 JUMP JUMPDEST PUSH1 0x20 DUP1 DUP3 MSTORE PUSH1 0xC SWAP1 DUP3 ADD MSTORE PUSH12 0x29B430B93832A5B2B2B832B9 PUSH1 0xA1 SHL PUSH1 0x40 DUP3 ADD MSTORE PUSH1 0x60 ADD SWAP1 JUMP JUMPDEST PUSH1 0x20 DUP1 DUP3 MSTORE PUSH1 0xA SWAP1 DUP3 ADD MSTORE PUSH10 0x676F7665726E616E6365 PUSH1 0xB0 SHL PUSH1 0x40 DUP3 ADD MSTORE PUSH1 0x60 ADD SWAP1 JUMP JUMPDEST PUSH1 0x20 DUP1 DUP3 MSTORE PUSH1 0x6 SWAP1 DUP3 ADD MSTORE PUSH6 0x736861726573 PUSH1 0xD0 SHL PUSH1 0x40 DUP3 ADD MSTORE PUSH1 0x60 ADD SWAP1 JUMP JUMPDEST PUSH1 0x20 DUP1 DUP3 MSTORE PUSH1 0x21 SWAP1 DUP3 ADD MSTORE PUSH32 0x45524332303A206275726E2066726F6D20746865207A65726F20616464726573 PUSH1 0x40 DUP3 ADD MSTORE PUSH1 0x73 PUSH1 0xF8 SHL PUSH1 0x60 DUP3 ADD MSTORE PUSH1 0x80 ADD SWAP1 JUMP JUMPDEST PUSH1 0x20 DUP1 DUP3 MSTORE PUSH1 0x5 SWAP1 DUP3 ADD MSTORE PUSH5 0x63726F7373 PUSH1 0xD8 SHL PUSH1 0x40 DUP3 ADD MSTORE PUSH1 0x60 ADD SWAP1 JUMP JUMPDEST PUSH1 0x20 DUP1 DUP3 MSTORE PUSH1 0x25 SWAP1 DUP3 ADD MSTORE PUSH32 0x45524332303A207472616E736665722066726F6D20746865207A65726F206164 PUSH1 0x40 DUP3 ADD MSTORE PUSH5 0x6472657373 PUSH1 0xD8 SHL PUSH1 0x60 DUP3 ADD MSTORE PUSH1 0x80 ADD SWAP1 JUMP JUMPDEST PUSH1 0x20 DUP1 DUP3 MSTORE PUSH1 0xA SWAP1 DUP3 ADD MSTORE PUSH10 0x30B6B7BAB73A18A6B4B7 PUSH1 0xB1 SHL PUSH1 0x40 DUP3 ADD MSTORE PUSH1 0x60 ADD SWAP1 JUMP JUMPDEST PUSH1 0x20 DUP1 DUP3 MSTORE PUSH1 0x8 SWAP1 DUP3 ADD MSTORE PUSH8 0x30B9B5A637BBB2B9 PUSH1 0xC1 SHL PUSH1 0x40 DUP3 ADD MSTORE PUSH1 0x60 ADD SWAP1 JUMP JUMPDEST PUSH1 0x20 DUP1 DUP3 MSTORE PUSH1 0x11 SWAP1 DUP3 ADD MSTORE PUSH17 0x7469636B4C6F77657220746F6F206C6F77 PUSH1 0x78 SHL PUSH1 0x40 DUP3 ADD MSTORE PUSH1 0x60 ADD SWAP1 JUMP JUMPDEST PUSH1 0x20 DUP1 DUP3 MSTORE PUSH1 0x24 SWAP1 DUP3 ADD MSTORE PUSH32 0x45524332303A20617070726F76652066726F6D20746865207A65726F20616464 PUSH1 0x40 DUP3 ADD MSTORE PUSH4 0x72657373 PUSH1 0xE0 SHL PUSH1 0x60 DUP3 ADD MSTORE PUSH1 0x80 ADD SWAP1 JUMP JUMPDEST PUSH1 0x20 DUP1 DUP3 MSTORE PUSH1 0x12 SWAP1 DUP3 ADD MSTORE PUSH18 0xE8D2C6D6AAE0E0CAE440E8DEDE40D0D2CED PUSH1 0x73 SHL PUSH1 0x40 DUP3 ADD MSTORE PUSH1 0x60 ADD SWAP1 JUMP JUMPDEST PUSH1 0x20 DUP1 DUP3 MSTORE PUSH1 0x1D SWAP1 DUP3 ADD MSTORE PUSH32 0x416464726573733A2063616C6C20746F206E6F6E2D636F6E7472616374000000 PUSH1 0x40 DUP3 ADD MSTORE PUSH1 0x60 ADD SWAP1 JUMP JUMPDEST PUSH1 0x20 DUP1 DUP3 MSTORE PUSH1 0xE SWAP1 DUP3 ADD MSTORE PUSH14 0x6D6178546F74616C537570706C79 PUSH1 0x90 SHL PUSH1 0x40 DUP3 ADD MSTORE PUSH1 0x60 ADD SWAP1 JUMP JUMPDEST PUSH1 0x20 DUP1 DUP3 MSTORE PUSH1 0x2A SWAP1 DUP3 ADD MSTORE PUSH32 0x5361666545524332303A204552433230206F7065726174696F6E20646964206E PUSH1 0x40 DUP3 ADD MSTORE PUSH10 0x1BDD081CDD58D8D95959 PUSH1 0xB2 SHL PUSH1 0x60 DUP3 ADD MSTORE PUSH1 0x80 ADD SWAP1 JUMP JUMPDEST PUSH1 0x20 DUP1 DUP3 MSTORE PUSH1 0x1F SWAP1 DUP3 ADD MSTORE PUSH32 0x5265656E7472616E637947756172643A207265656E7472616E742063616C6C00 PUSH1 0x40 DUP3 ADD MSTORE PUSH1 0x60 ADD SWAP1 JUMP JUMPDEST PUSH1 0x20 DUP1 DUP3 MSTORE PUSH1 0x25 SWAP1 DUP3 ADD MSTORE PUSH32 0x45524332303A2064656372656173656420616C6C6F77616E63652062656C6F77 PUSH1 0x40 DUP3 ADD MSTORE PUSH5 0x207A65726F PUSH1 0xD8 SHL PUSH1 0x60 DUP3 ADD MSTORE PUSH1 0x80 ADD SWAP1 JUMP JUMPDEST PUSH1 0x20 DUP1 DUP3 MSTORE PUSH1 0x1F SWAP1 DUP3 ADD MSTORE PUSH32 0x45524332303A206D696E7420746F20746865207A65726F206164647265737300 PUSH1 0x40 DUP3 ADD MSTORE PUSH1 0x60 ADD SWAP1 JUMP JUMPDEST SWAP2 DUP3 MSTORE PUSH1 0x20 DUP3 ADD MSTORE PUSH1 0x40 ADD SWAP1 JUMP JUMPDEST SWAP3 DUP4 MSTORE PUSH1 0x20 DUP4 ADD SWAP2 SWAP1 SWAP2 MSTORE PUSH1 0x40 DUP3 ADD MSTORE PUSH1 0x60 ADD SWAP1 JUMP JUMPDEST SWAP4 DUP5 MSTORE PUSH1 0x20 DUP5 ADD SWAP3 SWAP1 SWAP3 MSTORE PUSH1 0x40 DUP4 ADD MSTORE PUSH1 0x60 DUP3 ADD MSTORE PUSH1 0x80 ADD SWAP1 JUMP JUMPDEST PUSH1 0xFF SWAP2 SWAP1 SWAP2 AND DUP2 MSTORE PUSH1 0x20 ADD SWAP1 JUMP JUMPDEST PUSH1 0x0 DUP3 NOT DUP3 GT ISZERO PUSH2 0x3EBF JUMPI PUSH2 0x3EBF PUSH2 0x400E JUMP JUMPDEST POP ADD SWAP1 JUMP JUMPDEST PUSH1 0x0 DUP3 PUSH2 0x3ED3 JUMPI PUSH2 0x3ED3 PUSH2 0x4024 JUMP JUMPDEST POP DIV SWAP1 JUMP JUMPDEST PUSH1 0x0 DUP2 PUSH1 0x0 NOT DIV DUP4 GT DUP3 ISZERO ISZERO AND ISZERO PUSH2 0x3EF2 JUMPI PUSH2 0x3EF2 PUSH2 0x400E JUMP JUMPDEST POP MUL SWAP1 JUMP JUMPDEST PUSH1 0x0 PUSH1 0x1 PUSH1 0x1 PUSH1 0xA0 SHL SUB DUP4 DUP2 AND SWAP1 DUP4 AND DUP2 DUP2 LT ISZERO PUSH2 0x3F17 JUMPI PUSH2 0x3F17 PUSH2 0x400E JUMP JUMPDEST SUB SWAP4 SWAP3 POP POP POP JUMP JUMPDEST PUSH1 0x0 DUP3 DUP3 LT ISZERO PUSH2 0x3F31 JUMPI PUSH2 0x3F31 PUSH2 0x400E JUMP JUMPDEST POP SUB SWAP1 JUMP JUMPDEST PUSH1 0x0 JUMPDEST DUP4 DUP2 LT ISZERO PUSH2 0x3F51 JUMPI DUP2 DUP2 ADD MLOAD DUP4 DUP3 ADD MSTORE PUSH1 0x20 ADD PUSH2 0x3F39 JUMP JUMPDEST DUP4 DUP2 GT ISZERO PUSH2 0x17A8 JUMPI POP POP PUSH1 0x0 SWAP2 ADD MSTORE JUMP JUMPDEST PUSH1 0x2 DUP2 DIV PUSH1 0x1 DUP3 AND DUP1 PUSH2 0x3F76 JUMPI PUSH1 0x7F DUP3 AND SWAP2 POP JUMPDEST PUSH1 0x20 DUP3 LT DUP2 EQ ISZERO PUSH2 0x3F97 JUMPI PUSH4 0x4E487B71 PUSH1 0xE0 SHL PUSH1 0x0 MSTORE PUSH1 0x22 PUSH1 0x4 MSTORE PUSH1 0x24 PUSH1 0x0 REVERT JUMPDEST POP SWAP2 SWAP1 POP JUMP JUMPDEST PUSH1 0x0 DUP3 PUSH1 0x2 SIGNEXTEND DUP1 PUSH2 0x3FB0 JUMPI PUSH2 0x3FB0 PUSH2 0x4024 JUMP JUMPDEST DUP1 DUP4 PUSH1 0x2 SIGNEXTEND SMOD SWAP2 POP POP SWAP3 SWAP2 POP POP JUMP JUMPDEST PUSH1 0x0 DUP3 PUSH2 0x3FCE JUMPI PUSH2 0x3FCE PUSH2 0x4024 JUMP JUMPDEST POP MOD SWAP1 JUMP JUMPDEST PUSH1 0x0 DUP2 PUSH1 0x2 SIGNEXTEND PUSH3 0x7FFFFF NOT DUP2 EQ ISZERO PUSH2 0x3FED JUMPI PUSH2 0x3FED PUSH2 0x400E JUMP JUMPDEST SWAP1 SUB SWAP2 SWAP1 POP JUMP JUMPDEST PUSH1 0x0 PUSH1 0x1 PUSH1 0xFF SHL DUP3 EQ ISZERO PUSH2 0x400A JUMPI PUSH2 0x400A PUSH2 0x400E JUMP JUMPDEST SUB SWAP1 JUMP JUMPDEST PUSH4 0x4E487B71 PUSH1 0xE0 SHL PUSH1 0x0 MSTORE PUSH1 0x11 PUSH1 0x4 MSTORE PUSH1 0x24 PUSH1 0x0 REVERT JUMPDEST PUSH4 0x4E487B71 PUSH1 0xE0 SHL PUSH1 0x0 MSTORE PUSH1 0x12 PUSH1 0x4 MSTORE PUSH1 0x24 PUSH1 0x0 REVERT JUMPDEST PUSH1 0x1 PUSH1 0x1 PUSH1 0xA0 SHL SUB DUP2 AND DUP2 EQ PUSH2 0x404F JUMPI PUSH1 0x0 DUP1 REVERT JUMPDEST POP JUMP JUMPDEST DUP1 PUSH1 0x2 SIGNEXTEND DUP2 EQ PUSH2 0x404F JUMPI PUSH1 0x0 DUP1 REVERT JUMPDEST PUSH1 0x1 PUSH1 0x1 PUSH1 0x80 SHL SUB DUP2 AND DUP2 EQ PUSH2 0x404F JUMPI PUSH1 0x0 DUP1 REVERT INVALID LOG2 PUSH5 0x6970667358 0x22 SLT KECCAK256 0xB6 0xC0 0xA9 RETURNDATASIZE 0x24 0xCB 0x21 0xBE SSTORE PUSH7 0xF8BEF62BEC6DA6 RETURNDATASIZE GT 0xE JUMPDEST DUP6 0xAD PUSH13 0xE14459D6A78436664736F6C63 NUMBER STOP ADDMOD STOP STOP CALLER ",
    "sha1": "8946d09a7e2c7cbc02824e93df775c75dc8b82b5",
    "source": "// SPDX-License-Identifier: Unlicense\n\npragma solidity ^0.8.0;\nimport \"@openzeppelin/contracts/security/ReentrancyGuard.sol\";\nimport \"@uniswap/v3-core/contracts/interfaces/callback/IUniswapV3MintCallback.sol\";\nimport \"@uniswap/v3-core/contracts/interfaces/callback/IUniswapV3SwapCallback.sol\";\nimport \"@openzeppelin/contracts/token/ERC20/ERC20.sol\";\nimport \"@openzeppelin/contracts/token/ERC20/IERC20.sol\";\nimport \"@openzeppelin/contracts/token/ERC20/utils/SafeERC20.sol\";\nimport \"@openzeppelin/contracts/utils/math/SafeMath.sol\";\nimport \"@uniswap/v3-core/contracts/interfaces/IUniswapV3Pool.sol\";\nimport \"@openzeppelin/contracts/utils/math/Math.sol\";\nimport \"@uniswap/v3-core/contracts/libraries/TickMath.sol\";\nimport \"@openzeppelin/contracts/token/ERC20/extensions/IERC20Metadata.sol\";\nimport \"@openzeppelin/contracts/utils/Context.sol\";\nimport \"@openzeppelin/contracts/utils/Address.sol\";\nimport \"@openzeppelin/contracts/token/ERC20/utils/SafeERC20.sol\";\nimport \"@uniswap/v3-core/contracts/interfaces/pool/IUniswapV3PoolImmutables.sol\";\nimport \"@uniswap/v3-core/contracts/interfaces/pool/IUniswapV3PoolState.sol\";\nimport \"@uniswap/v3-core/contracts/interfaces/pool/IUniswapV3PoolDerivedState.sol\";\nimport \"@uniswap/v3-core/contracts/interfaces/pool/IUniswapV3PoolActions.sol\";\nimport \"@uniswap/v3-core/contracts/interfaces/pool/IUniswapV3PoolOwnerActions.sol\";\nimport \"@uniswap/v3-core/contracts/interfaces/pool/IUniswapV3PoolEvents.sol\";\nimport \"@uniswap/v3-periphery/contracts/libraries/LiquidityAmounts.sol\";\nimport \"@uniswap/v3-periphery/contracts/libraries/PositionKey.sol\";\nimport \"../interfaces/IVault.sol\";\n\n\ncontract SharpeAI is\n    IVault,\n    IUniswapV3MintCallback,\n    IUniswapV3SwapCallback,\n    ERC20,\n    ReentrancyGuard\n{\n    using SafeERC20 for IERC20;\n    using SafeMath for uint256;\n\n    event Deposit(\n        address indexed sender,\n        address indexed to,\n        uint256 shares,\n        uint256 amount0,\n        uint256 amount1\n    );\n\n    event Withdraw(\n        address indexed sender,\n        address indexed to,\n        uint256 shares,\n        uint256 amount0,\n        uint256 amount1\n    );\n\n    event CollectFees(\n        uint256 feesToVault0,\n        uint256 feesToVault1,\n        uint256 feesToProtocol0,\n        uint256 feesToProtocol1\n    );\n\n    event Snapshot(int24 tick, uint256 totalAmount0, uint256 totalAmount1, uint256 totalSupply);\n\n    IUniswapV3Pool public immutable pool;\n    IERC20 public immutable token0;\n    IERC20 public immutable token1;\n    int24 public immutable tickSpacing;\n\n    uint256 public protocolFee;\n    uint256 public maxTotalSupply;\n    address public SharpeKeeper;\n    address public governance;\n    address public pendingGovernance;\n\n    int24 public baseLower;\n    int24 public baseUpper;\n    int24 public limitLower;\n    int24 public limitUpper;\n    uint256 public accruedProtocolFees0;\n    uint256 public accruedProtocolFees1;\n\n    /**\n     * dev After deploying, strategy needs to be set by offchain devs\n     * param _pool Underlying Uniswap V3 pool\n     * param _protocolFee Protocol fee expressed as multiple of 1e-6\n     * param _maxTotalSupply Cap on total supply\n     */\n    constructor(\n        address _pool,\n        uint256 _protocolFee,\n        uint256 _maxTotalSupply\n    ) ERC20(\"SharpeAI\", \"AI\") {\n        pool = IUniswapV3Pool(_pool);\n        token0 = IERC20(IUniswapV3Pool(_pool).token0());\n        token1 = IERC20(IUniswapV3Pool(_pool).token1());\n        tickSpacing = IUniswapV3Pool(_pool).tickSpacing();\n\n        protocolFee = _protocolFee;\n        maxTotalSupply = _maxTotalSupply;\n        governance = msg.sender;\n        \n        require(_protocolFee < 1e6, \"protocolFee\");\n    }\n    \n\n    /**\n     * @notice Deposits tokens in proportion to the vault's current holdings.\n     * @dev These tokens sit in the vault and are not used for liquidity on\n     * Uniswap until the next rebalance. Also note it's not necessary to check\n     * if user manipulated price to deposit cheaper, as the value of range\n     * orders can only by manipulated higher.\n     * @param amount0Desired Max amount of token0 to deposit\n     * @param amount1Desired Max amount of token1 to deposit\n     * @param amount0Min Revert if resulting `amount0` is less than this\n     * @param amount1Min Revert if resulting `amount1` is less than this\n     * @param to Recipient of shares\n     * @return shares Number of shares minted\n     * @return amount0 Amount of token0 deposited\n     * @return amount1 Amount of token1 deposited\n     */\n    function deposit(\n        uint256 amount0Desired,\n        uint256 amount1Desired,\n        uint256 amount0Min,\n        uint256 amount1Min,\n        address to\n    )\n        external\n        override\n        nonReentrant\n        returns (\n            uint256 shares,\n            uint256 amount0,\n            uint256 amount1\n        )\n    {\n        require(amount0Desired > 0 || amount1Desired > 0, \"amount0Desired or amount1Desired\");\n        require(to != address(0) && to != address(this), \"to\");\n\n        // Poke positions so vault's current holdings are up-to-date\n        _poke(baseLower, baseUpper);\n        _poke(limitLower, limitUpper);\n\n        // Calculate amounts proportional to vault's holdings\n        (shares, amount0, amount1) = _calcSharesAndAmounts(amount0Desired, amount1Desired);\n        require(shares > 0, \"shares\");\n        require(amount0 >= amount0Min, \"amount0Min\");\n        require(amount1 >= amount1Min, \"amount1Min\");\n\n        // Pull in tokens from sender\n        if (amount0 > 0) token0.safeTransferFrom(msg.sender, address(this), amount0);\n        if (amount1 > 0) token1.safeTransferFrom(msg.sender, address(this), amount1);\n\n        // Mint shares to recipient\n        _mint(to, shares);\n        emit Deposit(msg.sender, to, shares, amount0, amount1);\n        require(totalSupply() <= maxTotalSupply, \"maxTotalSupply\");\n    }\n\n    /// @dev Do zero-burns to poke a position on Uniswap so earned fees are\n    /// updated. Should be called if total amounts needs to include up-to-date\n    /// fees.\n    function _poke(int24 tickLower, int24 tickUpper) internal {\n        (uint128 liquidity, , , , ) = _position(tickLower, tickUpper);\n        if (liquidity > 0) {\n            pool.burn(tickLower, tickUpper, 0);\n        }\n    }\n\n    /// @dev Calculates the largest possible `amount0` and `amount1` such that\n    /// they're in the same proportion as total amounts, but not greater than\n    /// `amount0Desired` and `amount1Desired` respectively.\n    function _calcSharesAndAmounts(uint256 amount0Desired, uint256 amount1Desired)\n        internal\n        view\n        returns (\n            uint256 shares,\n            uint256 amount0,\n            uint256 amount1\n        )\n    {\n        uint256 totalSupply = totalSupply();\n        (uint256 total0, uint256 total1) = getTotalAmounts();\n\n        // If total supply > 0, vault can't be empty\n        assert(totalSupply == 0 || total0 > 0 || total1 > 0);\n\n        if (totalSupply == 0) {\n            // For first deposit, just use the amounts desired\n            amount0 = amount0Desired;\n            amount1 = amount1Desired;\n            shares = Math.max(amount0, amount1);\n        } else if (total0 == 0) {\n            amount1 = amount1Desired;\n            shares = amount1.mul(totalSupply).div(total1);\n        } else if (total1 == 0) {\n            amount0 = amount0Desired;\n            shares = amount0.mul(totalSupply).div(total0);\n        } else {\n            uint256 cross = Math.min(amount0Desired.mul(total1), amount1Desired.mul(total0));\n            require(cross > 0, \"cross\");\n\n            // Round up amounts\n            amount0 = cross.sub(1).div(total1).add(1);\n            amount1 = cross.sub(1).div(total0).add(1);\n            shares = cross.mul(totalSupply).div(total0).div(total1);\n        }\n    }\n\n    /**\n     * @notice Withdraws tokens in proportion to the vault's holdings.\n     * @param shares Shares burned by sender\n     * @param amount0Min Revert if resulting `amount0` is smaller than this\n     * @param amount1Min Revert if resulting `amount1` is smaller than this\n     * @param to Recipient of tokens\n     * @return amount0 Amount of token0 sent to recipient\n     * @return amount1 Amount of token1 sent to recipient\n     */\n    function withdraw(\n        uint256 shares,\n        uint256 amount0Min,\n        uint256 amount1Min,\n        address to\n    ) external override nonReentrant returns (uint256 amount0, uint256 amount1) {\n        require(shares > 0, \"shares\");\n        require(to != address(0) && to != address(this), \"to\");\n        uint256 totalSupply = totalSupply();\n\n        // Burn shares\n        _burn(msg.sender, shares);\n\n        // Calculate token amounts proportional to unused balances\n        uint256 unusedAmount0 = getBalance0().mul(shares).div(totalSupply);\n        uint256 unusedAmount1 = getBalance1().mul(shares).div(totalSupply);\n\n        // Withdraw proportion of liquidity from Uniswap pool\n        (uint256 baseAmount0, uint256 baseAmount1) =\n            _burnLiquidityShare(baseLower, baseUpper, shares, totalSupply);\n        (uint256 limitAmount0, uint256 limitAmount1) =\n            _burnLiquidityShare(limitLower, limitUpper, shares, totalSupply);\n\n        // Sum up total amounts owed to recipient\n        amount0 = unusedAmount0.add(baseAmount0).add(limitAmount0);\n        amount1 = unusedAmount1.add(baseAmount1).add(limitAmount1);\n        require(amount0 >= amount0Min, \"amount0Min\");\n        require(amount1 >= amount1Min, \"amount1Min\");\n\n        // Push tokens to recipient\n        if (amount0 > 0) token0.safeTransfer(to, amount0);\n        if (amount1 > 0) token1.safeTransfer(to, amount1);\n\n        emit Withdraw(msg.sender, to, shares, amount0, amount1);\n    }\n\n    /// @dev Withdraws share of liquidity in a range from Uniswap pool.\n    function _burnLiquidityShare(\n        int24 tickLower,\n        int24 tickUpper,\n        uint256 shares,\n        uint256 totalSupply\n    ) internal returns (uint256 amount0, uint256 amount1) {\n        (uint128 totalLiquidity, , , , ) = _position(tickLower, tickUpper);\n        uint256 liquidity = uint256(totalLiquidity).mul(shares).div(totalSupply);\n\n        if (liquidity > 0) {\n            (uint256 burned0, uint256 burned1, uint256 fees0, uint256 fees1) =\n                _burnAndCollect(tickLower, tickUpper, _toUint128(liquidity));\n\n            // Add share of fees\n            amount0 = burned0.add(fees0.mul(shares).div(totalSupply));\n            amount1 = burned1.add(fees1.mul(shares).div(totalSupply));\n        }\n    }\n\n    /**\n     * @notice Updates vault's positions. Can only be called by the strategy.\n     * @dev Two orders are placed - a base order and a limit order. The base\n     * order is placed first with as much liquidity as possible. This order\n     * should use up all of one token, leaving only the other one. This excess\n     * amount is then placed as a single-sided bid or ask order.\n     */\n    function rebalance(\n        int256 swapAmount,\n        uint160 sqrtPriceLimitX96,\n        int24 _baseLower,\n        int24 _baseUpper,\n        int24 _bidLower,\n        int24 _bidUpper,\n        int24 _askLower,\n        int24 _askUpper\n    ) external nonReentrant{\n        require(msg.sender == SharpeKeeper, \"SharpeKeeper\");\n        _checkRange(_baseLower, _baseUpper);\n        _checkRange(_bidLower, _bidUpper);\n        _checkRange(_askLower, _askUpper);\n\n        (, int24 tick, , , , , ) = pool.slot0();\n        require(_bidUpper <= tick, \"bidUpper\");\n        require(_askLower > tick, \"askLower\"); // inequality is strict as tick is rounded down\n\n        // Withdraw all current liquidity from Uniswap pool\n        {\n            (uint128 baseLiquidity, , , , ) = _position(baseLower, baseUpper);\n            (uint128 limitLiquidity, , , , ) = _position(limitLower, limitUpper);\n            _burnAndCollect(baseLower, baseUpper, baseLiquidity);\n            _burnAndCollect(limitLower, limitUpper, limitLiquidity);\n        }\n\n        // Emit snapshot to record balances and supply\n        uint256 balance0 = getBalance0();\n        uint256 balance1 = getBalance1();\n        emit Snapshot(tick, balance0, balance1, totalSupply());\n\n        if (swapAmount != 0) {\n            pool.swap(\n                address(this),\n                swapAmount > 0,\n                swapAmount > 0 ? swapAmount : -swapAmount,\n                sqrtPriceLimitX96,\n                \"\"\n            );\n            balance0 = getBalance0();\n            balance1 = getBalance1();\n        }\n\n        // Place base order on Uniswap\n        uint128 liquidity = _liquidityForAmounts(_baseLower, _baseUpper, balance0, balance1);\n        _mintLiquidity(_baseLower, _baseUpper, liquidity);\n        (baseLower, baseUpper) = (_baseLower, _baseUpper);\n\n        balance0 = getBalance0();\n        balance1 = getBalance1();\n\n        // Place bid or ask order on Uniswap depending on which token is left\n        uint128 bidLiquidity = _liquidityForAmounts(_bidLower, _bidUpper, balance0, balance1);\n        uint128 askLiquidity = _liquidityForAmounts(_askLower, _askUpper, balance0, balance1);\n        if (bidLiquidity > askLiquidity) {\n            _mintLiquidity(_bidLower, _bidUpper, bidLiquidity);\n            (limitLower, limitUpper) = (_bidLower, _bidUpper);\n        } else {\n            _mintLiquidity(_askLower, _askUpper, askLiquidity);\n            (limitLower, limitUpper) = (_askLower, _askUpper);\n        }\n    }\n    \n    function _checkRange(int24 tickLower, int24 tickUpper) internal view {\n        int24 _tickSpacing = tickSpacing;\n        require(tickLower < tickUpper, \"tickLower < tickUpper\");\n        require(tickLower >= TickMath.MIN_TICK, \"tickLower too low\");\n        require(tickUpper <= TickMath.MAX_TICK, \"tickUpper too high\");\n        require(tickLower % _tickSpacing == 0, \"tickLower % tickSpacing\");\n        require(tickUpper % _tickSpacing == 0, \"tickUpper % tickSpacing\");\n    }\n\n    /// @dev Withdraws liquidity from a range and collects all fees in the\n    /// process.\n    function _burnAndCollect(\n        int24 tickLower,\n        int24 tickUpper,\n        uint128 liquidity\n    )\n        internal\n        returns (\n            uint256 burned0,\n            uint256 burned1,\n            uint256 feesToVault0,\n            uint256 feesToVault1\n        )\n    {\n        if (liquidity > 0) {\n            (burned0, burned1) = pool.burn(tickLower, tickUpper, liquidity);\n        }\n\n        // Collect all owed tokens including earned fees\n        (uint256 collect0, uint256 collect1) =\n            pool.collect(\n                address(this),\n                tickLower,\n                tickUpper,\n                type(uint128).max,\n                type(uint128).max\n            );\n\n        feesToVault0 = collect0.sub(burned0);\n        feesToVault1 = collect1.sub(burned1);\n        uint256 feesToProtocol0;\n        uint256 feesToProtocol1;\n\n        // Update accrued protocol fees\n        uint256 _protocolFee = protocolFee;\n        if (_protocolFee > 0) {\n            feesToProtocol0 = feesToVault0.mul(_protocolFee).div(1e6);\n            feesToProtocol1 = feesToVault1.mul(_protocolFee).div(1e6);\n            feesToVault0 = feesToVault0.sub(feesToProtocol0);\n            feesToVault1 = feesToVault1.sub(feesToProtocol1);\n            accruedProtocolFees0 = accruedProtocolFees0.add(feesToProtocol0);\n            accruedProtocolFees1 = accruedProtocolFees1.add(feesToProtocol1);\n        }\n        emit CollectFees(feesToVault0, feesToVault1, feesToProtocol0, feesToProtocol1);\n    }\n\n    /// @dev Deposits liquidity in a range on the Uniswap pool.\n    function _mintLiquidity(\n        int24 tickLower,\n        int24 tickUpper,\n        uint128 liquidity\n    ) internal {\n        if (liquidity > 0) {\n            pool.mint(address(this), tickLower, tickUpper, liquidity, \"\");\n        }\n    }\n\n    /**\n     * @notice Calculates the vault's total holdings of token0 and token1 - in\n     * other words, how much of each token the vault would hold if it withdrew\n     * all its liquidity from Uniswap.\n     */\n    function getTotalAmounts() public view override returns (uint256 total0, uint256 total1) {\n        (uint256 baseAmount0, uint256 baseAmount1) = getPositionAmounts(baseLower, baseUpper);\n        (uint256 limitAmount0, uint256 limitAmount1) =\n            getPositionAmounts(limitLower, limitUpper);\n        total0 = getBalance0().add(baseAmount0).add(limitAmount0);\n        total1 = getBalance1().add(baseAmount1).add(limitAmount1);\n    }\n\n    /**\n     * @notice Amounts of token0 and token1 held in vault's position. Includes\n     * owed fees but excludes the proportion of fees that will be paid to the\n     * protocol. Doesn't include fees accrued since last poke.\n     */\n    function getPositionAmounts(int24 tickLower, int24 tickUpper)\n        public\n        view\n        returns (uint256 amount0, uint256 amount1)\n    {\n        (uint128 liquidity, , , uint128 tokensOwed0, uint128 tokensOwed1) =\n            _position(tickLower, tickUpper);\n        (amount0, amount1) = _amountsForLiquidity(tickLower, tickUpper, liquidity);\n\n        // Subtract protocol fees\n        uint256 oneMinusFee = uint256(1e6).sub(protocolFee);\n        amount0 = amount0.add(uint256(tokensOwed0).mul(oneMinusFee).div(1e6));\n        amount1 = amount1.add(uint256(tokensOwed1).mul(oneMinusFee).div(1e6));\n    }\n\n    /**\n     * @notice Balance of token0 in vault not used in any position.\n     */\n    function getBalance0() public view returns (uint256) {\n        return token0.balanceOf(address(this)).sub(accruedProtocolFees0);\n    }\n\n    /**\n     * @notice Balance of token1 in vault not used in any position.\n     */\n    function getBalance1() public view returns (uint256) {\n        return token1.balanceOf(address(this)).sub(accruedProtocolFees1);\n    }\n\n    /// @dev Wrapper around `IUniswapV3Pool.positions()`.\n    function _position(int24 tickLower, int24 tickUpper)\n        internal\n        view\n        returns (\n            uint128,\n            uint256,\n            uint256,\n            uint128,\n            uint128\n        )\n    {\n        \n        bytes32 positionKey = PositionKey.compute(address(this), tickLower, tickUpper);\n        return pool.positions(positionKey);\n    }\n    \n    /// @dev Wrapper around `LiquidityAmounts.getAmountsForLiquidity()`.\n    function _amountsForLiquidity(\n        int24 tickLower,\n        int24 tickUpper,\n        uint128 liquidity\n    ) internal view returns (uint256, uint256) {\n        (uint160 sqrtRatioX96, , , , , , ) = pool.slot0();\n        return\n            LiquidityAmounts.getAmountsForLiquidity(\n                sqrtRatioX96,\n                TickMath.getSqrtRatioAtTick(tickLower),\n                TickMath.getSqrtRatioAtTick(tickUpper),\n                liquidity\n            );\n    }\n\n    /// @dev Wrapper around `LiquidityAmounts.getLiquidityForAmounts()`.\n    function _liquidityForAmounts(\n        int24 tickLower,\n        int24 tickUpper,\n        uint256 amount0,\n        uint256 amount1\n    ) internal view returns (uint128) {\n        (uint160 sqrtRatioX96, , , , , , ) = pool.slot0();\n        return\n            LiquidityAmounts.getLiquidityForAmounts(\n                sqrtRatioX96,\n                TickMath.getSqrtRatioAtTick(tickLower),\n                TickMath.getSqrtRatioAtTick(tickUpper),\n                amount0,\n                amount1\n            );\n    }\n\n    /// @dev Casts uint256 to uint128 with overflow check.\n    function _toUint128(uint256 x) internal pure returns (uint128) {\n        assert(x <= type(uint128).max);\n        return uint128(x);\n    }\n\n    /// @dev Callback for Uniswap V3 pool.\n    function uniswapV3MintCallback(\n        uint256 amount0,\n        uint256 amount1,\n        bytes calldata data\n    ) external override {\n        require(msg.sender == address(pool));\n        if (amount0 > 0) token0.safeTransfer(msg.sender, amount0);\n        if (amount1 > 0) token1.safeTransfer(msg.sender, amount1);\n    }\n\n    /// @dev Callback for Uniswap V3 pool.\n    function uniswapV3SwapCallback(\n        int256 amount0Delta,\n        int256 amount1Delta,\n        bytes calldata data\n    ) external override {\n        require(msg.sender == address(pool));\n        if (amount0Delta > 0) token0.safeTransfer(msg.sender, uint256(amount0Delta));\n        if (amount1Delta > 0) token1.safeTransfer(msg.sender, uint256(amount1Delta));\n    }\n\n    /**\n     * @notice Used to collect accumulated protocol fees.\n     */\n    function collectProtocol(\n        uint256 amount0,\n        uint256 amount1,\n        address to\n    ) external onlyGovernance {\n        accruedProtocolFees0 = accruedProtocolFees0.sub(amount0);\n        accruedProtocolFees1 = accruedProtocolFees1.sub(amount1);\n        if (amount0 > 0) token0.safeTransfer(to, amount0);\n        if (amount1 > 0) token1.safeTransfer(to, amount1);\n    }\n\n    /**\n     * @notice Removes tokens accidentally sent to this vault.\n     */\n    function sweep(\n        IERC20 token,\n        uint256 amount,\n        address to\n    ) external onlyGovernance {\n        require(token != token0 && token != token1, \"token\");\n        token.safeTransfer(to, amount);\n    }\n\n    /**\n     * @notice Used to set the keeper contract that determines the position\n     * ranges and calls rebalance(). Must be called after this vault is\n     * deployed.\n     */\n    function setSharpeKeeper(address _SharpeKeeper) external onlyGovernance {\n        SharpeKeeper = _SharpeKeeper;\n    }\n\n    /**\n     * @notice Used to change the protocol fee charged on pool fees earned from\n     * Uniswap, expressed as multiple of 1e-6.\n     */\n    function setProtocolFee(uint256 _protocolFee) external onlyGovernance {\n        require(_protocolFee < 1e6, \"protocolFee\");\n        protocolFee = _protocolFee;\n    }\n\n    /**\n     * @notice Used to change deposit cap for a guarded launch or to ensure\n     * vault doesn't grow too large relative to the pool. Cap is on total\n     * supply rather than amounts of token0 and token1 as those amounts\n     * fluctuate naturally over time.\n     */\n    function setMaxTotalSupply(uint256 _maxTotalSupply) external onlyGovernance {\n        maxTotalSupply = _maxTotalSupply;\n    }\n\n    /**\n     * @notice Removes liquidity in case of emergency.\n     */\n    function emergencyBurn(\n        int24 tickLower,\n        int24 tickUpper,\n        uint128 liquidity\n    ) external onlyGovernance {\n        pool.burn(tickLower, tickUpper, liquidity);\n        pool.collect(address(this), tickLower, tickUpper, type(uint128).max, type(uint128).max);\n    }\n\n    /**\n     * @notice Governance address is not updated until the new governance\n     * address has called `acceptGovernance()` to accept this responsibility.\n     */\n    function setGovernance(address _governance) external onlyGovernance {\n        pendingGovernance = _governance;\n    }\n\n    /**\n     * @notice `setGovernance()` should be called by the existing governance\n     * address prior to calling this function.\n     */\n    function acceptGovernance() external {\n        require(msg.sender == pendingGovernance, \"pendingGovernance\");\n        governance = msg.sender;\n    }\n\n    modifier onlyGovernance {\n        require(msg.sender == governance, \"governance\");\n        _;\n    }\n}",
    "sourcePath": "contracts/SharpeAI.sol",
    "type": "contract"
}